:100000000000042061020000B9020000BB020000F1
:10001000BD020000BF020000C1020000000000009D
:10002000000000000000000000000000C30200000B
:10003000C502000000000000C7020000C902000065
:10004000CD020000CF020000BD160000D302000068
:10005000D5020000D7020000D90200002D170000D1
:10006000C91B0000DF020000E1020000E302000003
:10007000E5020000E7020000E9020000EB020000D8
:10008000ED020000EF020000F1020000F3020000A8
:10009000F5020000F7020000F9020000FB02000078
:1000A000FD020000FF020000010300000303000046
:1000B0000503000007030000CB020000CB02000094
:1000C000090300000B0300000D0300000F030000F4
:1000D00011030000130300001503000017030000C4
:1000E000190300001B0300001D030000CB020000E9
:1000F000CB02000021030000CB0200001F03000020
:10010000364937480A1A02D0072291438D463549AD
:1001100035480A1A06D00722914381F30988022242
:1001200082F3148831483249324A00F045F83248A7
:100130003249334A00F040F832483349334A00F03C
:100140003BF833483349344A00F036F833483449F1
:10015000344A00F031F834483449354A00F02CF87C
:1001600034483549354A00F027F8354835490022EA
:1001700000F02DF834483549002200F028F83448C2
:100180003449091A082903DB0022026004300160A7
:10019000314A90471F482049884205D00268043000
:1001A00003B4904703BCF7E700208646EC460020E6
:1001B00000212A4A9047FEE7884207D0521A05D00C
:1001C000037801300B700131013AF9D17047884250
:1001D00002D002700130FAE77047000000000420EE
:1001E00000E0032000000420000004203034000060
:1001F00020000020580000202403000024030000F9
:10020000402A0000303400002000002020000020A0
:10021000B82A0000B82A0000B82A0000B82A000056
:10022000B82A0000B82A0000B82A0000B82A000046
:1002300030340000683400005800002058000020CE
:10024000580000206106002064060020640600209B
:10025000640600206426002085020000A926000014
:100260000F484FF00701884385460E4880470E48E7
:10027000016841F470010160BFF34F8FBFF36F8FCE
:10028000FFF73EBF09480A490A4A884207D0521A76
:1002900005D0037801300B700131013AF9D1704774
:1002A000000004201D27000088ED00E0982A0000CF
:1002B0000000002020000020FEE7FEE7FEE7FEE74A
:1002C000FEE7FEE7FEE7FEE7FEE7FEE7FEE7FEE706
:1002D000FEE7FEE7FEE7FEE7FEE7FEE7FEE7FEE7F6
:1002E000FEE7FEE7FEE7FEE7FEE7FEE7FEE7FEE7E6
:1002F000FEE7FEE7FEE7FEE7FEE7FEE7FEE7FEE7D6
:10030000FEE7FEE7FEE7FEE7FEE7FEE7FEE7FEE7C5
:10031000FEE7FEE7FEE7FEE7FEE7FEE7FEE7FEE7B5
:04032000FEE700BF35
:10032400F0B595B01C46164608460D4600F0C6FFCB
:100334001A9B0D93CDE9086400242346082205A9DD
:1003440028460A948DF82C400C9400F0F3FF079B88
:100354000293BDF81830ADF80C30BDF81A30ADF882
:100364000E309DF814308DF8114003F00302012A79
:100374001DD1BDF81440059EC3F3C203C4F3831416
:100384008DF81030A20008230EA9284600F0D2FFF1
:10039400C6F3952608AB0093224602AB0EA930465D
:1003A40000F0E4FB284600F08DFF15B0F0BD022AF2
:1003B400F8D1BDF81640C3F3C203A4098DF8103078
:1003C4000827082C264628BF08263B4632460EA995
:1003D400284600F0AFFFA41B08AB02AA31460EA8C2
:1003E400374400F027FC002CEBD1DBE7014B012262
:1003F4001A707047990000207047000070B50E4DC8
:1004040006460FCD88B06C460FC495E80F0084E80B
:100414000F0008A9002E4FF00603084A41F8203DBA
:1004240008BF0022064801F04FF808B100F058FC5C
:10043400044B1E7008B070BDB82A0000F103000020
:10044400200000205800002007B5044B0093044A04
:100454004023FFF765FF03B05DF804FB6904000067
:100464005900002038B50D4B0D4D002018700D4873
:1004740004782D5DD2B21C4665B1043002F00AF84E
:1004840008B100F02DFC084B1A7812B12378002B28
:10049400FBD038BD0C3001F0DBFDF1E79900002002
:1004A400B8050020200000205800002008B50848A6
:1004B400084A0378D35C3BB1043001F095FF002077
:1004C400BDE80840FFF79ABF0C3001F06BFDF6E77A
:1004D40020000020B80500200120FFF78FBF000096
:1004E40010B5054CFFF7F8FF0421204600F0AEFAE2
:1004F4000123637210BD00BF34000020037813F0A1
:10050400030F03F0040202D012B910467047B2B1CF
:1005140003F00303012B03D0022B09D00120704701
:100524000A6800880232C0F3831002440A60F5E7C7
:100534000B684288023303EB92130B60EEE70B68FF
:100544004288013303EB92130288F4E72DE9F04F5C
:10055400484C87B00F460546861C0020019200F0E7
:1005640015FC23683B60D4E901231344226801335A
:100574009B1A04F21C4704F5836A04F21448B3423C
:1005840019D3019A0023002A6CD0012262F30103DB
:1005940043F0040365F389132168A2680A40033217
:1005A4000E44002044F82230266000F0F1FB0120C4
:1005B40007B0BDE8F08F0121384600F00BFC50462F
:1005C40000F01EFC404600F01BFC0DF118096068A9
:1005D400D4F808B049F8100D00EA0B00033004EB1E
:1005E40080004946FFF78AFF029BB0B90BEA030279
:1005F40004EB8202D16803919A1C013303EA0B0BCA
:1006040004EB8B0C01F00303012B0292DCF80CB019
:1006140020D0022B04D083460BE00BEA0300DDE775
:10062400BDF80E309B0903334FEA1B4B02EB9303D7
:100634000293404600F0E7FB08B1029B6360594611
:10064400384600F0C7FBD4E9012313442268013380
:100654009B1A94E7BDF80C30C3F383134FEA1B4B8A
:100664001344E5E7022262F3010343F0040365F354
:100674009F5391E76C01002008B50E4B0E48FF22F2
:100684009A600022C3F81824C3E90022C3F8142492
:1006940083F8202400F0CBFD38B9084A084B0949F7
:1006A4009B1ADB0802469A4200D108BD21F8222099
:1006B4000132F8E76C010020802A0000402A000083
:1006C400802A00000000002030B50B4C79B10B4AA1
:1006D4000B49121BD20800239A4201D1002030BDDD
:1006E40001EB83056D88854202D00133F4E70346AC
:1006F40054F83300F3E700BF402A0000802A0000CA
:1007040000000020094B013903EBC000032909D87C
:10071400DFE801F00A0204060420704700797047FC
:10072400407970470020704702207047402A00003B
:10073400034BD3E90030C31A58425841704700BFF5
:100744006C0100202DE9F04385B0FFF7F1FF074667
:10075400002840F0F2807A4DC5F81804BFF34F8F9B
:100764006868AC680DF1100848F8100D204003309B
:1007740005EB80004146FFF7C1FE009B06460028BA
:100784005FD104EA0302991C013305EB8202234082
:1007940005EB8303D268DB68029302F00303022BA8
:1007A4000192009162D1BDF8063066484FEA931871
:1007B400B8F1500FC14628BF4FF0500969F38F13A9
:1007C40009F10801ADF8063000F049FD074600289C
:1007D40000F0A18000F072FD334601A908223846DA
:1007E40000F07FFD009924EA01060136B600B14508
:1007F40035D95FFA89F97EB3F6B2A9EB060921402F
:1008040003315FFA89F4B1464F4E05EB81010823A9
:100814004A46384600F065FD36B109F10803224620
:100824003146384600F05DFD009B08F1030803EBF8
:1008340098030093D5F81834002B4AD1D5F8104406
:1008440058E02A689A4204D86A60384605B0BDE880
:10085400F08304EA03008AE73B493446D7E72140A2
:10086400033108234A4605EB8101DAE7012B52D113
:10087400BDF804303348C3F38311062928BF062189
:1008840061F3891302318900ADF8043000F0E7FC0C
:10089400074600283FD000F011FD3346082201A985
:1008A400384600F01EFDBDF80420C2F38312B31CC9
:1008B40096424FEA8303BDD200994A1C214003317A
:1008C400009205EB81010422384600F00AFD01364E
:1008D400E9E7384600F0F6FCFFF72AFF80F0010054
:1008E400C7B2B2E7637A23B1236839461B6820464E
:1008F40098476468002CF5D1384600F0E3FC2046A4
:1009040000F044FAD5F818340BB9009B6B60002052
:1009140000F03EFAE0E7D5F8104444B90B4B0C491B
:100924001888000440F0020000F06CF8D4E7236853
:1009340020469B6898476468EFE7002785E700BF77
:100944006C010020802A000078010020140000209F
:10095400E42A00002DE9F74F284C80460F469246C2
:1009640001A9012218469B46D4F80890FFF7EEFD32
:1009740088B3019D0026A91C5E4506EB010234D113
:1009840000211F4800F006FA80F310006A1C02EAF6
:10099400090204EB8202000405EA0903033340EA76
:1009A4001840D06014F8232068F3C50204F823200B
:1009B40034F8232066F3891224F8232054F82320E2
:1009C400012167F39F2244F8232061F301026FF3AE
:1009D400820204F8232094F820341BB1FFF7B2FEFE
:1009E4000028FBD103B0BDE8F08F09EA020204EB52
:1009F40082025AF82630D3600136BDE76C0100202C
:100A04008805002000231A46FFF7A4BF13B502ACE3
:100A1400012344F8042D2246FFF79CFF02B010BDC9
:100A240007B5CDE9002302236A46FFF793FF03B01D
:100A34005DF804FB1FB5CDE90123069B039301AACE
:100A44000323FFF787FF05B05DF804FB0F4A30B5B9
:100A5400D2F810440023214641B90372D2F810445D
:100A64004CB9C2F810044160184630BD0D7A9D425D
:100A740005D04968F0E7626842606060F4E70133DA
:100A84000A2BE8D14FF0FF33EEE700BF6C010020E2
:100A9400084A38B50123D2F8104482F820341D46A0
:100AA40004B938BD2368657220465B68984764685A
:100AB400F6E700BF6C010020037A052B10B50C4645
:100AC4000FD0437A23B1084A0849204600F0F5F9CB
:100AD4000749204600F0F1F92046BDE8104000F037
:100AE400E1B9002AF8D0F3E73F2B0000442B0000C3
:100AF400642B0000C38873B504460D4633B1144A11
:100B040000921449144A284600F0D7F9217A05299D
:100B14001CD0637A4BB1A088FFF7F4FD0F4B10494A
:100B240053F82020284600F0C8F9227A0D4BA088FB
:100B340053F822600021FFF7C7FD0B4903463246F4
:100B4400284602B0BDE8704000F0B7B902B070BDED
:100B54003F2B00004F2B0000472B00000C2B000004
:100B6400442B0000742B0000672B00002DE9F04398
:100B740085B01F460C9D002306460C46904695F80A
:100B84000C902B7329463846FFF7B4FFB8F1060FD3
:100B940009D8DFE808F00412181F28334000314652
:100BA400284600F08AF9002229463846FFF784FFD8
:100BB40085F80C9005B0BDE8F083226831462846DC
:100BC40000F07BF9EFE7D4E900233146284600F032
:100BD40074F9E8E7A36800933146D4E90023284672
:100BE40000F06BF9DFE7E3680193A36800933146F3
:100BF400D4E90023284600F060F9D4E7236902937E
:100C0400E3680193A36800933146D4E9002328469E
:100C140000F053F9C7E76369039323690293E36818
:100C24000193A36800933146D4E90023284600F0D9
:100C340044F9B8E708292DE9F84F80460E461746CF
:100C44001C4636D8002593F80C901D73194610469F
:100C5400FFF750FFDFF87CA0DFF87CB0AE422AD962
:100C640018F805205946204600F027F90135082DCB
:100C7400F4D11649DFF864B0204600F01EF90025CF
:100C8400AE421DD918F805A0504601F079FE00289F
:100C940014BF52462E225946204600F00EF9013563
:100CA400082DEDD1012221463846FFF705FF84F8CF
:100CB4000C90BDE8F88F5146204600F0FEF8D5E7C9
:100CC4000349204600F0F9F8E9E700BF3A2B000099
:100CD400382B0000362B0000302B00003C2B00008A
:100CE4001FB50021039001AA44F20100CDE90111CE
:100CF40000F004F805B05DF804FB000010B572B60E
:100D0400FFF7C6FEFFF71EFD0028FBD1104C11496A
:100D14002088000440F00100FFF774FE0E4B1B68AE
:100D2400DB0700D500BE20880C49000440F0020017
:100D3400FFF768FEBFF34F8F09490A4BCA6802F4F4
:100D4400E0621343CB60BFF34F8F00BFFDE700BFEA
:100D540014000020D32B0000F0ED00E0DF2B000096
:100D640000ED00E00400FA0572B6024A136801338C
:100D74001360704790050020034A1368013B136019
:100D840003B962B6704700BF90050020FFF7ECBFBF
:100D9400FFF7F2BF50E8002F0B4640E8003C9CF000
:100DA400000FF7D11046704750E8003F43EA0102B4
:100DB40040E8002C9CF0000FF6D11046704750E834
:100DC400002F02EA010340E8003C9CF0000FF6D13A
:100DD4001046704750E8003F03EB010240E8002C46
:100DE4009CF0000FF6D11046704750E8003FA3EB8B
:100DF400010240E8002C9CF0000FF6D11046704729
:100E04000121FFF7D1BF0021FFF7D9BF10B590B181
:100E1400D0E9012301689B1ADBB20A60013BDBB213
:100E2400FF2B026802D10020107110BD11684C1C08
:100E340014600B70F2E70E20F7E738B50446002083
:100E4400FFF7A4FF226863681168994213D9481E0A
:100E5400106011F8015CE368A18A01FB0535A36801
:100E640011791B1ADBB2994200D213710020FFF7EB
:100E74008FFF284638BD0025F8E738B50546002021
:100E84000C46FFF783FF2A681368591C1160E96850
:100E9400641AA98AB4FBF1F41C700020BDE8384040
:100EA400FFF776BF826810B504462AB1436901682A
:100EB400006998470023A36010BD0EB403B50399DD
:100EC40029B102AA04AB42F8043D00F06BF802B069
:100ED4005DF804EB03B07047826830B40468551CB5
:100EE4008560A154D0E901329A4202D330BCFFF7A5
:100EF400D9BF30BC704700002DE9F84F9946DDE9B1
:100F04000A431746824688460A460126BA420FD249
:100F14004E4538BF4E4613F0010B01D164B900248D
:100F24000125B9F1010F1AD909F1FF397D43F8E719
:100F3400B2FBF7F20136E9E79B070ED5B9F1000FD2
:100F44000CBF30252025A642EAD2013C2946504652
:100F5400FFF7C2FF002CF6D1E1E72025F3E7B8FB49
:100F6400F5F39F42E2D9DFF83890B8FBF5F3504629
:100F740019F8031005FB1388FFF7AEFFB5FBF7F56F
:100F8400002DF2D1BBF1000F02D00CB1A64201D367
:100F9400BDE8F88F20215046013CFFF79DFFF4E7A0
:100FA400EC2B00002DE9F74F054690460E4600292C
:100FB40000F03A8116F8011B002958D0252940F089
:100FC400D180002702E047F001071646324612F8A6
:100FD400013B2D2BF7D0302B04D02B2B05D147F020
:100FE4000407F2E747F00207EFE700242A2B06F193
:100FF40001021BD1D8F80030191D1B68C8F8001075
:101004001C44164633782E2B1CD101364FF0000AAF
:10101400314611F8012BA2F13000092814D80A2313
:1010240003FB0A23A3F1300A0E46F1E712F8013C50
:10103400A3F130010929E5D80A2101FB0434303C2D
:101044001646D3E74FF0000A324612F8011B01F0AE
:10105400FB0068281646F8D0692916D054D85829B8
:1010640070D00ED825297DD03378002BA2D12B7BCC
:10107400002B00F0D980284603B0BDE8F04FFFF7FD
:1010840011BF632968D06429EED1D8F80020D2F8C2
:101094000090111D89EAE972C8F80010A2EBE97208
:1010A4004FF0010B092A61DCD34538BFD3462CB17C
:1010B400B9F1000F01DB790700D5013CBA0702D56D
:1010C400BAF1000F04D0FB0702D4002C54D1002441
:1010D400B9F1000F58DAC9F100092D212846FFF7AC
:1010E400FBFE07F00302022A05D1BAF1000F02D178
:1010F400002C4DD10024CDE9004753460A2249462D
:101104002846FFF7F9FEAFE7732954D016D87029A3
:10111400AAD1D8F800301A1DC8F80020302128467A
:101124001C68FFF7D9FE78212846FFF7D5FE002278
:101134000823CDE9003221461022E1E775292FD09A
:10114400782991D1D8F800100A1DC8F80020CDE9FB
:101154000047534610222CE0D8F800301A1D1978A5
:10116400C8F800202846FFF7B7FE7DE70A230BF1F5
:10117400010B92FBF3F295E7A345A9D2202128465F
:10118400013CFFF7A9FEA0E77807AAD52B21A5E724
:10119400A345B0D230212846013CFFF79DFEA7E7C6
:1011A400D8F80010CDE900470A1DC8F800205346BE
:1011B4000A220968A4E7D8F800301A1DC8F80020EC
:1011C400F907D3F8009012D54F46A7EB090B17F88F
:1011D400011B41B9A345BFF447AF20212846013C78
:1011E400FFF77AFEF6E72846FFF776FEEDE7B9F15A
:1011F400000F17D0484601F0F1FB0746BC4200D966
:1012040054B909F1FF3919F8011F00293FF42CAF33
:101214002846FFF761FEF6E720212846013CFFF748
:101224005BFEEBE74F46E9E703B0BDE8F08FFFF75D
:10123400EDBDF8B546790146721E0546002393427A
:101244002D6803D30024A64202D8F8BD0133F6E783
:101254000F682846FFF711FE01343946F3E72DE9FC
:10126400F843868ACD1C0746FFF7E7FD043E354464
:101274000446B5FBF6F5F0B14FF48073EDB283800C
:10128400C680013D076081464FF00008A84512D290
:101294003846FFF7D2FD064648B1637901336371DE
:1012A40008F10108C9F8000007608146EEE720460E
:1012B400FFF7BFFF34462046BDE8F8830121043020
:1012C400FFF788BD10B5012104460430FFF78DFDFA
:1012D40010F0FF0F04D12046BDE81040FFF7A9BF6E
:1012E40010BD2DE9F843C7880546181D8846B0FB94
:1012F400F7F4164607FB14003CB9A7EB0009B14507
:1013040028BFB14626B9BDE8F8832D68013CF3E750
:101314000430A6EB09064A4608EB0401284401F010
:1013240034FBB7424C442D68B9464FF0000028BF47
:10133400B146E7E72DE9F843C7888846191D0546F5
:10134400B1FBF7F4164607FB14113CB9A7EB0109EE
:10135400B14528BFB14626B9BDE8F8832D68013CE4
:10136400F3E704312944A6EB09064A4608EB0400D6
:1013740001F00BFBB7424C442D68B9464FF0000115
:1013840028BFB146E7E70000064B10B500241C70E7
:10139400054B1C60BFF35F8F0449054800F024F837
:1013A400204610BD9C050020A0050020FC2B000059
:1013B4009405002008B50020FFF7E8FCF1EE103A90
:1013C40023F09F03E1EE103ABFF35F8F054B4022F9
:1013D400C3F884210020FFF7DBFC20BF40BF20BFFF
:1013E40008BD00BF00E100E00B684A684360934217
:1013F40008BF0023016008BF436070470D4930B542
:10140400A1F58C720225914201D800200EE08B1ABE
:10141400DB1093FBF5F302EBC30452F83330834241
:1014240005D802D204F10802EDE7606830BD214618
:10143400E9E700BF3C2D000008B5FFF7DFFF024BD2
:10144400002808BF184608BD112C0000034B18786B
:1014540010B901221A70704785207047A405002036
:101464001FB503788DF8003043680193037A8DF833
:101474000830C3680393054A054B684653F8213086
:1014840052F82110984705B05DF804FBA805002028
:10149400B00500201FB503788DF800304368019330
:1014A40083688DF80830C3680393054A054B684682
:1014B40053F8213052F82110984705B05DF804FB29
:1014C400A8050020B0050020F0B5194B0678DFF818
:1014D40070E043F82620174B94460A6943F8262007
:1014E4004B7F0EF806300C4607460FCC89B06D468C
:1014F4000FC594E80F0085E80F001EF80630049627
:1015040053B1BCF1000F0C4A694608BF0022381DD4
:1015140000F088FE09B0F0BDBCF1000F074A69462F
:1015240008BF002207F10C0000F062FCF2E700BFE4
:10153400B0050020A80500206514000099140000DF
:10154400B80500202DE9F84F1E4E1F4F80464FF07E
:10155400000A04254FF001095FFA8AFB002009FA0A
:101564000BF4FFF713FC344208D03B6814EA03027F
:1015740001BF23433B6088F800B015460020FFF705
:1015840007FCCDB9114B1249188800045A4640F0A3
:101594000300FFF73BFA0D4B28461C88FFF74CFF6E
:1015A400240444F0030403460A4A0B492046FFF787
:1015B40037FA2846BDE8F88FA6430AF1010ACBD1D1
:1015C400E9E700BFFFFF0F00BC0500201400002066
:1015D40014310000CD3000002B31000073B50B46F0
:1015E40089B382B301248440C4F31301174E31B389
:1015F400174909680C4224D0C4003588154904F100
:10160400804404F5F8342D04C4F81035C4F81425C6
:101614000092024645F00300FFF70CFA00243588D7
:101624002046FFF709FF2D0445F0030503460A4A47
:101634000A492846FFF7F4F9204602B070BD072492
:10164400EDE70824EBE70E24F6E700BF14000020C2
:10165400BC05002049310000E43000002B310000BB
:1016640038B5012303FA00F0C0F313031BB10D4B8B
:101674001B68184213D00C4B0025C3F804050B4B10
:1016840028461C88FFF7D8FE240444F003040346CC
:10169400074A08492046FFF7C3F9284638BD0825FC
:1016A400EDE700BFBC05002000F00140140000205D
:1016B400FC3000002B310000014B1B68184700BFB1
:1016C400C005002038B50A4B98420D460CD10020C5
:1016D400FFF75CFB074B1C7914B901221D601A71DA
:1016E4000020FFF755FB0CB9002038BD1120FCE7A2
:1016F40000200040C0050020034B984201BF034B6B
:1017040000221A601A71704700200040C0050020B2
:1017140000F1804000F5E040002382B003600368DC
:101724000193019B02B07047F0B5514B514C1B68BB
:1017340085B0DBB14FF4827094F82E20FFF7E8FFF8
:1017440012B194F82F30A3B1636802932389ADF8E2
:101754000C30E36800218DF80410002B44D123746D
:10176400236801A89847002384F82F3094F82E307A
:1017740003B3414B1B68EBB14FF48070FFF7C8FF14
:1017840094F82D20638B91B28B4238D95B1A21894E
:101794009BB26383CB1A616801EB4301374BC3F8F7
:1017A4002C16C3F830264FF48270FFF7B1FF344B88
:1017B40001221A60334B1B685BB14FF48870FFF74A
:1017C400A7FF002304A82374022300F80C3D236818
:1017D40098472D4B1B6813B34FF48A70FFF798FF9B
:1017E4000023237405B0F0BD208B608363602081E7
:1017F400E160002AB4D1214B01221A60B0E7D2D1B2
:10180400E368012184F82F103BB1002161831B4957
:10181400C1F82C36C1F83026C5E76383C3E766698F
:101824004FF000470125002EDCD0B6FA86F227FAE5
:1018340002F34632920026EA030602F1804303F5DE
:10184400E0431B68002BEED01046FFF761FFA2F5C2
:101854008C72D30882F00402C2F380028DF808303F
:101864008DF804508DF80920236801A89847DAE719
:1018740004710040C8050020007100400070004061
:1018840004700040107100401471004038B51D4BC5
:10189400044693F82C0098BB1B4A19602178C2F8BF
:1018A400F0156178C2F8F415E5781874012183F80D
:1018B4002C1083F82D00586183F82F0083F82E50E4
:1018C4006FF00043C2F808334FF48270FFF720FF33
:1018D4004FF48070FFF71CFFA3780C485B01DBB268
:1018E40080F807338023C0F8803103600223C2F8F4
:1018F40004330DB1C2F80413C2F80015002038BD3A
:101904000820FCE7C80500200070004000E100E06A
:10191400244B1A7C30B5002A42D100F10C0403EBAD
:101924004402127922B993F82D20013283F82D2034
:1019340003EB4403CA790C7A1A715C718D784B7885
:101944002D021B0105F4E06503F030032B430D78F1
:1019540005F003052B43CD782D0305F480552B4367
:101964000D792D0405F4E0252B434D7989792D0556
:1019740005F48015090601F080712B430B43010126
:1019840001F1804101F5E0410020C1F81835C1F8AA
:101994001445C1F81025C1F81445C1F8102530BD0F
:1019A4001120FCE7C8050020054B93F82E30002BCE
:1019B40014BF0020042000F1804000F5E04070478F
:1019C400C8050020264A274B70B505461220C2F8E8
:1019D40008031C7C022C03D1C2F80403112070BD3F
:1019E400187C01281DD1D86818B10223C2F8043329
:1019F400F4E7DD60198393F82E3063B91A4A13684B
:101A0400002BFCD04FF48070FFF782FE144BC3F818
:101A14002C56C3F83016124B0222C3F804230020BC
:101A2400DDE7022093F82E40C2F8040301260020CB
:101A34001E745D601981D8603CB1598393F82D30D0
:101A4400C2F82C56C2F83036C9E7C2F82C564FF407
:101A54008070C2F83016FFF75BFE20461660BEE7C2
:101A640000700040C805002000710040F7B50579FA
:101A7400334C0C266E43A7193B7A002B5ED1A2513E
:101A84004A687A60467900681F46DAB296424BD8B3
:101A9400020B53B2CE78002BA8BF03F16047D2B239
:101AA4004FEA5313B8BF02F00F0C4FEA4616B4BF07
:101AB400244F07F561474FEA8303F6B203F160430D
:101AC400B4BF07F80C6087F8006303F5614301268F
:101AD40002F01F0206FA02F2C3F880211A60D0F85D
:101AE40004254B7822F0030203F003031343C0F8E8
:101AF4000435D0F808258B7822F0030203F00303A1
:101B04001343C0F80835D0F810250B7822F00F02E3
:101B140003F00F031343C0F810350C2303FB0544F3
:101B24000020267203B0F0BD03F15002013340F8E7
:101B3400227050F822200192019AA6E70820F1E7CA
:101B4400F805002014ED00E0036801221A6003790F
:101B5400034A0C2101FB032302221A72704700BFBF
:101B6400F805002037B54FF480348C4000687BB111
:101B740001F150039B000025C550C3580193019BFC
:101B8400C0F8044301F5A87140F8212003B030BD2A
:101B9400C0F80843F6E7F0B404689DF81070D4F870
:101BA400005240F201168E4025EA0605C4F80052A0
:101BB400D4F800522B43C4F800323B46F0BCFFF784
:101BC400D1BF00002DE9F341104C114F114E0025F7
:101BD4004FF480382368A4F5004080B26BB1D7F885
:101BE400043308FA05F21A4207D00023236023685D
:101BF4000193019BD6E9003198470135042D04F186
:101C04000404E7D102B0BDE8F08100BF4081004088
:101C140000800040F80500200023435082B0435860
:101C24000193019B02B070470A4610B54FF48E71C0
:101C3400FFF7F2FF136A9168C95C136A01331362F8
:101C4400C0F81C1510BD8B690A4610B54FF4847199
:101C540023B9FFF7E1FFD0F8183510BDFFF7DCFF1B
:101C6400536AD168D0F81805C854536A01335362D3
:101C7400F3E700001FB501238DF80030044BCDE9D4
:101C84000110D3E900126846904705B05DF804FBE3
:101C94000406002030B54C4AD2F8043313F4007F14
:101CA40085B015464FD0D2F82431002B4BD04FF4D9
:101CB40092711046FFF7B0FF4FF40173C2F8083376
:101CC400424B93F8291009B9012151603E4902227F
:101CD4008DF80020D1F88024C1F8802403929A69F9
:101CE4000292DA6801920022C3E906226846D3E927
:101CF400001290473448D0F81C315BB133490A6A6A
:101D04004B699A420A464BD291F82830002B47D1AE
:101D1400FFF78AFF2C4AD2F8443193B14FF4A271F1
:101D24001046FFF779FF294B93F8291009B10121D7
:101D340011609A692AB100229A61586AD968FFF73A
:101D440099FF05B030BDD5F804335B07D2D5D5F87B
:101D54000831002BCED01D4C1B482146FFF773FFE2
:101D6400636AA2699A422346C4D1E269E1684AB12E
:101D74002369E3600023606AA261E3616362FFF7A1
:101D840079FFB7E794F829200AB901226A600E4A5C
:101D94004FF40170C2F8080300229A61586AEEE712
:101DA4004FF48E710848FFF737FF51690029B1D00D
:101DB4000023029191688DF80030019153616846C7
:101DC400D2E900139847A5E700200040040600204C
:101DD4001F2886BF00F01F00044B4FF0A04300F5FE
:101DE400E070022243F82020704700BF0003005037
:101DF4002DE9F843664B047991462C2202FB043208
:101E0400064692F82A200D469846002A40F0BC80E7
:101E140060490068FFF756FC0746002840F0B6808A
:101E240029684A1C10D01F2987BF01F01F035A4A92
:101E34000B464FF0A0420120984003F5E073C2F82E
:101E44000805032042F823006868431C0DD01F28AE
:101E54008BBF00F01F0303464F4A4FF0A04203F527
:101E6400E0734FF0000C42F823C03368AA6995F878
:101E740014C0C3F824256A7DBCF1010F4CEA0202A8
:101E8400C3F86C25C3F81405C3F80C152BD1A96845
:101E9400481C0DD01F298BBF01F01F020A463E4883
:101EA4004FF0A04002F5E0724FF0000C40F822C061
:101EB400E868421C13D01F2887BF00F01F0C364A65
:101EC40084464FF0A0424FF0010E0EFA0CFE0CF5C2
:101ED400E07CC2F808E54FF0030E42F82CE0C3F8AA
:101EE4000805C3F810152C23634308EB0302C2F85A
:101EF40004902A6948F80320B9F1000F31D04FF457
:101F04008E7130682D7FFFF787FE30684FF4A27121
:101F1400FFF782FE3268214BC2F80433120B53B22E
:101F2400002BA8BF03F160404FEA53134FEA451159
:101F3400BABF1B4802F00F0500F561404FEA830366
:101F4400C9B203F16043B4BF415580F8001303F5EF
:101F5400614302F01F02012101FA02F2C3F8802159
:101F64001A6033680422C3F800252C2303FB04837E
:101F74000022C3E9062283F829205A61012283F84A
:101F84002A203846BDE8F8830827FAE71127F8E73E
:101F940004060020991C0000000300508000020089
:101FA40014ED00E02DE9F04103680479254D002289
:101FB400C3F800252C2202FB04520646526872B173
:101FC400214AC3F80823190B4AB20120520901F02F
:101FD4001F0100FA01F120321C4840F82210D3F806
:101FE4000C05D3F81485D3F80815D3F810754FF001
:101FF400FF329042C3F81425C3F80C25C3F8082512
:10200400C3F8102501D0FFF7E3FEB8F1FF3F02D07B
:102014004046FFF7DDFE7A1C02D03846FFF7D8FEB3
:102024004B1C02D00846FFF7D3FE3068FFF764FB71
:102034002C2303FB0454002384F82A306360BDE896
:10204400F08100BF040600208402020000E100E0E9
:102054002DE9F843224F06794FF02C0909FB067449
:1020640080466569002D37D16261A16025624FF415
:102074008E71006884F82850FFF7CEFDD8F8000070
:10208400012383602146FFF7CFFD6368A1462BBB84
:10209400D8F80050226A63699A4212D3D8F8003003
:1020A400D3F81C21002AFBD00122DA6000202C2363
:1020B40003FB067600237361BDE8F88394F82830A7
:1020C40043B9D5F81C31002BF8D049462846FFF710
:1020D400ABFDDFE70F20EAE71120EDE72846EBE749
:1020E400040600200023435082B043580193019B0F
:1020F40002B070471FB501238DF80030054B8DF8F1
:10210400080001916846D3E90012904705B05DF8D4
:1021140004FB00BF300600207FB5384AD2F82461A2
:10212400002E49D010464FF49271FFF7DBFF0223D3
:102134008DF80030D2F88034C2F880340393D2F89A
:102144003C358DF808302E4BDA6801920022C3E941
:1021540006226846D3E900129047284AD2F844314F
:1021640073B14FF4A2711046FFF7BCFF244B996979
:1021740031B100219961D2F83C05D968FFF7BAFF63
:102184001E4AD2F82031ABB14FF490711046FFF7DC
:10219400A9FF1B4B596969B1D2F84C158DF8081089
:1021A400002299688DF8002001915A616846D3E9AC
:1021B4000012904704B070BDD2F81031002BCCD07F
:1021C4004FF488711046FFF78DFF0D4BD2F83C0594
:1021D40099698842C1D1DC69D96864B1D2F80052E6
:1021E40025F02005C2F800521A699C61DA60DE61AC
:1021F400FFF780FFB1E79C61FAE700BF00200040D1
:10220400300600201F2886BF00F01F00044B4FF04B
:10221400A04300F5E070022243F82020704700BF7D
:10222400000300502DE9F8436A4B067991462422B5
:1022340002FB0632044692F820200D469846002AF6
:1022440040F0C48064490068FFF73CFA0746002860
:1022540040F0BE802868421C10D01F2887BF00F0C1
:102264001F035E4A03464FF0A0420121994003F543
:10227400E073C2F80815032142F8231069684B1C67
:102284000DD01F298BBF01F01F030B46534A4FF09B
:10229400A04203F5E0734FF0000C42F823C023681A
:1022A400AA6995F814C0C3F824256A7DBCF1010F0E
:1022B4004CEA0202C3F86C25C3F80C05C3F81415E4
:1022C4002BD1A968481C0DD01F298BBF01F01F0218
:1022D4000A4642484FF0A04002F5E0724FF0000C6D
:1022E40040F822C0E868421C13D01F2887BF00F0C2
:1022F4001F0C3A4A84464FF0A0424FF0010E0EFAEA
:102304000CFE0CF5E07CC2F808E54FF0030E42F831
:102314002CE0C3F80805C3F810152423734308EB15
:102324000302C2F804902A6948F80320B9F1000FA7
:102334003BD04FF4887120682D7FFFF7D3FE4FF414
:1023440090712068FFF7CEFE4FF492712068FFF77A
:10235400C9FE20684FF4A271FFF7C4FE2268204B27
:10236400C2F80433120B53B2002BA8BF03F1604030
:102374004FEA53134FEA4511BABF1A4802F00F054A
:1023840000F561404FEA8303C9B203F16043B4BF6F
:10239400415580F8001303F5614302F01F02012147
:1023A40001FA02F2C3F880211A6023680822C3F8F4
:1023B4000025242303FB06830022C3E906225A6175
:1023C400012283F820203846BDE8F8830827FAE77D
:1023D4001127F8E7300600201D21000000030050FB
:1023E4001003020014ED00E02DE9F04103680479C4
:1023F400254D0022C3F80025242202FB0452064680
:10240400526872B1214AC3F80823190B4AB2012059
:10241400520901F01F0100FA01F120321C4840F872
:102424002210D3F80C05D3F81485D3F80815D3F883
:1024340010754FF0FF329042C3F80C25C3F81425F1
:10244400C3F80825C3F8102501D0FFF7DBFEB8F167
:10245400FF3F02D04046FFF7D5FE7A1C02D0384633
:10246400FFF7D0FE4B1C02D00846FFF7CBFE3068C6
:10247400FFF742F9242303FB0454002384F820309B
:102484006360BDE8F08100BF300600201003020045
:1024940000E100E001F06043B3F1005F2DE9F04199
:1024A400074632D11C4B0679242505FB0635984690
:1024B4006C6964BB6A61A96000684FF49071FFF7AE
:1024C40011FE4FF4AC713868FFF70CFE3B686A6983
:1024D400A968C3F84415C3F8482501229A606A68BC
:1024E400BAB9D3F82011D3F8582149B9002AF8D041
:1024F4000F20242303FB068600237361BDE8F081CB
:10250400002A14BF0F200020F3E71020F6E7112063
:10251400F4E72046F2E700BF3006002070470000D1
:10252400037870B504463BBB02214068FFF74AFAC2
:1025340008B1FEF7D5FB114E114D30882A681149B8
:10254400000440F00300FEF761FA308863680E4926
:10255400B3F90020000440F00300FEF757FA308876
:1025640063680949B3F90220000440F00300FEF750
:102574004DFA2B6801332B6070BD00BF140000209E
:1025840054060020DA310000EC3100001FB5FEF7DC
:102594005DFF08B1FEF7A4FB002307228DF8083085
:1025A4008DF809308DF80B200393174A174803233D
:1025B40002A98DF80A30FFF759FA08B1FEF790FB2B
:1025C400134B1448D3F810250021D2B220FA02F29A
:1025D400009101230D48FFF7DEFA0C48FFF7B4FA27
:1025E400FFF7E2F904460C48FEF7ACFF08B1FEF72A
:1025F40077FB094B094918782246FEF7EFFF08B12B
:10260400FEF76EFB04B010BD21250000B0310000C0
:102614000080004000A86100600600204081004066
:1026240008B5054B1878FFF71BF818B1BDE808404A
:10263400FEF756BB08BD00BF600600201FB5144A54
:1026440010685168127A01AB03C3124912481A7018
:10265400FFF71CF908B1FEF743FB01A90020FFF7BF
:1026640057F908B1FEF73CFB02210C488DF80B101A
:10267400FFF7A8F908B1FEF733FB02210848FFF77A
:10268400A1F908B1FEF72CFB05B05DF804FB00BF0F
:10269400A331000025250000AC31000058060020BD
:1026A4005C06002008B54FF400410020FDF7E4FF6C
:1026B40008B1FEF715FBFDF713FFFEF765FE08B141
:1026C400FEF70EFBFFF7BAFFFFF760FFFFF7A8FF67
:1026D400074B08491888000440F00300FEF792F9FC
:1026E400FEF768FEFEF72EF80028FBD1F8E700BFDE
:1026F40014000020B8310000054B1B68082B01BFF3
:10270400044B1868B0FA80F0400918BF00207047E5
:10271400300100103401001008B54FF0804300224E
:10272400C3F80C21C3F81021C3F838254FF08052A8
:1027340003F54043D2F80414C3F82015D2F8081462
:10274400C3F82415D2F80C14C3F82815D2F81014C1
:10275400C3F82C15D2F81414C3F83015D2F8181491
:10276400C3F83415D2F81C14C3F84015D2F8201459
:10277400C3F84415D2F82414C3F84815D2F8281421
:10278400C3F84C15D2F82C14C3F85015D2F83014F1
:10279400C3F85415D2F83414C3F86015D2F83814B9
:1027A400C3F86415D2F83C14C3F86815D2F8401481
:1027B400C3F86C15D2F84424C3F87025FFF79CFFC6
:1027C40010B1384B384A1A60FFF796FF18B1374BEF
:1027D400FB22C3F81825FFF78FFF48B13449354B66
:1027E4000A681B6822F00F0203F00F0313430B6007
:1027F400FFF782FF18B1304B4FF400721A604FF0AC
:102804008043D3F80024D20744BF6FF00102C3F819
:1028140000242A4AD2F8883043F47003C2F888307E
:10282400BFF34F8FBFF36F8F4FF01023D3F8002205
:10283400002A03DBD3F80432002B2FDA204B0122C9
:10284400C3F80425D3F80024002AFBD04FF010224B
:102854001221C2F80012D3F80024002AFBD04FF052
:1028640010231222C3F80422154B1A46D3F800147D
:102874000029FBD00021C3F80415D2F80034002B42
:10288400FBD0BFF34F8F0D490E4BCA6802F4E062D0
:102894001343CB60BFF34F8F00BFFDE70A4B0B4AD6
:1028A4001A6008BD8C5600404881030000F00040C7
:1028B400E40E0040580200104096024000ED00E093
:1028C40000E001400400FA05400000200090D0031D
:1028D4007F2805D8034B185C034B5B5C184070479A
:1028E40000207047F031000070320000A0F1610355
:1028F400192B98BF20387047A0F14103192B98BFBA
:10290400203070477F2805D8034B185C034B5B5C71
:102914001840704700207047F0310000703200000A
:10292400A0F16103192B98BF20387047A0F141032F
:10293400192B98BF203070477F299ABF017001205E
:102944006FF02E0070475AB10A787F2A0AD800B176
:102954000260002119605960501A18BF01207047A5
:10296400002070476FF02E007047000008B5034B3D
:102974005B689B681B68984708BD00BF4400002043
:1029840008B50921FFF7F2FF08BD844640EA0103B8
:1029940013F0030F18D18446202A0BD32DE9F00736
:1029A400B1E8F807A0E8F807A2F12002202AF7D23C
:1029B400BDE8F007042A07D351F8043B40F8043B70
:1029C400A2F10402042AF7D2002A05D011F8013B2F
:1029D40000F8013B013AF9D16046704700F101016A
:1029E40010F0030F11D010F8012B002A23D010F09F
:1029F400030F0AD010F8012B002A1CD010F0030F8B
:102A040003D010F8012B002A15D02DE970004FF0E7
:102A140001324FF0803350F8044BA4EB020525EA51
:102A240004051D4000D1F6E7A0F1040070BC10F8C5
:0C2A3400012B002AFBD1A0EB0100704731
:102A400088310000000000008C3100000000000010
:102A500092310000000000009831000000000000EA
:102A60009D31000000000000F52A00000000030373
:102A7000F92A000000000003082C000000000000FC
:102A80009C000020640100206C010020A4000020B4
:082A90001800002018000000EE
:102A9800000000000000000000000000000000002E
:102AA800000000000000000000000000000000001E
:102AB800FFFFFFFFFFFFFFFFFFFFFFFFFFFFFFFF1E
:102AC80000000000000000000000D601070100001F
:102AD8004D040000B1040000FD0300004261636B77
:102AE800656E647320666C757368656400617070E8
:102AF8000062616C6C6F632E6C6F675F6D656D70E3
:102B08006F6F6C003F2B0000882B0000472B0000E4
:102B1800902B0000982B0000A02B0000A82B000091
:102B2800B02B0000B82B0000202530327800202080
:102B380020007C002563001B5B306D002573001BA3
:102B48005B313B33316D0025734C6F6773206472C2
:102B58006F70706564202825642925730D0A003C70
:102B680025733E2025733A20000000000000000075
:102B7800D92B0000C02B0000C82B0000CD2B000073
:102B88001B5B313B33306D001B5B313B33326D00D7
:102B98001B5B313B33336D001B5B313B33346D00C2
:102BA8001B5B313B33356D001B5B313B33366D00AE
:102BB8001B5B313B33376D007761726E696E67005E
:102BC800696E666F00646562756700466174616C62
:102BD800206572726F720053797374656D20726527
:102BE8007365740030313233343536373839414201
:102BF80043444546402A0000402A000004000000E3
:102C08007077725F6D676D7400556E6B6E6F776E5F
:102C1800206572726F7220636F64650000000000A7
:102C28003C2D000001000000482D000002000000BB
:102C3800662D000003000000872D0000040000003E
:102C48009A2D000005000000AB2D000006000000D2
:102C5800BF2D000007000000D72D0000080000006D
:102C6800EF2D000009000000072E00000A000000F8
:102C7800202E00000B000000382E00000C00000081
:102C88004F2E00000D000000632E00000E00000013
:102C9800752E00000F000000842E000010000000B8
:102CA800982E000011000000AF2E000080000000E8
:102CB800BE2E000081000000DF2E00008200000010
:102CC800FB2E000083000000172F00008400000086
:102CD800352F000085000000562F000086000000F8
:102CE8007B2F000090000000922F00009100000050
:102CF800B02F000092000000CE2F000000820000DC
:102D0800E32F000001820000013000000282000071
:102D18001D300000008400003930000001840000EC
:102D28005D3000000284000087300000038400004A
:102D3800AC3000004E52465F535543434553530051
:102D48004E52465F4552524F525F5356435F484179
:102D58004E444C45525F4D495353494E47004E52DD
:102D6800465F4552524F525F534F46544445564969
:102D780043455F4E4F545F454E41424C4544004EDB
:102D880052465F4552524F525F494E5445524E414A
:102D98004C004E52465F4552524F525F4E4F5F4D68
:102DA800454D004E52465F4552524F525F4E4F546A
:102DB8005F464F554E44004E52465F4552524F5261
:102DC8005F4E4F545F535550504F52544544004E38
:102DD80052465F4552524F525F494E56414C494404
:102DE8005F504152414D004E52465F4552524F523C
:102DF8005F494E56414C49445F5354415445004E37
:102E080052465F4552524F525F494E56414C4944D3
:102E18005F4C454E475448004E52465F4552524F0C
:102E2800525F494E56414C49445F464C4147530016
:102E38004E52465F4552524F525F494E56414C4999
:102E4800445F44415441004E52465F4552524F52EE
:102E58005F444154415F53495A45004E52465F45CD
:102E680052524F525F54494D454F5554004E5246A9
:102E78005F4552524F525F4E554C4C004E52465F82
:102E88004552524F525F464F5242494444454E00C4
:102E98004E52465F4552524F525F494E56414C4939
:102EA800445F41444452004E52465F4552524F528D
:102EB8005F42555359004E52465F4552524F525F3A
:102EC8004D4F44554C455F4E4F545F494E49544908
:102ED800414C495A4544004E52465F4552524F5262
:102EE8005F4D555445585F494E49545F4641494CDA
:102EF8004544004E52465F4552524F525F4D55541D
:102F080045585F4C4F434B5F4641494C4544004E42
:102F180052465F4552524F525F4D555445585F5582
:102F28004E4C4F434B5F4641494C4544004E524638
:102F38005F4552524F525F4D555445585F434F4E6F
:102F4800445F494E49545F4641494C4544004E52FE
:102F5800465F4552524F525F4D4F44554C455F4175
:102F68004C52454144595F494E495449414C495A8C
:102F78004544004E52465F4552524F525F53544F9C
:102F8800524147455F46554C4C004E52465F4552AC
:102F9800524F525F4150495F4E4F545F494D504C1C
:102FA800454D454E544544004E52465F4552524F9A
:102FB800525F464541545552455F4E4F545F454E0A
:102FC80041424C4544004E52465F4552524F525F73
:102FD800494F5F50454E44494E47004E52465F4563
:102FE80052524F525F4452565F5457495F455252AE
:102FF8005F4F56455252554E004E52465F4552520B
:103008004F525F4452565F5457495F4552525F4191
:103018004E41434B004E52465F4552524F525F4419
:1030280052565F5457495F4552525F444E41434B95
:10303800004E52465F4552524F525F424C455F49DF
:103048005053505F52585F504B545F5452554E4343
:1030580041544544004E52465F4552524F525F42DA
:103068004C455F495053505F4348414E4E454C5F75
:10307800414C52454144595F455849535453004EB9
:1030880052465F4552524F525F424C455F4950533A
:10309800505F4C494E4B5F444953434F4E4E454356
:1030A800544544004E52465F4552524F525F424C7F
:1030B800455F495053505F504545525F52454A4518
:1030C80043544544006E7266785F7070695F636848
:1030D800616E6E656C5F616C6C6F63006E726678B2
:1030E8005F7070695F6368616E6E656C5F61737352
:1030F80069676E006E7266785F7070695F63686199
:103108006E6E656C5F656E61626C6500416C6C6FBC
:103118006361746564206368616E6E656C3A20252E
:10312800642E0046756E6374696F6E3A2025732CA1
:10313800206572726F7220636F64653A2025732E62
:103148000041737369676E6564206368616E6E65BC
:103158006C3A2025642C206576656E7420656E6453
:1031680020706F696E743A2025782C207461736B17
:1031780020656E6420706F696E743A2025782E0081
:103188005052530053414144430054494D45520065
:103198005541525400554152544500000000000268
:1031A800000001000100070000800040000400004A
:1031B80053414144432048414C2073696D706C650C
:1031C800206578616D706C652073746172746564D4
:1031D8002E00414443206576656E74206E756D62DD
:1031E80065723A202564000020202020202020201D
:1031F800206828282828202020202020202020205F
:1032080020202020202020204810101010101010FE
:103218001010101010101010848484848484848406
:103228008484101010101010108181818181810117
:103238000101010101010101010101010101010176
:103248000101011010101010108282828282820205
:103258000202020202020202020202020202020246
:1032680002020210101010200007032004170201A8
:10327800085710408000000024340000E8320000A5
:10328800FC33000053756E004D6F6E005475650079
:10329800576564005468750046726900536174008C
:1032A800000000004A616E00466562004D617200D0
:1032B800417072004D6179004A756E004A756C0064
:1032C80041756700536570004F6374004E6F760058
:1032D8004465630000000000414D00504D000000AF
:1032E800203400001C3400001C3400001C34000092
:1032F8001C3400001C3400001C3400001C34000086
:103308001C3400001C340000FFFFFFFFFFFFFFFF1D
:10331800FFFFFFFFFFFF00005C3300008C3200005E
:1033280098330000AC320000E03200004033000067
:10333800F03300004C330000256D2F25642F2579CC
:1033480000000000256120256220256520255420E5
:103358002559000053756E646179004D6F6E646184
:10336800790054756573646179005765646E657397
:103378006461790054687572736461790046726992
:1033880064617900536174757264617900000000AA
:103398004A616E756172790046656272756172790B
:1033A800004D6172636800417072696C004D61790B
:1033B800004A756E65004A756C79004175677573CA
:1033C800740053657074656D626572004F63746F45
:1033D800626572004E6F76656D6265720044656362
:1033E800656D62657200000025483A254D3A2553FF
:1033F80000000000D5280000F1280000FD2800008A
:103408000929000025290000312900003D29000074
:103418004B290000000000002E00000043000000BF
:08342800504F53495800000009
:1034300000000000002000400000000000200040CC
:1034400000000000D82A000000000000000000007A
:103450000090D003803200008032000080320000F3
:08346000803200008032000000
:040000030000026196
:00000001FF
