:020000022000DC
:106000000000042079630200616302006363020000
:10601000656302006763020069630200000000001C
:106020000000000000000000000000006B630200A0
:106030006D630200000000006F63020071630200E4
:10604000E9AF02007363020075BD020073630200D2
:1060500073630200736302008DBA0200A1E70200BD
:1060600073630200736302007363020073630200D0
:1060700073630200736302007363020073630200C0
:1060800073630200958602007363020041020300FD
:10609000D586020073630200AD4A030073630200F9
:1060A00073630200736302007363020041E3020042
:1060B0007363020073630200000000000000000030
:1060C0007363020073630200736302007363020070
:1060D0007363020073630200736302007363020060
:1060E0007363020073630200736302000000000028
:1060F00000000000736302000000000073630200F0
:10610000000000000000000000000000000000008F
:10611000000000000000000000000000000000007F
:10612000000000000000000000000000000000006F
:10613000000000000000000000000000000000005F
:10614000000000000000000000000000000000004F
:10615000000000000000000000000000000000003F
:10616000000000000000000000000000000000002F
:10617000000000000000000000000000000000001F
:10618000000000000000000000000000000000000F
:1061900000000000000000000000000000000000FF
:1061A00000000000000000000000000000000000EF
:1061B00000000000000000000000000000000000DF
:1061C00000000000000000000000000000000000CF
:1061D00000000000000000000000000000000000BF
:1061E00000000000000000000000000000000000AF
:1061F000000000000000000000000000000000009F
:10620000364937480A1A02D0072291438D4635494C
:1062100035480A1A06D00722914381F309880222E1
:1062200082F3148831483249324A00F045F8324846
:106230003249334A00F040F832483349334A00F0DB
:106240003BF833483349344A00F036F83348344990
:10625000344A00F031F834483449354A00F02CF81B
:1062600034483549354A00F027F835483549002289
:1062700000F02DF834483549002200F028F8344861
:106280003449091A082903DB002202600430016046
:10629000314A90471F482049884205D0026804309F
:1062A00003B4904703BCF7E700208646EC46002085
:1062B00000212A4A9047FEE7884207D0521A05D0AB
:1062C000037801300B700131013AF9D170478842EF
:1062D00002D002700130FAE770470000000004208D
:1062E00000E003200000042000000420E87F0300F9
:1062F000B82A0020502B0020D8630200D863020087
:10630000605E0300E87F0300B82A0020B82A00205E
:10631000845F0300845F0300845F0300845F0300E5
:10632000845F0300845F0300845F0300845F0300D5
:10633000E87F030080800300502B0020502B0020BA
:10634000502B0020643E0020643E0020643E00206C
:10635000643E0020645E0020A1630200AD100300D3
:10636000FEE7FEE7FEE7FEE7FEE7FEE7FEE7FEE705
:10637000FEE7FEE7704700BF1048804710484FF027
:106380000701884385460F4880470F48016841F45C
:1063900070010160BFF34F8FBFF36F8FFFF730BF06
:1063A0000A480B490B4A884207D0521A05D0037895
:1063B00001300B700131013AF9D170477563020069
:1063C0000000042069A0020088ED00E0845F030063
:0863D000B82A0020B82A0020C1
:1063D80000B585B00190019B002B0AD0074B43F014
:1063E80001030393019B9B010293039B0298984727
:1063F80000E000BF05B05DF804FB00BF905F03003C
:1064080000B583B00190019B002B0AD04FF47A703D
:10641800FFF7DEFF019B013B0193019B002BF5D1A8
:1064280000E000BF03B05DF804FB08B50AF0C6FF42
:1064380000BF08BD00B589B0039002910192019B8D
:10644800002B33D00023079303230693029A079B5C
:106458001344019A194600200AF062FF0590079A32
:10646800059B13440793019A059BD31A0193059B37
:10647800002B13D10F4B1B7883F00103DBB2002BE9
:1064880013D10120FFF7BCFF069B013B0693069B37
:10649800002B03D1074B00221A7007E0054B01229D
:1064A8001A70019B002BD1D100E000BF00BF09B0DA
:1064B8005DF804FB502B002000B585B003900291D5
:1064C800054B00934023054A0299039800F012F8FF
:1064D80000BF05B05DF804FB3D640200542B0020AA
:1064E80082B0019000BF02B0704782B0019000BF37
:1064F80002B0704700B5A1B00590049103920293D1
:10650800049803F02EFB039B1593029B169300231C
:10651800179300238DF8603000231993229B1A9358
:1065280000231F930FA91F9B0822049803F0F2FB76
:1065380008231F93119B1293BDF84030ADF84C30DF
:10654800BDF84230ADF84E3000238DF851309DF83B
:106558003C3003F00303DBB2012B26D10F9BC3F3BE
:1065680095231C939DF83C30C3F3C203DBB28DF82E
:106578005030BDF83C30C3F38313DBB21B931B9B35
:106588009A0009A91F9B049803F0C4FB1B9B9B005E
:106598001F9A13441F9312AA09A915AB0093134617
:1065A8001B9A1C9800F0D2FE2FE09DF83C3003F0B7
:1065B8000303DBB2022B28D1BDF83E30C3F38913A5
:1065C8009BB21E939DF83C30C3F3C203DBB28DF837
:1065D80050301E9B082B28BF08231D9307A91F9B1B
:1065E8001D9A049803F096FB1F9A1D9B13441F9352
:1065F8001E9A1D9BD31A1E9315AB12AA07A81D99A4
:1066080000F046FF1E9B002BE3D1049803F0B8FA74
:1066180000BF21B05DF804FB82B00190019BDB68EC
:1066280001225A7100BF02B07047000000B583B064
:106638004FF0FF330193FFF7F8FE0421084800F0FC
:10664800A1FD0190019B002B03DA0649412009F0C6
:10665800EFFB0348FFF7E0FF00BF03B05DF804FB62
:10666800745F0300A85F030000B583B00190009138
:10667800019B1B681B6800990198984700BF03B0ED
:106688005DF804FB00B583B00190019B1B685B6853
:106698000198984700BF03B05DF804FB00B583B0CC
:1066A8000190019B1B689B680198984700BF03B045
:1066B8005DF804FB82B001900B468DF80330019B16
:1066C800DB689DF803201A7100BF02B0704782B0E2
:1066D8000190019BDB681B79184602B0704782B0B5
:1066E8000190019BDB6801225A7100BF02B070471C
:1066F80082B00190019BDB685B79184602B0704755
:1067080000B585B001900091154BFF229A60144B9B
:1067180000221A60124B00225A60114B0022C3F863
:1067280018240F4B0022C3F814240D4B002283F8C1
:1067380020240C4803F07AF90390039B002B01D026
:10674800039B08E0084803F09FFB084A084BD31A4C
:10675800DB0802930023184605B05DF804FB00BF70
:10676800FC2C0020D85E030020600300745F030047
:10677800EC5E0300024A034BD31ADB081846704745
:10678800745F0300EC5E030000B587B001900B4610
:106798008DF803309DF80330002B1FD0FFF7EAFF78
:1067A80004900023059313E0059B9B000E4A1344B5
:1067B8000393039B1B881A46019B1B689A4204D1CA
:1067C800019B059A1A60002309E0059B0133059394
:1067D800059A049B9A42E7D3052300E00023184654
:1067E80007B05DF804FB00BFB82A002000B585B0EB
:1067F80001900B468DF803309DF8032001AB11463C
:106808001846FFF7C1FF0346002B07D1019BDB00A9
:10681800054A13440393039B1B6800E000231846B2
:1068280005B05DF804FB00BFEC5E030084B0019086
:106838000B468DF80330019BDB00174A1344029383
:106848009DF80330013B032B1CD801A252F823F01A
:1068580069680200716802007968020083680200B2
:1068680002238DF80F3011E004238DF80F300DE06E
:10687800029B1B798DF80F3008E0029B5B798DF83D
:106888000F3003E000238DF80F3000BF9DF80F3064
:10689800184604B0704700BFEC5E030084B0019056
:1068A800009100238DF80F30019B1B7803F004033F
:1068B800DBB2002B24D0019B1B78C3F30103DBB2AE
:1068C800012B02D0022B0CD017E0009B1B68019A09
:1068D8001288C2F38312D2B213449A1C009B1A6026
:1068E8000BE0009B1B68019A5288C2F3891292B28E
:1068F80013449A1C009B1A6000BF01238DF80F30C7
:106908009DF80F30184604B07047000000B58BB0F2
:106918000023ADF826303E4802F03FFB3D4802F028
:106928003CFB3D4B5B6804933B4B9B680693049A86
:10693800069B134002339B00374A134404330893E1
:1069480004AB19460898FFF7A9FF0346002B09D0A6
:10695800049A069B134002339B002F4A13440433C6
:106968000893EDE700BF0023079311E0049B5A1C2E
:106978000492069A1340079A920001A90A442649EC
:1069880002339B000B445B681360079B013307933A
:10699800079B012BEAD99DF80430C3F30103DBB24E
:1069A800012B10D0022B1CD1BDF80A30ADF82630CF
:1069B800BDF80630C3F389139BB203339A08049BCE
:1069C8001344049313E0BDF80A30ADF82630BDF83F
:1069D8000430C3F38313DBB21A46049B13440493B5
:1069E80005E00E494FF4BF7009F022FA00BF0948CC
:1069F80002F0DFFA0590059B002B02D0049B064AA3
:106A08005360BDF8263018460BB05DF804FB00BF94
:106A18001431002010310020FC2C002030600300CD
:106A280000B585B00021074802F028FA0390039BBF
:106A38000293029B83F310030193019B184605B050
:106A48005DF804FB1831002000B589B0039002916D
:106A580001920093039B1B0C0793FFF7E1FF06903D
:106A6800FFF788FE0246079B934204D3214940F270
:106A7800A31009F0DDF9069B1904009B5A1C0A9B18
:106A88001340079A0A431C4902339B000B445A607F
:106A9800009A0A9B134002339B00174A134404339D
:106AA8000593039B03F00703D9B2059A137861F3A2
:106AB800C5031370019B03F00F03D9B2059A13881D
:106AC80061F389131380029BC3F31501059A1368B8
:106AD80061F39F231360059A1378012161F3010381
:106AE8001370059A13786FF38203137000BF09B00F
:106AF8005DF804FB30600300FC2C002000B58DB06D
:106B08000390029113468DF80730039B02330A93D2
:106B180001238DF8273000238DF81B300DF11B035E
:106B2800184602F017F9404B1A68029B1A603E4B50
:106B38009A683D4B59683C4B1B68CB1A1344013388
:106B48000B9314E00121394802F0F7F9FFF7DEFE54
:106B580007900799354802F0F0F9334B9A68324BA1
:106B68005968314B1B68CB1A134401330B930A9AAB
:106B78000B9B9A42E6D89DF82730002B48D000237B
:106B880005939DF80730002B17D09DF8143001228B
:106B980062F301038DF814309DF8143043F00403B8
:106BA8008DF81430039B03F00F03DAB2BDF81430EC
:106BB80062F38913ADF8143016E09DF81430022200
:106BC80062F301038DF814309DF8143043F0040388
:106BD8008DF81430039BC3F309039AB2BDF816303D
:106BE80062F38F13ADF816300F4B1A680E4B9B6883
:106BF800134002339B000C4A134404330893059A4C
:106C0800089B1A60084B1A680A9B1344064A1360CB
:106C18009DF81B30184602F0B3F89DF82730184647
:106C28000DB05DF804FB00BFFC2C002018310020DB
:106C380000B58BB005900491039202931F4B9B689B
:106C4800079306AB012219460298FFF757FF034640
:106C5800002B24D0069B023309930023089311E0EC
:106C6800089B9B00039A1A44099B591C0991079990
:106C78000B401268114902339B000B445A60089B71
:106C880001330893089A029B9A42E9D3069A079B14
:106C980000931346029A04990598FFF7D5FE074B0F
:106CA80093F82034002B05D000BF00F065F80346A8
:106CB800002BFAD100BF0BB05DF804FBFC2C0020C0
:106CC80000B583B00190009100230022009901983B
:106CD800FFF7AEFF00BF03B05DF804FB00B587B057
:106CE800039002910192019B059305AA0123029941
:106CF8000398FFF79DFF00BF07B05DF804FB00B5E0
:106D080087B00390029101920093019B0493009B2A
:106D1800059304AA022302990398FFF789FF00BF8D
:106D280007B05DF804FB00B58BB0039002910192A7
:106D38000093019B0593009B06930C9B07930D9B67
:106D480008930E9B099305AA052302990398FFF758
:106D58006FFF00BF0BB05DF804FB0000054B5A68DD
:106D6800044B1B689A420CBF01230023DBB2184670
:106D7800704700BFFC2C002000B599B0FFF7EEFF6C
:106D88000346002B01D00023BCE19A4B0022C3F834
:106D98001824BFF34F8F974B5B680493954B9B6800
:106DA8001093049A109B134002339B00914A13449A
:106DB80004331193002317930023169300230F9392
:106DC80004AB19461198FFF769FD0346002B19D04B
:106DD800884BD3F81834002B14D1864B1A68049BBF
:106DE8009A4205D8834B1B68824A5360002389E185
:106DF800049A109B134002339B007E4A13440433C9
:106E08001193DDE70023159311E0049B5A1C0492AB
:106E1800109A1340159A920001A90A447549023341
:106E28009B000B445B681360159B01331593159BFE
:106E3800012BEAD99DF8043003F00303DBB2022BDF
:106E480040F09C80BDF80630C3F389139BB20D93C4
:106E5800BDF80630C3F389139BB2502B28BF5023CB
:106E68009BB20C930C9BC3F309039AB2BDF806308E
:106E780062F38F13ADF806300C9B08330B939DF823
:106E88000430C3F3C203DBB20F930B995A4802F0E4
:106E9800D8FD1790179B002B00F0D080179802F0B0
:106EA80060FE01A9169B0822179802F015FF169B91
:106EB80008331693049BDA43109B134001339B005D
:106EC8000A930C9A0A9B9A4242D90A9B002B08D033
:106ED800049A109B134002339B00464A1344043320
:106EE80000E0464B08930A9B002B02D00A9BDBB2BA
:106EF80001E00C9BDBB28DF81F300A9B002B01D000
:106F08003E4B00E0002306930A9B002B06D00C9B07
:106F1800DAB20A9BDBB2D31ADBB200E000238DF8A9
:106F280017309DF81F20169B0899179802F0D4FE79
:106F38009DF81F30169A13441693069B002B16D003
:106F48009DF81720169B0699179802F0C5FE0EE0CB
:106F5800049A109B134002339B00264A13440433BF
:106F68000993169B0C9A0999179802F0B5FE0D9B88
:106F780003339A08049B134404935FE09DF804309C
:106F880003F00303DBB2012B58D1BDF80430C3F37F
:106F98008313DBB2062B28BF0623DAB2BDF8043010
:106FA80062F38913ADF80430BDF80430C3F38313DA
:106FB800DBB202330E939DF80430C3F3C203DBB295
:106FC8000F930E9B9B0019460B4802F03AFD179051
:106FD800179B002B32D0179802F0C3FD01A9169B0E
:106FE8000822179802F078FE169B083316930023A0
:106FF80015931AE0FC2C0020D85E0300082D002011
:10700800049B5A1C0492109A134002339B003F4A77
:107018001344191D169B0422179802F05DFE169B57
:1070280004331693159B01331593BDF80430C3F34D
:107038008313DBB21A46159B9342E1D3179B002BAF
:1070480040D0324BD3F810341493304BD3F8183463
:10705800002B1BD0179802F093FD4DE000238DF80C
:107068004F301498FFF744FB0346002B02D001234E
:107078008DF84F309DF84F30002B03D01799149896
:10708800FFF7F2FA149BDB681B681493149B002B20
:10709800E4D1179802F074FD00238DF803300DF148
:1070A8000303184601F056FE184BD3F81834002B8A
:1070B80002D1049B154A53609DF80330184601F02D
:1070C8005FFE19E0114BD3F81034129306E01298C2
:1070D800FFF7E4FA129BDB681B681293129B002BE4
:1070E800F5D10B4A0B4BD31ADB081B0443F0020300
:1070F80009491846FFF7E4FDFFF730FE034683F021
:107108000103DBB2184619B05DF804FBFC2C002023
:107118002C5F0300EC5E0300A060030000B585B09F
:107128000023039323E0164BD3F810340293012372
:107138008DF807300FE00298FFF7C9FA03461A46A0
:10714800039B934203D100238DF8073006E0029B8E
:10715800DB681B680293029B002BECD19DF807307B
:10716800002B01D0039B07E0039B01330393039B90
:10717800092BD8DD4FF0FF33184605B05DF804FB46
:10718800FC2C002000B585B001900B468DF803302B
:10719800FFF7C4FF0390039BB3F1FF3F01D1039BAB
:1071A80022E0039BDBB219460198FFF783FA104BE4
:1071B800D3F81034002B08D10D4A019BC2F81034C3
:1071C800019BDB6800221A600DE0094BD3F81034EC
:1071D800DA68019BDB6812681A60054BD3F8103433
:1071E800DB68019A1A60039B184605B05DF804FB3A
:1071F800FC2C002000B583B00C4BD3F8103401935D
:107208000A4B012283F8202409E00198FFF767FA66
:107218000198FFF737FA019BDB681B680193019B14
:10722800002BF2D100BF03B05DF804FBFC2C00205A
:1072380082B00190009100BF02B0704710B584B0D1
:1072480003900291039BDB88002B0AD0039BDB8809
:107258001A461F4B009313461E4A1F49029801F015
:10726800E7FF039B1B7A052B2ED0039B5B7A002B31
:1072780012D0039B9B881A46039B1B7A194610461B
:10728800FFF7D4FA03461A46144B53F822301A462D
:107298001349029801F0CCFF039B1B68194602981A
:1072A800FFF7C6FF039B1B7A1A460E4B53F8224082
:1072B800039B9B8800211846FFF798FA034622464D
:1072C8000949029801F0B4FF00BF04B010BD00BF27
:1072D800D4600300E46003001C610300D42A00208A
:1072E80034610300C02A00203861030000B585B06E
:1072F8000390029113468DF80730039B1B7A052BE8
:107308000FD0039B5B7A002B06D00D4B1B681A46E7
:107318000C49029801F08CFF0B49029801F088FF94
:1073280007E09DF80730002B03D00749029801F0C9
:107338007FFF029801F05AFF00BF05B05DF804FB1B
:10734800D42A0020346103004461030030B58BB0B7
:1073580007900691059204930E9B1B7B8DF82730AE
:107368000E9B00221A730E990498FFF767FF059B7E
:10737800062B7FD801A252F823F000BFA1730200A8
:10738800AB730200BB730200CF730200ED730200FF
:10739800157402004574020007990E9801F048FF21
:1073A80069E0069B1B681A4607990E9801F040FF92
:1073B80061E0069B1A68069B04331B6807990E98C0
:1073C80001F036FF57E0069B1A68069B04331968DC
:1073D800069B08331B6800930B4607990E9801F02B
:1073E80027FF48E0069B1968069B04331868069B2C
:1073F80008331B68069A0C32126801920093034600
:107408000A4607990E9801F013FF34E0069B1868A6
:10741800069B04331C68069B08331B68069A0C32CB
:107428001268069910310968029101920093234667
:10743800024607990E9801F0FBFE1CE0069B1C68AB
:10744800069B04331D68069B08331B68069A0C329A
:10745800126806991031096806981430006803907C
:107468000291019200932B46224607990E9801F04B
:10747800DFFE00E000BF00220E990498FFF736FFF8
:107488000E9B9DF827201A7300BF0BB030BD00BFBC
:1074980000B587B00390029101920093029B082BDC
:1074A8005CD8009B1B7B8DF81330009B00221A735D
:1074B80000990198FFF7C2FE0023059314E0059A8E
:1074C800029B9A4209D2039A059B13441B781A46D9
:1074D8002449009801F0ACFE03E02349009801F02C
:1074E800A7FE059B01330593059B072BE7D91F4989
:1074F800009801F09DFE0023059322E0059A029B67
:107508009A4217D2039A059B13441B788DF81230C0
:107518009DF8123018460EF021F80346002B02D0D1
:107528009DF8123000E02E231A461149009801F008
:107538007FFE03E00F49009801F07AFE059B0133B6
:107548000593059B072BD9D9012200990198FFF7CC
:10755800CDFE009B9DF813201A7300E000BF07B012
:107568005DF804FB486103005061030054610300A7
:10757800586103005C6103002DE9F04F89B0019068
:1075880000238DF81F3099E0524B1A689DF81F3080
:10759800DB0013440693069B1B7819464FF0010243
:1075A8004FF00003A1F1200CC1F1200003FA01F90A
:1075B80002FA0CFC49EA0C0922FA00F049EA00092F
:1075C80002FA01F8CDE90489434BD3E90001DDE96A
:1075D800042302EA000A03EA010B5AEA0B0368D003
:1075E800DDE904236FEA02006FEA03013A4BD3E9AD
:1075F80000AB0AEA00020BEA01033749C1E900239C
:10760800069B1B78184604F023FA03468DF80F30C2
:10761800069B1B7819464FF001024FF00003A1F1B9
:10762800200CC1F1200003FA01F502FA0CFC45EA2E
:107638000C0522FA00F0054302FA01F4274BD3E9BE
:10764800002304EA020A05EA030B9DF80F204FF015
:10765800000306990978A1F1200CC1F1200003FA72
:1076680001F702FA0CFC47EA0C0722FA00F007437C
:1076780002FA01F6BB4508BFB2451AD19DF80F3092
:10768800069A5278012A0CBF01220022D2B29342F4
:107698000CBF01230023DBB20293069B5B68002B1F
:1076A80007D0069B5B68069A12780299C9B2104601
:1076B80098479DF81F3001338DF81F30084B1B7811
:1076C8009DF81F209A42FFF45FAF00BF09B0BDE8E4
:1076D800F08F00BF203100205831002050310020A9
:1076E8002431002070B586B001900A468DF8032039
:1076F8004FF001014FF000020198A0F12006C0F1FF
:10770800200502FA00F401FA06F6344321FA05F5D9
:107718002C4301FA00F3CDE90434304B184601F04C
:1077280071F80390039B002B54D12D4BD3E9001221
:10773800DDE9043403EA010504EA020655EA060312
:1077480037D1019804F084F90346002B0CD0254B5F
:10775800D3E90012DDE9043443EA010544EA0206EC
:10776800204AC2E900560FE0DDE904346FEA03015C
:107778006FEA04021B4BD3E9005605EA010306EA47
:107788000204184AC2E90034154BD3E90012DDE9B6
:10779800043443EA010544EA0206114AC2E90056E4
:1077A8000E48114B1B680022194600F0F9FF0390A0
:1077B80011E0DDE904346FEA03016FEA0402084BC3
:1077C800D3E9005605EA010306EA0204044AC2E9BD
:1077D800003400E000BF06B070BD00BF2C310020AF
:1077E80058310020503100202831002010B58AB0CF
:1077F80003900B4601928DF80B30019B042B01D8A6
:1078080007235AE004F016F8034683F00103DBB2BD
:10781800002B09D003F0BCFF0990099B0893089B33
:10782800002B01D0089B48E0254A039B1360254A9A
:107838009DF80B301370244A019B1360234A4FF0C4
:1078480000034FF00004C2E90034214A4FF000035E
:107858004FF00004C2E9003422E09DF80B30DB0051
:10786800039A1344079305AB00210A461A800A4677
:107878009A7003238DF81430079B9B788DF8153088
:10788800079B1B78184605AB124A194603F0DEFF22
:107898000990099B0693069B002B01D0069B0CE0E0
:1078A8009DF80B305A1E8DF80B20002BD5D10A4AB3
:1078B80000210A4800F044FF034618460AB010BDEC
:1078C80020310020243100202831002050310020B0
:1078D80058310020ED7602008175020060610300D6
:1078E80000B583B0114B1B68002B03D11049BA2097
:1078F80008F09EFA002301930CE00C4B1A68019BD8
:10790800DB0013441B780121184604F019F8019B89
:1079180001330193074B1B781A46019B9342ECD322
:107928000023184603B05DF804FB00BF2031002097
:10793800646103002431002086B003900291019213
:1079480001238DF817309DF817301F4A039B1360E9
:107958001D4A029B53601C4A019B9360039B44F29F
:107968000102934212D044F20202934221D1019BB8
:10797800154AD360144BDB681B881A46124B9A6170
:10798800114BDB685B68104AD36112E0019B0E4A19
:1079980013610D4B1B699B680B4A53610A4B1B69AA
:1079A8001B68094A9361084B1B695B68064AD361E7
:1079B80000BF72B600BF9DF81730DBB2002BFAD1BA
:1079C80062B600BF06B070476031002000B583B0D2
:1079D80002900091019244F2010071466A4600F05B
:1079E80003F803B000BD00BF30B58BB00790069117
:1079F800059272B6FFF7FEFB00BFFFF7BDF903461D
:107A0800002BFAD1079B41F2010293421BD041F2AD
:107A18000102934202D8012B09D05FE044F201022F
:107A280093422ED044F20202934218D056E0394ACB
:107A3800394BD31ADB081B0443F0010337491846B6
:107A4800FFF73EF957E0334A334BD31ADB081B04E0
:107A580043F0010332491846FFF732F94BE0059B22
:107A680009932C4A2C4BD31ADB081B0443F0010062
:107A7800099B5B681A46099B1B882A49FFF73FF94F
:107A880039E0059B0893234A234BD31ADB081B04D0
:107A980043F00104089B9D68089B9B68184602F008
:107AA8006DFA03461846089B5B681946089B1B68D5
:107AB800069A02920193009103462A461A492046E3
:107AC800FFF731F9134A144BD31ADB081B0443F0B0
:107AD800010316491846FFF7F3F80CE00D4A0E4B60
:107AE800D31ADB081B0443F00103069A1049184611
:107AF800FFF7F4F800BF0F4B1B6803F00103002BDE
:107B080000D000BE059A06990798FFF715FF00BF39
:107B18000BB030BD2C5F0300EC5E0300CC610300AA
:107B2800EC610300106203002C620300546203003E
:107B380068620300F0ED00E084B00190019B9B684F
:107B48000393019BDA68039BD31A184604B0704765
:107B580082B001900B468DF80330019B1A68019B97
:107B6800DB68019989880B4013449DF803201A703B
:107B7800019BDB685A1C019BDA6000BF02B07047AA
:107B880084B003900B460192ADF80A30039B1A6843
:107B9800039B9968BDF80A300B44039989880B4008
:107BA80013441A78019B1A7000BF04B0704700B5DF
:107BB80083B001900091009A00210198FFF7E0FF3F
:107BC800019B9B685A1C019B9A6000BF03B05DF83B
:107BD80004FB84B0039002911346ADF80630029B73
:107BE800002B01D10E231DE0BDF80630002B07D075
:107BF800BDF806305A1EBDF806301340002B01D0E0
:107C080009230FE0039B029A1A60BDF80630013B76
:107C18009AB2039B9A80039B00229A60039B0022DE
:107C2800DA600023184604B0704700B583B00190AD
:107C38000B468DF803300198FFF77EFF0246019B43
:107C48009B889A4207D89DF8033019460198FFF798
:107C58007FFF002300E00423184603B05DF804FB0F
:107C680000B583B0019000910198FFF765FF0346C6
:107C7800002B05D000990198FFF799FF002300E039
:107C88000523184603B05DF804FB000082B00346E4
:107C98008DF807309DF8073003F01F0205499DF95C
:107CA80007305B09012000FA02F241F8232000BFE7
:107CB80002B0704700E100E082B003468DF807305B
:107CC8009DF8073003F01F0206499DF907305B094C
:107CD800012000FA02F2203341F8232000BF02B04D
:107CE800704700BF00E100E082B003468DF807301E
:107CF8009DF8073003F01F0206499DF907305B091C
:107D0800012000FA02F2403341F8232000BF02B0FC
:107D1800704700BF00E100E082B003468DF80730ED
:107D28009DF8073003F01F0206499DF907305B09EB
:107D3800012000FA02F2603341F8232000BF02B0AC
:107D4800704700BF00E100E082B0034600918DF863
:107D580007309DF90730002B0CDA009BDAB20C498A
:107D68009DF8073003F00F03043B5201D2B20B44D5
:107D78001A7609E0009BDAB206499DF907305201EC
:107D8800D2B20B4483F8002300BF02B0704700BF93
:107D980000ED00E000E100E000B585B00190019B36
:107DA800002B0AD0074B43F001030393019B9B016F
:107DB8000293039B0298984700E000BF05B05DF866
:107DC80004FB00BF8062030000B583B00190064A3F
:107DD800019BC2F8083506211120FFF7B5FF00BF47
:107DE80003B05DF804FB00BF0010014008B50D4B5F
:107DF8004FF48032C3F844230A4B4FF48032C3F85F
:107E080004231120FFF788FF1120FFF73FFF054BE0
:107E180001221A602F20FFF7BFFF034B01221A70BF
:107E280000BF08BD001001409E32002008B5112097
:107E3800FFF742FF0E4B4FF48032C3F848230C4B38
:107E48004FF48032C3F80823094B01225A602F20CF
:107E5800FFF7A2FF064B01229A60064B00221A6028
:107E68002F20FFF799FF044B00221A7000BF08BDAE
:107E780000100140903200209E320020024BD3F8BF
:107E880004351846704700BF0010014082B00190C9
:107E98000091019A009BD31A23F07F43184602B041
:107EA8007047000082B00190034A019BC2F8403538
:107EB80000BF02B0704700BF0010014086B00190BB
:107EC800284B1B68002B03D1264A019B136045E011
:107ED800019B1A68234B1B681B689A4210D8214BD8
:107EE8001B681968019B1A681E4B1B688A1A1A605E
:107EF8001C4B1A68019BDA611A4A019B13602DE03A
:107F0800019B1B680393174B1B680593154B1B6854
:107F1800049309E0049B1B68039AD31A0393049BF8
:107F28000593049BDB690493049B002B04D0049BFA
:107F38001B68039A9A42EDD8049B002B05D0049B3A
:107F48001A68039BD21A049B1A60019B039A1A6051
:107F5800019B049ADA61059B019ADA6100BF06B0B9
:107F6800704700BF8C32002000B587B001902A4BC3
:107F78001B680393284B1B680593059B049308E033
:107F8800049A019B9A4208D0049B0593049BDB69E1
:107F98000493049B002BF3D100E000BF049B002B4B
:107FA80001D1002333E0059A049B9A4214D11A4B5D
:107FB8001B68DB69184A1360174B1B68002B0BD131
:107FC800164B01229A60164B00221A60154B0122AB
:107FD8001A702F20FFF7E0FE049B1B680293049B96
:107FE800DA69059BDA61059BDB690493049B002B26
:107FF80005D0049B1A68029B1A44049B1A60064B1E
:108008001B68039A9A4214BF01230023DBB2184667
:1080180007B05DF804FB00BF8C320020001001405F
:10802800903200209F32002008B51120FFF75CFE37
:1080380000BF08BD08B51420FFF756FE00BF08BDF5
:1080480000B583B00190019B5B69019A9269104663
:10805800984700BF03B05DF804FB000000B585B089
:108068002B4B1B68002B4ED000230193FFF706FF14
:108078000246284B1B6819461046FFF707FF029077
:10808800234B1B6803931DE0039B1B68029A9A42CB
:108098001CD3039B1B68029AD31A0293039B1B6889
:1080A800019A13440193039B0093039BDB69039399
:1080B800009B1B7C002B05D0009B00221A740098A3
:1080C800FFF7BEFF039B002BDED100E000BF124B81
:1080D8001A78124B1B789A420CD1104B1B7801333B
:1080E800DAB20E4B1A700D4B1B78022B02D10B4BD8
:1080F80000221A70094B1B781946094A019B42F85D
:108108002130FFF797FF00BF05B05DF804FB00BF03
:108118008C320020903200209C3200209D320020BA
:108128009432002082B00190184B1A78184B1B78B3
:108138009A4223D0154B1B780133DAB2134B1A70CD
:10814800124B1B78022B02D1104B00221A700F4BD6
:108158001B781A460F4B53F82220019B1A60019B8B
:108168001A680D4B1B6813440B4A13600A4B1B68B3
:1081780023F07F43084A1360012303E0019B002298
:108188001A600023184602B0704700BF9C320020D6
:108198009D320020943200209032002088B0039055
:1081A800029101920023079338E0204B1B68069345
:1081B800069B1B68039A9A4206D2069B1A68039B81
:1081C800D21A069B1A602DE0069B1B68039AD31AE5
:1081D8000393069B1B68079A13440793069B002288
:1081E8001A60124B1B680593069BDB690F4A1360E4
:1081F800069BDB68002B11D0029A079B134423F0DF
:108208007F42069B5A60069BDA68069B9A60019B30
:108218001A68069BDA61019B059A1A60034B1B6872
:10822800002BC2D100BF08B0704700BF8C320020BD
:1082380000B589B0019000238DF81F30664B1B688C
:108248000593AAE0019B002B05D0019B0693069B92
:10825800DB69019361E0614B1B781A4613465B00AA
:108268001344DB005D4A1344043304935B4B1B78CF
:108278000133DAB2594B1A70584B1A78574B9B781E
:108288009A4202D1554B00221A70049B5B680693F0
:10829800049B1B78022B04D0032B1BD0012B1FD06F
:1082A8001DE0049B5B681846FFF75EFE0346002B43
:1082B80002D001238DF81F30069B00221A746CE04F
:1082C800454B1B680393039B00221A74039BDB69CD
:1082D800414A1360404B1B68002BF1D15DE05CE024
:1082E80000BF069B1B7C002B00D056E0049B9A68BD
:1082F800069B5A60049BDA68069B9A60049B1A697D
:10830800069BDA60049B5A69069B9A61344B1B787A
:10831800002B02D0069B00225A60069B5A68314BFC
:108328001B68D31A23F07F432F4A93420ED8069B2B
:108338005A682C4B1B6819461046FFF7A7FD0246E2
:10834800069B9B681A44069B1A6017E0254B1A681F
:10835800069B5B6819461046FFF798FD0290069B3E
:108368009B68029A9A4206D2069B9A68029BD21A86
:10837800069B1A6002E0069B00221A60069B0022F8
:108388005A60069B00229A60069B01221A74069B7B
:108398000022DA610698FFF791FD019B002B7FF41C
:1083A80051AF0E4B1A780D4B5B789A427FF44AAF67
:1083B8009DF81F30002B04D1074B1B68059A9A4281
:1083C80001D0012300E0002303F00103DBB21846CB
:1083D80009B05DF804FB00BF8C320020803100201A
:1083E8009F32002090320020FEFF7F0010B588B039
:1083F8000190274B1B68002B44D0254B1B681B683A
:108408000793FFF73BFD0690224B1B6805930599E0
:108418000698FFF73BFD0346033304931E4B1B7876
:1084280083F00103DBB2002B01D0FFF7DFFC049AD5
:10843800079B934238BF1346059A13440593059B3F
:1084480023F07F4305930598FFF72CFDFFF716FDF2
:10845800039006990398FFF719FD0346DC1C06995B
:108468000598FFF713FD03469C420DD9FFF706FD5B
:1084780003461846FFF716FD2F20FFF78DFCFFF780
:10848800D3FD01E0FFF7D2FC00BF08B010BD00BF6C
:108498008C320020903200209E32002000B587B038
:1084A8000023019300238DF81730194B1B680493A0
:1084B800184B1B6803936B461846FFF733FE0346B9
:1084C8008DF80B309DF80B30002B08D0009B01AACB
:1084D80004991846FFF762FE01238DF81730019BB7
:1084E8001846FFF7A5FE0346002B02D001238DF89E
:1084F80017309DF81730002B02D00398FFF776FF4E
:10850800054B00221A7000BF07B05DF804FB00BFDE
:10851800903200208C3200209F32002082B0034627
:108528008DF80730034A9DF80730537000BF02B03A
:10853800704700BF8031002084B00190144B5B78F5
:1085480001338DF80F30124B9B789DF80F209A421B
:1085580002D100238DF80F300D4B1B789DF80F20AA
:108568009A4201D100230FE0019B9DF80F201A7059
:10857800074B5B781A4613465B001344DB00044A3A
:10858800134404330293029B184604B0704700BF9B
:108598008031002000B589B00390029101920093C8
:1085A8000023079300238DF816300DF116031846A3
:1085B80000F0D0FB0DF117031846FFF7BDFF06903A
:1085C800069B002B02D10423079318E0069B012287
:1085D8001A70069B039A5A60FFF750FC0246069BE6
:1085E8009A60069B029ADA60069B019A1A61069BBA
:1085F800009A5A619DF817301846FFF78FFF9DF8CB
:108608001630184600F0BCFB079B002B01D1FFF782
:1086180011FD079B184609B05DF804FB00B587B04B
:1086280001900B468DF803300023059300238DF845
:108638000E300DF10E03184600F08CFB0DF10F0300
:108648001846FFF779FF0490049B002B02D10423FE
:1086580005930BE0049B9DF803201A70049B019A74
:108668005A609DF80F301846FFF758FF9DF80E30F6
:10867800184600F085FB059B002B01D1FFF7DAFCBB
:10868800059B184607B05DF804FB000008B50E4BC3
:108698000022C3F840210C4B0022C3F844210A4BA6
:1086A8000022C3F84821084B0022C3F84C21064B8E
:1086B8000022C3F80021044B0022C3F80421FFF76D
:1086C800CDFC00BF08BD00BF0010014008B5FFF792
:1086D800E5FE00BF08BD000008B5FFF7A7FB134B78
:1086E80000221A70114B00225A70104B0B229A70FC
:1086F8000F4B00221A600F4B00221A700E4B0022FB
:108708001A701420FFF708FB06211420FFF71CFB42
:108718001420FFF7BBFA0020FFF756FBFFF7AEFB6C
:108728000246064B1A600023184608BD8031002017
:108738008C3200209C3200209D3200209032002094
:1087480086B003900B4601928DF80B30134B9B7843
:10875800002B01D108231EE0019B002B01D1072328
:1087680019E0039B002B01D1072314E0039B1B682E
:108778001B7C002B01D008230DE0039B1B6805938D
:10878800059B00221A74059B9DF80B205A74059BC3
:10879800019A5A610023184606B0704780310020BC
:1087A80000B587B0039002910192039B0593144B87
:1087B8009B78002B01D108231EE0039B002B01D1DD
:1087C800082319E0029B042B01D8072314E0059B1A
:1087D8005B69002B01D108230EE0059B5B7C012B14
:1087E80001D1029B00E000230493019B049A0299A3
:1087F8000598FFF7CFFE0346184607B05DF804FB5F
:108808008031002000B585B00190019B03930D4B8A
:108818009B78002B01D1082310E0019B002B03D08B
:10882800039B5B69002B01D1082307E0039B00220F
:108838001A7402210398FFF7F1FE0346184605B0A3
:108848005DF804FB8031002000B587B003900291E9
:1088580013468DF8073000230593039B1B781A46AF
:10886800114B9B5C002B09D0039B04339DF8072018
:108878000299184604F074FC05900FE0039B1B78DE
:108888001A46094B9B5C002B08D1039B0C339DF8BF
:1088980007200299184603F011FE0590059B18461B
:1088A80007B05DF804FB00BF0C33002000B585B0AD
:1088B800019000238DF80F30019B1B781A46114B4D
:1088C8009B5C002B08D0019B0433184604F0F2FC93
:1088D80003468DF80F300EE0019B1B781A46094BB2
:1088E8009B5C002B07D1019B0C33184603F06EFEEE
:1088F80003468DF80F309DF80F30184605B05DF827
:1089080004FB00BF0C33002000B587B00390029130
:1089180013468DF8073000230593039B1B781A46EE
:10892800114B9B5C002B09D0039B04339DF8072057
:108938000299184604F0D6FC05900FE0039B1B78BB
:108948001A46094B9B5C002B08D1039B0C339DF8FE
:1089580007200299184603F091FE0590059B1846DA
:1089680007B05DF804FB00BF0C33002084B0019011
:10897800019B9B680393019BDA68039BD31A1846F3
:1089880004B0704700B587B001900091019B1B7837
:10899800012B04D0022B38D0002B47D05CE0019B80
:1089A8005B681B7819462E48FFF73FF90590059B31
:1089B800002B0AD001238DF80C30059B0493294B1A
:1089C8001B6803AA104698470DE02548FFF7CEFF1D
:1089D8000346002B07D000238DF80C30214B1B6871
:1089E80003AA104698471E48FFF7C0FF02461C4BD3
:1089F8009B889A4205D801221B491C48FFF784FF2F
:108A08002AE01B4B01221A7026E002238DF80C3055
:108A1800019BDB680493012213491448FFF774FF94
:108A2800104B1B6803AA1046984715E011491248D5
:108A3800FFF716F90346002B05D101220D490B4813
:108A4800FFF702FF07E003238DF80C30054B1B6886
:108A580003AA1046984700BF00BF07B05DF804FBA3
:108A6800AC320020A0320020A8320020F82A0020D2
:108A7800A9320020A4320020BC32002030B591B0C9
:108A88000390029101928DF803303C4A019B1360D8
:108A9800029B002B01D107236DE0029B1968029B02
:108AA8005B689BB21A463648FFF793F80F900F9B06
:108AB8000E930E9B002B01D00E9B5CE0029B9968E5
:108AC800029BDB689BB21A462E48FFF782F80F908C
:108AD8000F9B0D930D9B002B01D00D9B4BE02A4B58
:108AE80004AC1D460FCD0FC495E80F0084E80F00B5
:108AF800039B5B690A93039B1B7C002B14BF012318
:108B08000023DBB28DF824309DF803308DF82C302B
:108B1800039B5B7C002B01D00E2300E000238DF823
:108B28002530039BDB680693039B9B680793039B95
:108B38001B680593039B5B68049304AB134A1946AF
:108B4800134802F061F80F900F9B0C930C9B002BBD
:108B580001D00C9B0FE00F4B00221A70039B1B687F
:108B6800B3F1FF3F06D001220B490948FFF7CCFEBD
:108B7800034600E00023184611B030BDA0320020A3
:108B8800AC320020BC320020886203008D890200CC
:108B9800F82A0020A9320020A832002000B587B0AA
:108BA8000190019B002B03D11449C22007F040F922
:108BB800134B1B788DF8173001991248FFF750F8BE
:108BC80004909DF81730002B12D00D4B00221A701C
:108BD80001220D490D48FFF797FE0390039B02936E
:108BE800029B002B04D0054ACE210298FEF7EEFE28
:108BF800049B184607B05DF804FB00BFA862030099
:108C0800A9320020AC320020A8320020F82A002027
:108C180000B585B003468DF807309DF80730194632
:108C28001048FFF702F80390039B002B15D10E485C
:108C3800FFF73CFE034683F00103DBB2002B0CD0A8
:108C48000A490848FFF70CF80346002B05D1012212
:108C580006490548FFF7F8FD0390039B184605B041
:108C68005DF804FBBC320020F82A0020A432002062
:108C780082B0EFF310830093009B019372B6019BBF
:108C8800184602B0704762B600BF704700B585B09D
:108C98000190FFF7EDFF0390164B9B68002B1BD14B
:108CA800144B01229A60144BD3F88020134B1340C5
:108CB800104A1360104B114AC3F880200E4BD3F8AA
:108CC80084300C4A53600C4B4FF0FF32C3F88420B9
:108CD800019B00221A7002E0019B01221A70039B7B
:108CE800002B01D1FFF7CFFF0023184605B05DF830
:108CF80004FB00BFCC32002000E100E0FC06FFBD11
:108D080000B585B003468DF80730104B9B68002BE3
:108D180016D09DF80730002B12D1FFF7A9FF03905A
:108D28000B4A0A4B1B681360094A084B5B6853607F
:108D3800064B00229A60039B002B01D1FFF7A3FF8B
:108D48000023184605B05DF804FB00BFCC320020B4
:108D580000E100E000B583B0019000F02BF8034675
:108D6800012B03D00549432007F062F80198FFF76B
:108D78008DFF00BF03B05DF804FB00BF1063030064
:108D880000B583B003468DF8073000F013F80346AA
:108D9800012B03D00649512007F04AF89DF8073007
:108DA8001846FFF7ADFF00BF03B05DF804FB00BF36
:108DB8001063030084B0EFF305830193019BC3F3B1
:108DC80008030393039B002B0DD1EFF31483009347
:108DD800009B0293029B03F00103002B0CBF0123AD
:108DE8000023DBB200E00123184604B0704700B549
:108DF80085B001900091009B5B099B00019AD018F7
:108E0800009B03F01F03012202FA03F3194600F046
:108E18004CF8039000BF05B05DF804FB00B585B0C1
:108E280001900091009B5B099B00019AD018009B60
:108E380003F01F03012202FA03F3DB43194600F093
:108E480064F8039000BF05B05DF804FB82B00190A0
:108E58000091009B5B099B00019A13441A68009BD0
:108E680003F01F0322FA03F303F00103002B14BFDE
:108E780001230023DBB2184602B0704710B487B054
:108E880001900091019B009A53E8004F104643E877
:108E9800000191F0000FF7D1059404900391059B10
:108EA800184607B05DF8044B704710B487B00190BE
:108EB8000091019B009A53E8004F44EA020043E8FE
:108EC800000191F0000FF6D1059404900391049BE2
:108ED800184607B05DF8044B704710B487B001908E
:108EE8000091019B009A53E8004F04EA020043E80E
:108EF800000191F0000FF6D1059404900391059BB1
:108F0800184607B05DF8044B704710B487B001905D
:108F18000091019B009A53E8004F04EA020043E8DD
:108F2800000191F0000FF6D1059404900391049B81
:108F3800184607B05DF8044B704710B487B001902D
:108F48000091019B009A53E8004F04EB020043E8AC
:108F5800000191F0000FF6D1059404900391049B51
:108F6800184607B05DF8044B704710B487B00190FD
:108F78000091019B009A53E8004FA4EB020043E8DC
:108F8800000191F0000FF6D1059404900391049B21
:108F9800184607B05DF8044B704700B583B00190E0
:108FA80001210198FFF781FF0346184603B05DF8D9
:108FB80004FB00B583B0019000210198FFF78DFFF5
:108FC8000346184603B05DF804FB000000B583B003
:108FD80001900B468DF80330019B002B03D1084903
:108FE800E82006F025FF019BDA689DF80330019917
:108FF800098A01FB03F31344184603B05DF804FB28
:109008007C63030000B583B001900091019B002BA5
:1090180003D10849F52006F00BFF009B019AD2689E
:109028009B1A019A128AB3FBF2F3DBB2184603B01B
:109038005DF804FB7C63030000B585B00190019BDB
:10904800002B01D10E234DE0019B1B68002B03D19F
:109058002649FF2006F0ECFE019B5B68002B04D13B
:1090680022494FF4807006F0E3FE019B9B68002BB9
:1090780004D11E4940F2011006F0DAFE019BDB68BC
:10908800002B04D119494FF4817006F0D1FE019BE1
:109098001B8A002B04D1154940F2031006F0C8FEC4
:1090A800019B9B681A46019B5B68D31A8DF80F30A9
:1090B800019B1B68019A52681A6007E0019B1A68B5
:1090C8001368591C11609DF80F201A709DF80F3015
:1090D8005A1E8DF80F20002BF0D1019B1B6800222F
:1090E8001A710023184605B05DF804FB7C63030081
:1090F80000B585B00190019B002B04D120494FF4A5
:10910800927006F095FE0023039300238DF80A3031
:109118000DF10A031846FFF71DFE019B1B681A682C
:10912800019B5B689A4220D9019B1B681A68013A27
:109138001A601B681B7819460198FFF747FF0390D0
:10914800019B9B681A46019B1B681B68D31A8DF804
:109158000B30019B1B681B799DF80B209A4204D9A0
:10916800019B1B689DF80B201A719DF80A30184660
:10917800FFF706FE039B184605B05DF804FB00BF29
:109188007C63030010B584B001900091019B002B13
:1091980004D1154940F2471006F04AFE009B002B07
:1091A80004D111494FF4A47006F042FE009B0393CA
:1091B80000238DF80B300DF10B031846FFF7CAFD9D
:1091C800019B1B681C68621C1A6003990198FFF7D1
:1091D80019FF034623709DF80B301846FFF7D0FDA2
:1091E80000BF04B010BD00BF7C63030000B583B0AE
:1091F8000190019B002B03D10C49312006F018FE89
:10920800019B9B68002B0CD0019B5B69019A10693C
:10921800019A1168019A92689847019B00229A6006
:1092280000E000BF03B05DF804FB00BFE463030087
:109238000EB400B584B00190019B002B03D11849EE
:10924800422006F0F5FD019B5B69002B03D1144910
:10925800432006F0EDFD019B1B68002B03D110494C
:10926800442006F0E5FD019B5B68002B03D10C4907
:10927800452006F0DDFD059B002B0AD00023039353
:1092880006AB039303AB1A460599019800F0B0F9B1
:1092980000E000BF04B05DF804EB03B0704700BF06
:1092A800E463030000B583B001900B468DF80330EA
:1092B800019B1A68019B9B68581C0199886013449C
:1092C8009DF803201A70019B9A68019B5B689A427B
:1092D80002D30198FFF78AFF00BF03B05DF804FBD3
:1092E80000B587B003900291019200930023059383
:1092F800009B03F00103002B24D00BE0029B0133F9
:109308000293059B013305939DF813301946039882
:10931800FFF7C8FF029B1B788DF813309DF81330B8
:10932800002BEBD106E0019B013B01932021039820
:10933800FFF7B8FF019A059B9A422ED9019B002B93
:10934800F1D12AE0029B002B0BD002980CF0BAF95D
:10935800059006E0019B013B019320210398FFF74C
:10936800A1FF019A059B9A420FD9019B002BF1D1CD
:109378000BE0029B01330293059B013305939DF893
:10938800133019460398FFF78DFF029B1B788DF861
:1093980013309DF81330002BEBD100BF07B05DF8F8
:1093A80004FB000000B589B003900291019200937C
:1093B800029B07930123069307E0079A019BB2FBE0
:1093C800F3F30793069B01330693079A019B9A428E
:1093D800F3D2009A069B9A4201D9009B06930B9BF5
:1093E80003F00103002B22D10A9B002B1FD00B9BFB
:1093F80003F00203002B06D0009B002B03D130237F
:109408008DF8173002E020238DF8173008E00A9B0A
:10941800013B0A939DF8173019460398FFF742FF5E
:109428000A9B002B03D0069A0A9B9A42EFD301238A
:109438000793009B012B03D9009B013B009309E094
:10944800029A079BB2FBF3F30493049A019B9A4296
:1094580000D205E0079B019A02FB03F30793E8E7B4
:10946800029A079BB2FBF3F30493049B079A02FB4F
:1094780003F3029AD31A0293154A049B13441B78E8
:1094880019460398FFF70EFF079A019BB2FBF3F307
:109498000793079B002BE3D10B9B03F00103002BE1
:1094A80011D00A9B002B0ED006E00A9B013B0A93C1
:1094B80020210398FFF7F6FE0A9B002B03D0069A9B
:1094C8000A9B9A42F1D300BF09B05DF804FB00BFC4
:1094D800A864030000B589B0059004910392029333
:1094E800049B002BB8BF5B4206930123079307E058
:1094F800039B069A92FBF3F30693079B01330793AA
:10950800039B069A9A42F3DA029A079B9A4201D978
:10951800029B07930A9B002B0AD0049B002B04DBB9
:109528000B9B03F00403002B02D00A9B013B0A9318
:109538000B9B03F00203002B02D0029B002B16D0DA
:109548000B9B03F00103002B11D10A9B002B0ED0BB
:1095580006E00A9B013B0A9320210598FFF7A2FE2B
:109568000A9B002B03D0079A0A9B9A42F1D3049BCB
:10957800002B07DA049B5B4204932D210598FFF723
:1095880091FE08E00B9B03F00403002B03D02B2172
:109598000598FFF787FE0B9B03F00203002B19D0F9
:1095A8000B9B03F00103002B14D1029B002B11D15C
:1095B8000A9B002B0ED006E00A9B013B0A93302140
:1095C8000598FFF76FFE0A9B002B03D0079A0A9BAA
:1095D8009A42F1D304990B9B01930A9B0093029B37
:1095E800039A0598FFF7DEFE00BF09B05DF804FB9B
:1095F80000B58FB0059004910392059B002B04D110
:10960800C8494FF49F7006F013FC059B5B69002B5B
:1096180004D1C4494FF4A07006F00AFC059B1B68EE
:10962800002B04D1BF4940F2411006F001FC059B14
:109638005B68002B04D1BB494FF4A17006F0F8FB1E
:10964800049B002B00F0ED81049B1B788DF83730CC
:10965800049B013304939DF83730002B00F0D88128
:109668009DF83730252B40F0C78100230A9301234A
:109678000C93049B1B788DF837309DF837302D2BD1
:1096880004D0302B0AD02B2B10D017E00A9B43F0C4
:1096980001030A93049B0133049312E00A9B43F0ED
:1096A80002030A93049B013304930AE00A9B43F0E4
:1096B80004030A93049B0133049302E000230C93F0
:1096C80000BF0C9B002BD4D1002309939DF83730A1
:1096D8002A2B0CD1039B1B68191D039A11601B6868
:1096E800099A13440993049B013304931AE0049BD9
:1096F8001B788DF837309DF837302F2B12D99DF80D
:109708003730392B0ED8049B01330493099A13463A
:109718009B0013445B001A469DF837301344303BD6
:109728000993D3E700230B93049B1B788DF83730FC
:109738009DF837302E2B1DD1049B01330493049BD5
:109748001B788DF837309DF837302F2B12D99DF8BC
:109758003730392B0ED8049B013304930B9A1346E8
:109768009B0013445B001A469DF837301344303B86
:109778000B93E4E7049B1B788DF837309DF837305E
:109788006C2B03D09DF83730682B07D1049B01332D
:109798000493049B1B788DF83730EFE79DF837303A
:1097A800253B532B00F2238101A252F823F000BF7E
:1097B800ED990200F7990200F7990200F799020063
:1097C800F7990200F7990200F7990200F799020049
:1097D800F7990200F7990200F7990200F799020039
:1097E800F7990200F7990200F7990200F799020029
:1097F800F7990200F7990200F7990200F799020019
:10980800F7990200F7990200F7990200F799020008
:10981800F7990200F7990200F7990200F7990200F8
:10982800F7990200F7990200F7990200F7990200E8
:10983800F7990200F7990200F7990200F7990200D8
:10984800F7990200F7990200F7990200F7990200C8
:10985800F7990200F7990200F7990200F7990200B8
:10986800F7990200F7990200F7990200F7990200A8
:10987800F7990200F7990200F79902007999020016
:10988800F7990200F7990200F7990200F799020088
:10989800F7990200F7990200F7990200F799020078
:1098A800F7990200F799020009990200319902001C
:1098B800F7990200F7990200F7990200F799020058
:1098C80031990200F7990200F7990200F79902000E
:1098D800F7990200F7990200F7990200B999020076
:1098E800F7990200F79902009D990200F799020082
:1098F80055990200F7990200F79902007999020038
:10990800039B1B68191D039A11601B680C930C9B21
:109918008DF81F309DF81F3019460598FFF7C2FCD7
:1099280066E000BF44640300039B1B68191D039A8B
:1099380011601B680C930A9B0193099B00930B9B76
:109948000A220C990598FFF7C5FD51E0039B1B6897
:10995800191D039A11601B680C930C990A9B0193BB
:10996800099B00930B9B0A220598FFF71BFD3FE01C
:10997800039B1B68191D039A11601B680C930C99B3
:109988000A9B0193099B00930B9B10220598FFF7F4
:1099980009FD2DE0039B1B68191D039A11601B68C4
:1099A80008930A9B099A08990598FFF799FC1FE004
:1099B800039B1B68191D039A11601B680C933021C7
:1099C8000598FFF76FFC78210598FFF76BFC0C9959
:1099D8000023019308230093082310220598FFF71A
:1099E800E1FC05E025210598FFF75CFC00E000BFDD
:1099F800049B0133049305E09DF837301946059818
:109A0800FFF750FC049B1B78002B7FF41DAE00E091
:109A180000BF059B1B7B002B04D00598FFF7E6FBD6
:109A280000E000BF0FB05DF804FB00BF00B583B0D5
:109A380001900198FFF700FB0346184603B05DF854
:109A480004FB00B58BB001900091019B1B8A043B7D
:109A58000793009A079B1344DA1C079BB2FBF3F3A6
:109A68008DF81B300198FFF743FB0590059B002BF1
:109A780001D1002338E0059B00221A71059B0122C1
:109A88005A71079B9AB2059BDA80059B09939DF84A
:109A98001B30013B0493099B019A1A600023089329
:109AA8001DE00198FFF724FB0390039B002B0ED0C9
:109AB800059B5B790133DAB2059B5A71099B039ABE
:109AC8001A60039B019A1A60039B099304E00598A6
:109AD80000F00EF8002307E0089B01330893089A6A
:109AE800049B9A42DDD3059B18460BB05DF804FB36
:109AF80000B58BB00190019B0793079B5B798DF8AC
:109B08001B30019B08939DF81B30013B05930023F4
:109B1800099305E0089B1B680893099B0133099387
:109B2800099A059B9A42F5D3089B1B680493019BED
:109B38000893002309930BE0089B1B68039308997B
:109B48000498FFF71FFB039B0893099B01330993B4
:109B58009DF81B30099A9A42EED300BF0BB05DF80E
:109B680004FB00B585B00190019B0393039B04336C
:109B780001211846FFF7E1F900BF05B05DF804FBC5
:109B880000B587B00190019B0593059B0433012123
:109B98001846FFF7EAF90346039303AB0493049BC3
:109BA8001B78002B02D10198FFF7A2FF00BF07B076
:109BB8005DF804FB00B591B0039002910192009307
:109BC800039B002B03D14349B62006F031F9039BD0
:109BD8000993039B0F93099BDB881A46099B5B79C2
:109BE80003FB02F3043B0893009A089B9A4203D3B1
:109BF8003849C42006F01CF9099BDB880793009BB1
:109C08001A1D079BB2FBF3F30E93009B0433079ACC
:109C1800B3FBF2F2079901FB02F29B1A0D93019B29
:109C28001A68009B1344089A9A4203D2089A009B28
:109C3800D31A01E0019B1B680C93019B0C9A1A60D4
:109C480005E00F9B1B680F930E9B013B0E930E9B29
:109C5800002BF6D100230B93079A0D9BD31A0A9376
:109C68000A9A0C9B934228BF13460A932AE0029A49
:109C78000B9B134406930F9A0D9B134404330593CF
:109C88009DF84830002B05D00A9A059906980BF0E4
:109C98009BFC04E00A9A069905980BF095FC0023B2
:109CA8000D930F9B1B680F930C9A0A9BD31A0C9366
:109CB8000B9A0A9B13440B93079A0C9B934228BF59
:109CC80013460A930C9B002BD1D100BF11B05DF84D
:109CD80004FB00BFB864030000B589B00590049187
:109CE80003920293039B079307AA00230093029B06
:109CF80004990598FFF75EFF079B039A9A4203D0E1
:109D08000349F62006F094F800BF09B05DF804FB9B
:109D1800B864030000B589B00590049103920293DA
:109D2800039B079307AA01230093029B04990598B4
:109D3800FFF740FF079B039A9A4204D004494FF467
:109D4800807006F075F800BF09B05DF804FB00BF2D
:109D5800B864030082B003468DF807309DF80730D9
:109D680003F01F0206499DF907305B09012000FA3C
:109D780002F2603341F8232000BF02B0704700BFF1
:109D880000E100E000B583B00190019B002B03D1F6
:109D98000649722006F04CF8019B00221A60BFF3B6
:109DA8005F8F00BF03B05DF804FB00BF7865030058
:109DB80041DF704700BF184600B585B000238DF815
:109DC80003300DF103031846FEF7C4FFF1EE103A15
:109DD8000193019B0393039B23F09F030293029B30
:109DE800E1EE103ABFF35F8F2620FFF7B3FF9DF82F
:109DF80003301846FEF7C4FF039B03F00703002B4C
:109E080003D004497D2006F013F800BF05B05DF8C3
:109E180004FB00BFC065030008B5064B00221A709A
:109E28000548FFF7AFFF0549054800F04BF8002348
:109E3800184608BDDC320020D83200202C6603000A
:109E4800E032002000B583B0FFF7B6FF0AF0FEFD50
:109E58000346002B0ED0FFF7ABFF0190019B002BB0
:109E68000BD0019B022B08D006494FF4B07005F0C7
:109E7800DFFF02E020BF40BF20BF00BF03B05DF896
:109E880004FB00BFC065030082B00190019B9B6882
:109E980000229A60019B9B6800221A61019B9B68C3
:109EA80000225A61019B9B680022DA60019B9B6833
:109EB80000225A60019B9B6800221A6000BF02B012
:109EC8007047000000B583B001900091019B002B02
:109ED80003D11049502005F0ABFF009B002B03D1A4
:109EE8000C49512005F0A4FF019B009A1A60019BC0
:109EF8001B681A68019B5A60019B5A68019B1B6882
:109F08005B689A4202D1019B00225A6000BF03B0ED
:109F18005DF804FB3866030000B583B00190019B2F
:109F2800002B03D11449632005F082FF019B1B68B5
:109F3800002B03D11049642005F07AFF019B5B6870
:109F4800002B14D0019B5B681A46019B1B689B6819
:109F580013441A46019B5A60019B5A68019B1B686F
:109F68005B689A4204D1019B00225A6000E000BF5E
:109F780003B05DF804FB00BF3866030000B585B088
:109F88000190019800F00EF80390039B002B01D07C
:109F9800039B00E0024B184605B05DF804FB00BFC8
:109FA800B866030086B00190164B0593164B0493D0
:109FB8001FE0049A059BD31ADB10DA0F13445B10D9
:109FC800DB00059A13440393039B1B680293029AD0
:109FD800019B9A4202D9039B04930AE0029A019BCF
:109FE8009A4203D2039B0833059302E0039B5B6804
:109FF80004E0059A049B9A42DBD30023184606B076
:10A00800704700BFB86A0300E06B030000B583B077
:10A0180001900091019BDBB21846FEF7F9FD019B08
:10A02800184603B05DF804FBBFF34F8F054BDB68A0
:10A0380003F4E0620349044B1343CB60BFF34F8F33
:10A0480000BFFDE700ED00E00400FA05024B034AFB
:10A058001A6000BF704700BF0C2B00200090D0038F
:10A0680008B500F025F90346002B0ED04FF08043C9
:10A078000022C3F80C214FF080430022C3F81021BE
:10A088004FF080430022C3F8382500F02FF903462B
:10A09800002B76D04FF080537C4AD3F80434C2F8B2
:10A0A80020354FF08053794AD3F80834C2F8243564
:10A0B8004FF08053754AD3F80C34C2F828354FF066
:10A0C8008053724AD3F81034C2F82C354FF08053BD
:10A0D8006E4AD3F81434C2F830354FF080536B4AC7
:10A0E800D3F81834C2F834354FF08053674AD3F8A0
:10A0F8001C34C2F840354FF08053644AD3F82034FA
:10A10800C2F844354FF08053604AD3F82434C2F87B
:10A1180048354FF080535D4AD3F82834C2F84C359F
:10A128004FF08053594AD3F82C34C2F850354FF0C9
:10A138008053564AD3F83034C2F854354FF0805320
:10A14800524AD3F83434C2F860354FF080534F4A3E
:10A15800D3F83834C2F864354FF080534B4AD3F8FB
:10A168003C34C2F868354FF08053484AD3F840343D
:10A17800C2F86C354FF08053444AD3F84434C2F8DF
:10A18800703500F0D1F80346002B02D0404B414A0D
:10A198001A6000F0DBF80346002B03D03E4BFB228D
:10A1A800C3F8182500F0E4F80346002B0AD03B4B0F
:10A1B8001B6823F00F023A4B1B6803F00F03374963
:10A1C80013430B6000F0E6F80346002B03D0354B31
:10A1D8004FF400721A6000F0EFF80346002B0DD020
:10A1E8004FF08043D3F8003403F00103002B05D06F
:10A1F8004FF080436FF00102C3F800242A4BD3F8D4
:10A208008830294A43F47003C2F88830BFF34F8F6F
:10A21800BFF36F8F4FF01023D3F80032002B05DB0C
:10A228004FF01023D3F80432002B2BDA1F4B0122F6
:10A23800C3F8042500BF1D4BD3F80034002BFAD017
:10A248004FF010231222C3F8002200BF174BD3F897
:10A258000034002BFAD04FF010231222C3F8042246
:10A2680000BF124BD3F80034002BFAD00F4B00225A
:10A27800C3F8042500BF0D4BD3F80034002BFAD0E7
:10A28800FFF7D2FEFFF7E2FE00BF08BD00C00040A6
:10A298008C5600404881030000F00040E40E004066
:10A2A800580200104096024000ED00E000E0014036
:10A2B8000C4B1B68082B11D10B4B1B68002B01D1D1
:10A2C80001230CE0084B1B68012B01D1012306E098
:10A2D800054B1B68022B01D1012300E0012318461E
:10A2E800704700BF30010010340100100C4B1B6890
:10A2F800082B11D10B4B1B68002B01D101230CE05B
:10A30800084B1B68012B01D1012306E0054B1B6894
:10A31800022B01D1012300E001231846704700BF3A
:10A328003001001034010010064B1B68082B05D1C2
:10A33800054B1B68002B01D1012300E000231846C0
:10A34800704700BF3001001034010010064B1B6835
:10A35800082B05D1054B1B68002B01D1012300E018
:10A3680000231846704700BF300100103401001068
:10A37800064B1B68082B05D1054B1B68002B01D128
:10A38800012300E000231846704700BF3001001089
:10A3980034010010064B1B68082B05D1054B1B68C0
:10A3A800002B01D1012300E000231846704700BFAD
:10A3B80030010010340100100C4B1B68082B11D120
:10A3C8000B4B1B68002B01D101230CE0084B1B68C9
:10A3D800012B01D1012306E0054B1B68022B01D19B
:10A3E800012300E001231846704700BF3001001028
:10A3F8003401001000B583B00190019B1B682F2B1E
:10A4080004D90B494FF4E87005F012FD019B1B6855
:10A418001F2B02D84FF0A04306E0019B1B6803F0F6
:10A428001F02019B1A60034B184603B05DF804FB3A
:10A43800E06B03000003005000B585B001900846AA
:10A4480011461A4603468DF803300B468DF8023044
:10A4580013468DF8013001AB1846FFF7CBFF039088
:10A468009DF803209DF802305B001A439DF80130E7
:10A478009B001A439DF818301B0242EA03019DF81D
:10A488001C301B04019A1943039B02F5E07243F840
:10A49800221000BF05B05DF804FB00B585B003903D
:10A4A8000023019300230093002301220121039834
:10A4B800FFF7C2FF00BF05B05DF804FB00B585B02B
:10A4C80003900B468DF80B309DF80B200023019369
:10A4D800002300931346002200210398FFF7ACFFE6
:10A4E80000BF05B05DF804FB00B585B0019001AB75
:10A4F8001846FFF77FFF0390019B012202FA03F33E
:10A508001946039800F086F800BF05B05DF804FB13
:10A5180000B585B0019001AB1846FFF76BFF0390BB
:10A52800019B012202FA03F31946039800F07CF814
:10A5380000BF05B05DF804FB00B585B0019001AB24
:10A548001846FFF757FF0390039BD3F8043502938F
:10A55800029BDA43019B012101FA03F31A40039B92
:10A56800C3F80825019B01229A40029B1A40039BCD
:10A57800C3F80C2500BF05B05DF804FB00B583B037
:10A5880001900091009B002B03D10198FFF7C0FFB9
:10A5980002E00198FFF7A8FF00BF03B05DF804FBD5
:10A5A80000B585B0019001AB1846FFF723FF039073
:10A5B800039800F01FF80246019B22FA03F303F008
:10A5C8000103184605B05DF804FB00B585B001909D
:10A5D80001AB1846FFF70EFF0390039800F012F83E
:10A5E8000246019B22FA03F303F00103184605B063
:10A5F8005DF804FB82B00190019BD3F81035184632
:10A6080002B0704782B00190019BD3F80435184618
:10A6180002B0704782B001900091019B009AC3F884
:10A62800082500BF02B0704782B001900091019BDD
:10A63800009AC3F80C2500BF02B0704700B585B07A
:10A648000190019B032B03D911493A2005F0F0FB37
:10A65800104A019B13441B781846FFF7B6FF0346C0
:10A66800002B14BF012300238DF80F309DF80F3005
:10A67800002B14BF01230023DBB283F00103DBB2FC
:10A6880003F00103DBB2184605B05DF804FB00BF18
:10A69800106C03006C6C030000B583B00190019B43
:10A6A800032B03D90749412005F0C2FB064A019B49
:10A6B80013441B7800211846FFF760FF00BF03B062
:10A6C8005DF804FB106C03006C6C030000B583B0EC
:10A6D8000190019B032B03D90749472005F0A8FBEC
:10A6E800064A019B13441B7801211846FFF746FFD1
:10A6F80000BF03B05DF804FB106C03006C6C030032
:10A7080000B583B00023019305E00198FFF7DEFF51
:10A71800019B01330193019B032BF6D900BF03B0C2
:10A728005DF804FB00B583B00023019305E00198B0
:10A73800FFF7B2FF019B01330193019B032BF6D96D
:10A7480000BF03B05DF804FB00B583B00190019B26
:10A75800032B03D907495F2005F06AFB064A019BD2
:10A7680013441B781846FFF7E7FE00BF03B05DF8F7
:10A7780004FB00BF106C03006C6C030000B583B0D1
:10A788000023019309E0094A019B13441B781846EA
:10A79800FFF783FE019B01330193019B032BF2D941
:10A7A800FFF7AEFF00BF03B05DF804FB6C6C03005D
:10A7B80000B585B00190019B032B03D91149AC204A
:10A7C80005F036FB104A019B13441B781846FFF727
:10A7D800E7FE0346002B14BF012300238DF80F303A
:10A7E8009DF80F30002B14BF01230023DBB283F048
:10A7F8000103DBB203F00103DBB2184605B05DF8D4
:10A8080004FB00BF106C0300706C030000B583B03C
:10A81800002301930AE0094A019B13441B78032192
:10A828001846FFF74BFE019B01330193019B032B55
:10A83800F1D900BF03B05DF804FB00BF706C0300E2
:10A8480084B001904FF0FF330293002303930DE08F
:10A858000A4A039B13441B781A46019B934202D170
:10A86800039B029305E0039B01330393039B032B94
:10A87800EED9029B184604B0704700BF706C030005
:10A8880000B583B00190019B032B03D90549CB2068
:10A8980005F0CEFA044A019B13441B78184603B00E
:10A8A8005DF804FB106C0300706C030000B583B006
:10A8B8000190019B03F00103002B01D0FFF75EFF1D
:10A8C800019B03F00203002B01D0FFF79FFF00BF9D
:10A8D80003B05DF804FB000082B003468DF8073032
:10A8E8009DF8073003F01F0206499DF907305B0900
:10A8F800012000FA02F2203341F8232000BF02B001
:10A90800704700BF00E100E008B50AF09FF8034671
:10A9180083F00103DBB2002B03D10549792005F050
:10A9280087FA00F045FB034B00229A7000BF08BD70
:10A938007C6C0300E832002000B583B0002301934B
:10A94800144B1B78002B02D0852301931CE0114B7C
:10A9580000229A600F4B00225A600E4B00221A61A7
:10A968000C4B0022DA600C4800F0E8FA01900AF07B
:10A978006DF8034683F00103DBB2002B01D000F031
:10A9880003FB044B01221A70019B184603B05DF8C3
:10A9980004FB00BFE832002079AA020084B00190CD
:10A9A800019B1B680393039B002B03D0039B1A682E
:10A9B800019B1A60039B184604B0704700B583B02A
:10A9C800164B1B78002B04D115494FF4857005F000
:10A9D8002FFA124BDB68002B04D1114940F20B10FF
:10A9E80005F026FA00238DF807300DF10703184605
:10A9F800FEF7B0F9094BDB68013B084AD360074B07
:10AA0800DB68002B01D1FFF77FFF9DF80730184660
:10AA1800FEF7B6F900BF03B05DF804FBE83200208A
:10AA28007C6C030000B585B003468DF807309DF8AF
:10AA38000730002B02D10C4B039301E00B4B03931F
:10AA48000398FFF7ABFF0290029B002B06D0029BF6
:10AA58005B689DF8072010469847F1E700BF00BFE4
:10AA680005B05DF804FB00BFF0320020F83200208A
:10AA780000B583B003468DF807309DF80730002BEA
:10AA880005D10A4B01225A700020FFF7CBFF9DF831
:10AA98000730012B05D1054B01229A700120FFF7E1
:10AAA800C1FF00BF03B05DF804FB00BFE83200201F
:10AAB80000B583B001900091019B002B05D1054B97
:10AAC80001225A700020FFF7ADFF00BF03B05DF808
:10AAD80004FB00BFE832002000B585B003460091B2
:10AAE8008DF807309DF80730012B08D0032B25D0AF
:10AAF800002B00D030E00020FFF7EEFE2CE0002312
:10AB08008DF80F300DF10F031846FEF723F9144B9B
:10AB18001B7883F00103DBB2002B01D0FFF70CFF99
:10AB28000F4BDB6801330E4AD3600D4B01229A703C
:10AB38009DF80F301846FEF723F90DE0084B1B78F7
:10AB4800002B04D1074940F2452005F071F900F0C7
:10AB58001BFAFFF733FF00BF00BF05B05DF804FB29
:10AB6800E83200207C6C030000B589B001900091A8
:10AB7800009B0793019B1B788DF80C30019B5B6849
:10AB88000493019B1B7A8DF81430019BDB680693B4
:10AB9800074A079B52F823300649079A51F82210B2
:10ABA80003AA1046984700BF09B05DF804FB00BF30
:10ABB800FC3200200433002000B589B001900091D8
:10ABC800009B0793019B1B788DF80C30019B5B68F9
:10ABD8000493019B9B68DBB28DF81430019BDB6802
:10ABE8000693074A079B52F823300649079A51F8FB
:10ABF800221003AA1046984700BF09B05DF804FB6D
:10AC0800FC3200200433002030B58FB0039002914D
:10AC18000192039B1B780C932C490C9B019A41F8D9
:10AC28002320029B1A692A490C9B41F823200C9B7C
:10AC3800012B07D1029B5B7F002B03D1254976208E
:10AC480005F0F6F8029B5B7F1946234A0C9B1344D8
:10AC58000A461A70029B04AC1D460FCD0FC495E836
:10AC68000F0084E80F000C9B089300230D93039BAF
:10AC78001B781A46184B9B5C002B0DD0039B181DA4
:10AC8800019B002B01D0154A00E0002204AB1946B5
:10AC980002F000FA0D9014E0039B1B781A460E4B45
:10ACA8009B5C002B0DD1039B03F10C00019B002B37
:10ACB80001D00B4A00E0002204AB194601F04CFB1E
:10ACC8000D900D9B18460FB030BD00BFFC32002020
:10ACD80004330020E46C03000C33002071AB020045
:10ACE800C1AB020082B003468DF807309DF80730EB
:10ACF80003F01F0205499DF907305B09012000FA9E
:10AD080002F241F8232000BF02B0704700E100E0E2
:10AD180082B003468DF807309DF8073003F01F0214
:10AD280006499DF907305B09012000FA02F26033F9
:10AD380041F8232000BF02B0704700BF00E100E0E7
:10AD480082B0034600918DF807309DF90730002B3B
:10AD58000CDA009BDAB20C499DF8073003F00F03B8
:10AD6800043B5201D2B20B441A7609E0009BDAB2D6
:10AD780006499DF907305201D2B20B4483F80023EB
:10AD880000BF02B0704700BF00ED00E000E100E046
:10AD980000B583B003460A468DF8073013468DF890
:10ADA80006309DF80630012B03D99DF80630032B99
:10ADB8000BD99DF80630042B03D99DF80630072BD4
:10ADC80003D908496B2005F033F89DF806209DF952
:10ADD800073011461846FFF7B3FF00BF03B05DF810
:10ADE80004FB00BF4C6D030000B583B003468DF82B
:10ADF80007309DF907301846FFF78AFF9DF907309D
:10AE08001846FFF76FFF00BF03B05DF804FB0000B2
:10AE180082B003468DF807300F4A9DF90730002BA2
:10AE280000DA1F335B115BB252F823209DF907301B
:10AE3800594203F01F0301F01F0158BF4B425BB298
:10AE480022FA03F303F00103002B14BF01230023AC
:10AE5800DBB2184602B0704700E100E082B0019012
:10AE68004FF08042019BC2F8083300BF02B0704720
:10AE780082B003468DF807309DF8073003F1804310
:10AE880001221A6000BF02B0704784B00346ADF8D3
:10AE98000630BDF8063003F1804300221A60BDF881
:10AEA800063003F180431B680393039B00BF04B083
:10AEB800704782B00346ADF80630BDF8063003F19E
:10AEC80080431B68002B14BF01230023DBB2184604
:10AED80002B0704782B001904FF08042019BC2F8E7
:10AEE800183500BF02B070474FF08043D3F81834CC
:10AEF8001B0C03F00103002B14BF01230023DBB25A
:10AF08001846704700B583B006238DF80730002037
:10AF1800FFF77EFF034683F00103DBB2002B08D066
:10AF28009DF8073019460020FFF732FF0020FFF791
:10AF38005BFF00BF03B05DF804FB000000B585B0FF
:10AF48000190019B002B03D10D49A22004F070FF52
:10AF5800002303930B4B1B79002B02D0852303930B
:10AF680008E0084A019B1360064B01221A71054B41
:10AF780000225A71039B184605B05DF804FB00BF18
:10AF8800886D03001033002008B5074B1B79002B90
:10AF980003D10649BB2004F04BFFFFF7B3FF0120A4
:10AFA800FFF798FF00BF08BD10330020886D03002D
:10AFB80008B5094B1B79002B03D10849F22004F08E
:10AFC80037FF0C20FFF754FF00BFFFF78DFF034644
:10AFD800002BFAD100BF08BD10330020886D030094
:10AFE80008B54FF48070FFF764FF0346002B14D0B8
:10AFF8004FF48070FFF749FF0120FFF72FFF114B37
:10B008005B7983F00103DBB2002B06D00D4B0122E4
:10B018005A710C4B1B68002098474FF48270FFF759
:10B0280048FF0346002B0AD04FF48270FFF72DFF2C
:10B038000220FFF713FF034B1B680120984700BF4E
:10B0480008BD00BF1033002082B003468DF80730DA
:10B058009DF8073003F01F0205499DF907305B0989
:10B06800012000FA02F241F8232000BF02B0704725
:10B0780000E100E082B003468DF807309DF8073004
:10B0880003F01F0206499DF907305B09012000FA09
:10B0980002F2603341F8232000BF02B0704700BFBE
:10B0A80000E100E082B0034600918DF807309DF979
:10B0B8000730002B0CDA009BDAB20C499DF80730F8
:10B0C80003F00F03043B5201D2B20B441A7609E095
:10B0D800009BDAB206499DF907305201D2B20B44FF
:10B0E80083F8002300BF02B0704700BF00ED00E006
:10B0F80000E100E000B583B003460A468DF807304A
:10B1080013468DF806309DF80630012B03D99DF8BB
:10B118000630032B0BD99DF80630042B03D99DF874
:10B128000630072B03D908496B2004F081FE9DF8EF
:10B1380006209DF9073011461846FFF7B3FF00BFF8
:10B1480003B05DF804FB00BFEC6D030000B583B0ED
:10B1580003468DF807309DF907301846FFF78AFF38
:10B168009DF907301846FFF76FFF00BF03B05DF881
:10B1780004FB00B583B00346ADF80630BDF80630D1
:10B18800184600F026F803461B68012B0CBF012364
:10B198000023DBB2184603B05DF804FB00B585B0A8
:10B1A8000346ADF80630BDF80630184600F011F831
:10B1B80003461A4600231360BDF80630184600F00F
:10B1C80008F803461B680393039B00BF05B05DF8AE
:10B1D80004FB82B00346ADF80630BDF8063003F133
:10B1E800804303F5C043184602B0704782B001900F
:10B1F800034A019BC2F8043300BF02B0704700BF86
:10B208000060004082B00190034BD3F80423019BF7
:10B218001340184602B070470060004082B00190A9
:10B22800084A019B03F5A27352F82330054943F0FD
:10B238000102019B03F5A27341F8232000BF02B06D
:10B24800704700BF0060004084B00390029113462D
:10B258008DF80730144A039B03F5A27352F8233084
:10B26800114923F44F3323F44073039A02F5A27271
:10B2780041F822300C4A039B03F5A27352F82320AD
:10B28800029B1B0203F47C519DF807301B0403F456
:10B2980040330B4304491A43039B03F5A27341F857
:10B2A800232000BF04B070470060004082B00190C6
:10B2B800054A019B03F5A27352F823301B0A03F0D9
:10B2C8003F03184602B070470060004082B001900A
:10B2D800064A019B03F5A27352F823301B0C03F0B6
:10B2E8000303DBB2184602B0704700BF006000409D
:10B2F80000B583B00190019B1B682F2B04D90B4923
:10B308004FF4E87004F094FD019B1B681F2B02D8D2
:10B318004FF0A04306E0019B1B6803F01F02019B4E
:10B328001A60034B184603B05DF804FB206E030057
:10B338000003005000B585B00190084611461A4632
:10B3480003468DF803300B468DF8023013468DF80E
:10B35800013001AB1846FFF7CBFF03909DF803209F
:10B368009DF802305B001A439DF801309B001A4398
:10B378009DF818301B0242EA03019DF81C301B049B
:10B38800019A1943039B02F5E07243F8221000BFAB
:10B3980005B05DF804FB00B585B003900B468DF849
:10B3A8000B309DF80B2000230193002300931346D4
:10B3B800002200210398FFF7BDFF00BF05B05DF82C
:10B3C80004FB00B585B0019001AB1846FFF790FF6C
:10B3D8000390019A039B02F5E07253F8223023F0A0
:10B3E80002030293019A039B02F5E072029943F863
:10B3F800221000BF05B05DF804FB00B585B00190D0
:10B408000B468DF8033001AB1846FFF771FF039028
:10B41800019A039B02F5E07253F82230019A23F453
:10B428004031039B02F5E07243F82210019A039B16
:10B4380002F5E07253F822309DF8032012041146F9
:10B44800019A1943039B02F5E07243F8221000BFEA
:10B4580005B05DF804FB00B585B0019001AB184656
:10B46800FFF746FF0390039800F020F80246019B7F
:10B4780022FA03F303F00103184605B05DF804FB54
:10B4880000B585B0019001AB1846FFF731FF039076
:10B49800019A039B02F5E07253F822301B0C03F06B
:10B4A8000303DBB2184605B05DF804FB82B00190D7
:10B4B800019BD3F81035184602B0704700B589B023
:10B4C800039002910192174A05AB92E8030083E8C2
:10B4D8000300039A029B1344022B04D9124940F239
:10B4E800F12004F0A5FC039B079311E0079B9B0048
:10B4F80008AA134453F80C3C1846FFF7D7FF024636
:10B50800019B1A60019B04330193079B0133079346
:10B51800039A029B1344079A9A42E7D300BF09B0E3
:10B528005DF804FB506E0300206E030084B00190A8
:10B538000091009B0393019BDB080293019B03F09E
:10B54800070301930122019B02FA03F30399029A6C
:10B558000A4412781340184604B0704784B001902A
:10B568000091009B0393019BDB080293019B03F06E
:10B5780007030193039A029B13441B785AB20121D3
:10B58800019B01FA03F35BB2134359B2039A029B7E
:10B598001344CAB21A7000BF04B0704782B0019059
:10B5A8000C4A019B1344303393F90030002B09DB1C
:10B5B800084A019B1344303393F90030072B01DC10
:10B5C800012300E0002303F00103DBB2184602B0B8
:10B5D800704700BF1833002082B00190064A019BD3
:10B5E8001344303393F90030072BCCBF01230023D9
:10B5F800DBB2184602B070471833002082B00190C1
:10B60800064A019B1344303393F90030DB43DBB225
:10B61800DB09DBB2184602B0704700BF18330020C0
:10B6280084B00390029101928DF80330029B59B2C5
:10B638000E4A039B134430330A461A700B49029B87
:10B64800019A41F823209DF8033083F00103DBB20F
:10B65800002B08D0029B083B039A51B2034A1344BB
:10B668000A4683F8602000BF04B0704718330020F2
:10B6780082B00190044A019B13443033FF221A70B0
:10B6880000BF02B0704700BF1833002000B583B078
:10B69800019004490198FFF761FF00BF03B05DF80E
:10B6A80004FB00BF7C33002082B00190044A019B58
:10B6B8001344303393F90030184602B0704700BF86
:10B6C8001833002082B00190034A019B52F82330BE
:10B6D800184602B0704700BF1833002000B589B083
:10B6E8000390029113468DF80730FF238DF81F3021
:10B6F8009DF80730002B01D0002300E008230593B4
:10B708009DF80730002B01D0082300E00C23049398
:10B71800059B069314E00F4A069B52F82330B3F1B9
:10B72800FF3F0AD19DF80730029A06990398FFF760
:10B7380077FF069B8DF81F3006E0069B01330693C2
:10B74800069A049B9A42E6D39DF91F30184609B021
:10B758005DF804FB1833002082B003468DF80730EB
:10B768009DF80730094A4FF0FF3142F823109DF841
:10B778000730072B07D99DF80730083B034A1344C5
:10B78800FF2283F8602000BF02B070471833002002
:10B7980000B583B0254B93F86A30002B03D00823FB
:10B7A8000193019B3EE000238DF8033009E09DF8EA
:10B7B80003301846FFF75CFF9DF8033001338DF81E
:10B7C80003309DF803302F2BF1D900238DF8033077
:10B7D80009E09DF803301846FFF7BEFF9DF80330D7
:10B7E80001338DF803309DF803300B2BF1D9062275
:10B7F80000210F4809F011FF06210620FFF77AFC07
:10B808000620FFF7A3FC4FF4BE70FFF7C7FC4FF00C
:10B818000040FFF7EBFC054B012283F86A20002368
:10B828000193019B184603B05DF804FB1833002010
:10B838007C330020044B93F86A30002B14BF01239B
:10B848000023DBB2184670471833002000B587B0D4
:10B85800039002910192039B2F2B04D936494FF490
:10B86800017004F0E5FA002305930398FFF7C6FE7C
:10B878000346002B02D00823059357E0029B9B78D0
:10B88800C3F34003DBB21A4601990398FFF726FF7A
:10B8980003468DF813309DF91330B3F1FF3F43D0C1
:10B8A800029B9B78C3F38003DBB283F00103DBB216
:10B8B800002B13D0029B9B7803F00103DBB2002B13
:10B8C80003D00398FFF77DFD05E0029B5B781946DE
:10B8D8000398FFF760FD0398FFF7D8FE029B9B785B
:10B8E80003F00203DBB2002B08D09DF91300029B82
:10B8F8001B781A460399FFF7A7FC17E09DF9133048
:10B90800083B0E4A134493F96010029B1B789B0175
:10B918005AB29DF91330083B0A4351B2074A1344FF
:10B928000A4683F8602001E004230593059B184626
:10B9380007B05DF804FB00BF606E030018330020F9
:10B9480000B589B001900B468DF80330019B2F2B71
:10B9580004D93D494FF40D7004F06AFA0198FFF7D5
:10B968004DFE0346002B04D1374940F2352004F040
:10B978005FFA0198FFF730FE0346002B2FD001989D
:10B98800FFF792FE0346083B304A134493F96030B0
:10B998008DF80F309DF80F309B098DF80E309DF80B
:10B9A8000E30032B0BD10198FFF755FD0346002BF2
:10B9B80001D0032300E002238DF81F3008E09DF832
:10B9C8000E30012B01D1022300E003238DF81F3034
:10B9D8009DF81F3019460198FFF70FFD30E00198D8
:10B9E800FFF7DCFD0346002B2AD00198FFF75CFE29
:10B9F80003460693069B9BB240339BB29B00ADF86F
:10BA08001630069B1846FFF709FCBDF81630184695
:10BA1800FFF7C4FB9DF80330002B11D00198FFF706
:10BA280043FE03461846FFF74DFE0490049B002B87
:10BA380006D00122069B02FA03F31846FFF7D6FB4D
:10BA480000BF09B05DF804FB606E030018330020E6
:10BA580000B583B00190019B2F2B04D9084940F20F
:10BA6800852004F0E5F90198FFF7F5FC0346002B63
:10BA780014BF01230023DBB2184603B05DF804FBB2
:10BA8800606E030000B599B00023149306AB002242
:10BA98001A605A604FF48073ADF84A300123169348
:10BAA8000023139321E0BDF84A301846FFF761FBE5
:10BAB8000346002B0ED01698FFF7A4FB0346002B75
:10BAC80008D0BDF84A301846FFF768FB149A169B51
