:100000000000042079030000610300006303000086
:1000100065030000670300006903000000000000A2
:100020000000000000000000000000006B03000062
:100030006D030000000000006F030000710300006A
:1000400073030000730300008D1B000073030000A6
:10005000251C000073030000E91900007303000071
:1000600073030000730300007303000073030000B8
:1000700073030000730300007303000073030000A8
:1000800073030000F10E000073030000730300000F
:100090008D0F000073030000730300007303000062
:1000A0007303000073030000730300007303000078
:1000B0007303000073030000000000000000000054
:1000C0007303000073030000730300007303000058
:1000D0007303000073030000730300007303000048
:1000E00073030000730300007303000000000000AE
:1000F0000000000073030000000000007303000014
:1001000000000000000000000000000000000000EF
:1001100000000000000000000000000000000000DF
:1001200000000000000000000000000000000000CF
:1001300000000000000000000000000000000000BF
:1001400000000000000000000000000000000000AF
:10015000000000000000000000000000000000009F
:10016000000000000000000000000000000000008F
:10017000000000000000000000000000000000007F
:10018000000000000000000000000000000000006F
:10019000000000000000000000000000000000005F
:1001A000000000000000000000000000000000004F
:1001B000000000000000000000000000000000003F
:1001C000000000000000000000000000000000002F
:1001D000000000000000000000000000000000001F
:1001E000000000000000000000000000000000000F
:1001F00000000000000000000000000000000000FF
:10020000364937480A1A02D0072291438D463549AC
:1002100035480A1A06D00722914381F30988022241
:1002200082F3148831483249324A00F045F83248A6
:100230003249334A00F040F832483349334A00F03B
:100240003BF833483349344A00F036F833483449F0
:10025000344A00F031F834483449354A00F02CF87B
:1002600034483549354A00F027F8354835490022E9
:1002700000F02DF834483549002200F028F83448C1
:100280003449091A082903DB0022026004300160A6
:10029000314A90471F482049884205D002680430FF
:1002A00003B4904703BCF7E700208646EC460020E5
:1002B00000212A4A9047FEE7884207D0521A05D00B
:1002C000037801300B700131013AF9D1704788424F
:1002D00002D002700130FAE77047000000000420ED
:1002E00000E003200000042000000420283100006A
:1002F000000000203C000020D8030000D8030000CC
:10030000BA2C00002831000000000020000000206E
:10031000102D0000102D0000102D0000102D0000E9
:10032000102D0000102D0000102D0000102D0000D9
:1003300028310000643100003C0000203C00002017
:100340003C0000203D08002040080020400800201C
:100350004008002040280020A1030000452800009C
:10036000FEE7FEE7FEE7FEE7FEE7FEE7FEE7FEE765
:10037000FEE7FEE7704700BF1048804710484FF087
:100380000701884385460F4880470F48016841F4BC
:1003900070010160BFF34F8FBFF36F8FFFF730BF66
:1003A0000A480B490B4A884207D0521A05D00378F5
:1003B00001300B700131013AF9D17047750300002B
:1003C000000004203129000088ED00E0102D00001D
:0803D0000000002000000020E5
:1003D800F0B595B01C46164608460D4601F013FACE
:1003E8001A9B0D93CDE9086400242346082205A929
:1003F80028460A948DF82C400C9401F022FA079BA9
:100408000293BDF81830ADF80C30BDF81A30ADF8CD
:100418000E309DF814308DF8114003F00302012AC4
:100428001DD1BDF81440059EC3F3C203C4F3831461
:100438008DF81030A20008230EA9284601F001FA11
:10044800C6F3952608AB0093224602AB0EA93046A8
:1004580000F0C4FB284601F0DAF915B0F0BD022A15
:10046800F8D1BDF81640C3F3C203A4098DF81030C3
:100478000827082C264628BF08263B4632460EA9E0
:10048800284601F0DEF9A41B08AB02AA31460EA8E3
:10049800374400F007FC002CEBD1DBE7014B0122CD
:1004A8001A7070477D0000207047000070B50E4D2F
:1004B80006460FCD88B06C460FC495E80F0084E857
:1004C8000F0008A9002E4FF00603084A41F8203D06
:1004D80008BF0022064801F013FA08B100F095FCA5
:1004E800044B1E7008B070BD102D0000A50400005C
:1004F800000000203C00002007B5044B0093044A8C
:100508004023FFF765FF03B05DF804FB1D050000FD
:100518003D00002038B50D4B0D4D002018700D48DA
:1005280004782D5DD2B21C4665B1043002F020F982
:1005380008B100F06AFC084B1A7812B12378002B36
:10054800FBD038BD0C3001F0F1FEF1E77D00002052
:1005580050070020000000203C00002008B5084893
:10056800084A0378D35C3BB1043002F0ABF80020B2
:10057800BDE80840FFF79ABF0C3001F081FEF6E7AE
:1005880000000020500700200120FFF78FBF000067
:1005980008B5FFF7F9FF0421034800F08DFA034B73
:1005A80001225A7108BD00BFEC2C00001400002085
:1005B800037813F0040216D003F00303012B03D0D1
:1005C800022B09D0012070470A6800880232C0F364
:1005D800831002440A60F5E70B684288023303EB94
:1005E80092130B60EEE71046704700002DE9F04FBC
:1005F800484C87B00F460546861C0020019200F043
:1006080029FE23683B60D4E901231344226801339F
:100618009B1A04F21C4704F5836A04F21448B34297
:1006280019D3019A0023002A6CD0012262F3010336
:1006380043F0040365F389132168A2680A40033272
:100648000E44002044F82230266000F005FE012008
:1006580007B0BDE8F08F0121384600F01FFE504674
:1006680000F032FE404600F02FFE0DF118096068D8
:10067800D4F808B049F8100D00EA0B00033004EB79
:1006880080004946FFF794FF029BB0B90BEA0302CA
:1006980004EB8202D16803919A1C013303EA0B0B25
:1006A80004EB8B0C01F00303012B0292DCF80CB075
:1006B80020D0022B04D083460BE00BEA0300DDE7D1
:1006C800BDF80E309B0903334FEA1B4B02EB930333
:1006D8000293404600F0FBFD08B1029B6360594657
:1006E800384600F0DBFDD4E90123134422680133C6
:1006F8009B1A94E7BDF80C30C3F383134FEA1B4BE6
:100708001344E5E7022262F3010343F0040365F3AF
:100718009F5391E7500100200B4B0C48FF2210B566
:100728009A600022C3F81824C3E90022C3F81424ED
:1007380083F8202401F020F8044610B9044801F099
:100748008BF8204610BD00BF50010020FC2C000093
:10075800502D000030B50A4C71B10A4A0A49121BE3
:10076800D20800239A4201D1002030BD31F823502D
:10077800854202D00133F5E7034654F83300F4E725
:10078800BC2C0000EC2C000000000020094B0139B3
:1007980003EBC000032909D8DFE801F00A020406C8
:1007A80004207047007970474079704700207047EF
:1007B80002207047BC2C0000034BD3E90030C31A59
:1007C80058425841704700BF500100202DE9F043BE
:1007D80085B0FFF7F1FF0646002840F0F9807D4D0F
:1007E800C5F81804BFF34F8F6868AC6804AF47F8C2
:1007F800100D2040033005EB80003946FFF7D8FE86
:10080800009B18B1D5F81824002A5FD004EA030227
:10081800991C013305EB8202234005EB8303D26860
:10082800DB68029302F00303022B0192009162D16C
:10083800BDF8063068484FEA9318B8F1500FC14622
:1008480028BF4FF0500969F38F1309F10801ADF87B
:10085800063000F0A9FF0746002800F0A48000F049
:10086800D2FF01A900230822384600F0DFFF0099D3
:1008780024EA01060136B600B14535D95FFA89F98F
:100888007EB3F6B2A9EB0609214003315FFA89F479
:10089800B146524E05EB810108234A46384600F01E
:1008A800C5FF36B109F1080322463146384600F043
:1008B800BDFF009B08F1030803EB98030093D5F8EC
:1008C8001834002B4BD1D5F810445BE02A689A42C3
:1008D80004D86A60304605B0BDE8F08304EA030036
:1008E80088E73E493446D7E72140033108234A4682
:1008F80005EB8101DAE7012B55D1BDF80430364804
:10090800C3F38311062928BF062161F38913023135
:100918008900ADF8043000F047FF0746002842D0B0
:1009280000F071FF0023082201A9384600F07EFF7D
:100938000026BDF80420C2F38312B31C96424FEA86
:100948008303BCD200994A1C21400331009205EB75
:1009580081010422384600F069FF0136E9E738468C
:1009680000F055FFFFF728FF80F00100C6B2B1E79D
:10097800E3685B7923B1236839461B6820469847AA
:10098800E3681C68002CF3D1384600F040FF20468D
:1009980000F060FCD5F818340BB9009B6B600020A0
:1009A80000F05AFCDEE7D5F8104454B90C4B0D485A
:1009B8000D49C01AC008000440F0020000F06EF8AB
:1009C800D0E7236820469B689847E3681C68ECE7F3
:1009D80000267FE750010020FC2C00005C0100206D
:1009E800BC2C0000E42C00005C2D00002DE9F74F22
:1009F800284C80460F46924601A9012218469B467C
:100A0800D4F80890FFF7F2FD88B3019D0026A91CD1
:100A18005E4506EB010234D100211F4800F01EFCA0
:100A280080F310006A1C02EA090204EB8202000447
:100A380005EA0903033340EA1840D06014F823207C
:100A480068F3C50204F8232034F8232066F38912DA
:100A580024F8232054F82320012167F39F2244F827
:100A6800232061F301026FF3820204F8232094F833
:100A780020341BB1FFF7AAFE0028FBD103B0BDE864
:100A8800F08F09EA020204EB82025AF82630D3609A
:100A98000136BDE7500100206C05002000231A46EE
:100AA800FFF7A4BF13B502AC012344F8042D224676
:100AB800FFF79CFF02B010BD30B50F49D1F81024E4
:100AC800002314463CB9C468237152B9C1F8100414
:100AD8002260184630BDE46825799D4206D0246816
:100AE800F0E7D268116821601060F2E701330A2B41
:100AF800E7D14FF0FF33ECE750010020094A38B541
:100B08000123D2F8104482F820341D4604B938BDB8
:100B1800E3685D71236820465B689847E3681C6852
:100B2800F4E700BF50010020037A052B10B50C46EE
:100B38000FD0437A23B1084A0849204600F021FC27
:100B48000749204600F01DFC2046BDE8104000F093
:100B58000DBC002AF8D0F3E7A72D0000E32E000013
:100B6800C92D0000C38873B504460D4633B1144A35
:100B780000921449144A284600F003FC217A0529FA
:100B88001CD0637A4BB1A088FFF700FE0F4B1049C9
:100B980053F82020284600F0F4FB227A0D4BA08859
:100BA80053F822600021FFF7D5FD0B490346324672
:100BB800284602B0BDE8704000F0E3BB02B070BD4B
:100BC800A72D0000B42D0000AC2D0000742D0000EE
:100BD800E32E0000D82D0000CC2D00002DE9F043B5
:100BE80085B01F460C9D002306460C46904695F896
:100BF8000C902B7329463846FFF7B4FFB8F1060F5F
:100C080009D8DFE808F00412181F283340003146DD
:100C1800284600F0B6FB002229463846FFF784FF35
:100C280085F80C9005B0BDE8F08322683146284667
:100C380000F0A7FBEFE7D4E900233146284600F08F
:100C4800A0FBE8E7A36800933146D4E900232846CF
:100C580000F097FBDFE7E3680193A3680093314650
:100C6800D4E90023284600F08CFBD4E723690293DB
:100C7800E3680193A36800933146D4E9002328462A
:100C880000F07FFBC7E76369039323690293E36876
:100C98000193A36800933146D4E90023284600F065
:100CA80070FBB8E708292DE9F84F80460E4617462D
:100CB8001C4636D8002593F80C901D73194610462B
:100CC800FFF750FFDFF87CA0DFF87CB0AE422AD9EE
:100CD80018F805205946204600F053FB0135082D29
:100CE800F4D11649DFF864B0204600F04AFB00252D
:100CF800AE421DD918F805A0504601F049FF00285A
:100D080014BF52462E225946204600F03AFB0135C0
:100D1800082DEDD1012221463846FFF705FF84F85A
:100D28000C90BDE8F88F5146204600F02AFBD5E725
:100D38000349204600F025FBE9E700BFA22D00008B
:100D4800A02D00009E2D0000982D0000A42D00006D
:100D5800074B1B5C1F2B86BF03F01F0305494FF091
:100D6800A041012202FA03F3C1F80835704700BF19
:100D7800372E00000003005008B50020FFF7E8FFF9
:100D88000120FFF7E5FF0220FFF7E2FF0320BDE89F
:100D98000840FFF7DDBF00000A4B185C1F288ABF18
:100DA800094B4FF0A04300F01F00D3F804250121A0
:100DB800814021EA02000A40C3F80805C3F80C255F
:100DC800704700BF372E000000030050C20710B55F
:100DD80004460CD54FF0A0430322C3F83427C3F8C8
:100DE8003827C3F83C27C3F84027FFF7C5FFA307F8
:100DF8000AD54FF0A0430C22C3F82C27C3F830279C
:100E0800C3F86027C3F8642710BD1FB500210390FD
:100E180001AA44F20100CDE9011100F003F805B080
:100E28005DF804FB10B572B6FFF768FEFFF7CEFC5D
:100E38000028FBD1104B114C1149E41AE408240492
:100E480044F00100FFF72AFE0E4B1B68DB0700D5B4
:100E580000BE0D4944F00200FFF720FEBFF34F8F9C
:100E68000A490B4BCA6802F4E0621343CB60BFF334
:100E78004F8F00BFFDE700BFBC2C0000E42C000032
:100E88003B2E0000F0ED00E0472E000000ED00E0F2
:100E98000400FA05024B4FF43C6043F00103184785
:100EA800602E000038B50C4B0C4C4FF40032C3F8E0
:100EB800802001254FF48033C4F84833C4F8083340
:100EC8006560FFF7E7FF064BA56000241C60FFF78D
:100ED800E1FF044B1C7038BD00E100E00010014048
:100EE8002807002019070020F8B51F4B1F491B6869
:100EF8000025C1F84051C1F84451C1F84851C1F822
:100F08004C51C1F80051C1F804514BB3D1F8044514
:100F180017490968641A24F07F442F461A68A242C8
:100F280009D8A41A15441A7CDE691AB11F74D3E9CA
:100F380005209047AEB90F4B0F4A197813788B42AA
:100F480005D10133DBB2022B08BF002313701278DE
:100F58000A4B43F822500A4B4FF48012C3F8002181
:100F6800F8BD3346DAE700BF2C0700200010014027
:100F78002807002024070020250700201C07002040
:100F880000E100E02DE9F74F9E4A9F491378097860
:100F98009E4D99423CD00133DBB2022B08BF00239F
:100FA80013709B4912789B4B0F6853F822003B182B
:100FB80023F07F4300220B602B68164614469446A4
:100FC80013B942B12B6006E0196881420ED902B10B
:100FD8002B60091A19604FF001082B68DFF83CA252
:100FE80000930027BEB9DFF83CB260E0401A0C4419
:100FF800D968C3F800C0D3F81CE031B13A1922F01F
:101008007F42C3E90121DE611E4601227346D7E70C
:101018000026B046E1E73446F6697D4A63681268FF
:10102800DFF804C2A068991A21F07F41614500F2F7
:10103800A58001442160012222742A680023C4E9A2
:101048000133E361002A40F0A2802C60CAE75A1CF1
:101058009BF80210D2B291428BF8002004BF002204
:101068008BF80020182202FB03B32A6819799C68C0
:10107800022974D003297ED0012918D1217CB1B965
:10108800DA6862601A69A2605A699B69A361624B57
:10109800E2601B78002BC0D06160BEE79C4200F084
:1010A80093809946DB69002BF8D1002323749BF8C1
:1010B80000309BF801209A42C9D12B682FB9009AB9
:1010C800934202D1B8F1000F43D0002B79D0D3F866
:1010D80000A0524D4E4BD5F804751C68DFF84C81C2
:1010E8003E1B98F8003026F07F4603369BB94FF434
:1010F8008033C5F84433C5F80433494B4FF4003204
:101108004FF00109C3F880211A60C5F80090FFF775
:10111800C1FE88F80090B2452CBF5444A41924F0AD
:101128007F44C5F84045D5F80435DB1B23F07F43E1
:10113800E41B033324F07F44A3420AD9D5F80435CD
:10114800C5F84035FFF7A6FE354B4FF40032C3F81B
:101158000021314B00221A7003B0BDE8F08F13460E
:101168009146A0E71174D2690123002AFAD1002B15
:101178009DD02A609BE700231946F6E7D31A23F08F
:101188007F43834234BFC31A0023236053E7216897
:101198001368994213D8591A1160E26155E7091A80
:1011A800D8691A4638B1034618688842F7D3401AF6
:1011B8001860184613462160E061DC6112E71346A7
:1011C800F2E7FFF76FFEC4E74C450DD1D3692B60FA
:1011D80053B90F4801920121CAF8081003600E4B59
:1011E8001970FFF757FE019AE1692368C9F81C10C6
:1011F80011B1086803440B602B689A4218BF012795
:1012080053E700BF24070020250700202C070020F3
:10121800280700201C0700201807002000100140A4
:1012280000E100E00C060020FEFF7F001907002007
:1012380072B6024A13680133136070473007002002
:10124800034A1368013B136003B962B6704700BFD5
:1012580030070020FFF7ECBFFFF7F2BF50E8002F80
:101268000B4640E8003C9CF0000FF7D11046704751
:1012780050E8003F43EA010240E8002C9CF0000FD0
:10128800F6D11046704750E8002F02EA010340E803
:10129800003C9CF0000FF6D11046704750E8003F24
:1012A80003EB010240E8002C9CF0000FF6D1104639
:1012B800704750E8003FA3EB010240E8002C9CF087
:1012C800000FF6D1104670470121FFF7D1BF00216A
:1012D800FFF7D9BF10B590B1D0E9012301689B1A77
:1012E800DBB20A60013BDBB2FF2B026802D10020AF
:1012F800107110BD11684C1C14600B70F2E70E20C1
:10130800F7E738B504460020FFF7A4FF22686368B2
:101318001168994213D9481E106011F8015CE368FE
:10132800218A01FB0535A36811791B1ADBB29942A2
:1013380000D213710020FFF78FFF284638BD002523
:10134800F8E738B5054600200C46FFF783FF2A6802
:101358001368591C1160E968641A298AB4FBF1F40E
:101368001C700020BDE83840FFF776BF826810B5D2
:1013780004462AB143690168006998470023A360BD
:1013880010BD0EB403B5039929B102AA04AB42F803
:10139800043D00F06BF802B05DF804EB03B0704751
:1013A800826830B40468551C8560A154D0E90132C4
:1013B8009A4202D330BCFFF7D9BF30BC7047000057
:1013C8002DE9F84F9946DDE90A43174682468846D3
:1013D8000A460126BA420FD24E4538BF4E4613F090
:1013E800010B01D164B900240125B9F1010F1AD903
:1013F80009F1FF397D43F8E7B2FBF7F20136E9E777
:101408009B070ED5B9F1000F0CBF30252025A64249
:10141800EAD2013C29465046FFF7C2FF002CF6D11C
:10142800E1E72025F3E7B8FBF5F39F42E2D9DFF8BF
:101438003890B8FBF5F3504619F8031005FB1388EC
:10144800FFF7AEFFB5FBF7F5002DF2D1BBF1000FAA
:1014580002D00CB1A64201D3BDE8F88F2021504636
:10146800013CFFF79DFFF4E7662E00002DE9F74FDA
:10147800054690460E46002900F03A8116F8011BF1
:10148800002958D0252940F0D180002702E047F0F4
:1014980001071646324612F8013B2D2BF7D0302BA8
:1014A80004D02B2B05D147F00407F2E747F00207D9
:1014B800EFE700242A2B06F101021BD1D8F80030EF
:1014C800191D1B68C8F800101C44164633782E2BCB
:1014D8001CD101364FF0000A314611F8012BA2F158
:1014E8003000092814D80A2303FB0A23A3F1300A81
:1014F8000E46F1E712F8013CA3F130010929E5D8BD
:101508000A2101FB0434303C1646D3E74FF0000AA9
:10151800324612F8011B01F0FB0068281646F8D085
:10152800692916D054D8582970D00ED825297DD0CD
:101538003378002BA2D12B7B002B00F0D9802846D2
:1015480003B0BDE8F04FFFF711BF632968D06429E5
:10155800EED1D8F80020D2F80090111D89EAE9727E
:10156800C8F80010A2EBE9724FF0010B092A61DC00
:10157800D34538BFD3462CB1B9F1000F01DB790749
:1015880000D5013CBA0702D5BAF1000F04D0FB0719
:1015980002D4002C54D10024B9F1000F58DAC9F153
:1015A80000092D212846FFF7FBFE07F00302022A57
:1015B80005D1BAF1000F02D1002C4DD10024CDE99C
:1015C800004753460A2249462846FFF7F9FEAFE787
:1015D800732954D016D87029AAD1D8F800301A1D0A
:1015E800C8F80020302128461C68FFF7D9FE78216A
:1015F8002846FFF7D5FE00220823CDE90032214610
:101608001022E1E775292FD0782991D1D8F8001058
:101618000A1DC8F80020CDE90047534610222CE0E7
:10162800D8F800301A1D1978C8F800202846FFF7A6
:10163800B7FE7DE70A230BF1010B92FBF3F295E766
:10164800A345A9D220212846013CFFF7A9FEA0E71F
:101658007807AAD52B21A5E7A345B0D23021284683
:10166800013CFFF79DFEA7E7D8F80010CDE9004739
:101678000A1DC8F8002053460A220968A4E7D8F8CA
:1016880000301A1DC8F80020F907D3F8009012D5C9
:101698004F46A7EB090B17F8011B41B9A345BFF447
:1016A80047AF20212846013CFFF77AFEF6E7284697
:1016B800FFF776FEEDE7B9F1000F17D0484601F0C5
:1016C800C8FA0746BC4200D954B909F1FF3919F8DC
:1016D800011F00293FF42CAF2846FFF761FEF6E70B
:1016E80020212846013CFFF75BFEEBE74F46E9E780
:1016F80003B0BDE8F08F2DE9F047B0F806904479C3
:10170800D2F800A09DF8208009FB04F4043C0646AA
:101718000AEB0300A0420F4688BFA4EB030A191D79
:10172800C2F800A0B1FBF9F509FB15114DB9A9EBF9
:101738000104544528BF5446BAF1000F04D1BDE84E
:10174800F0873668013DF1E704317B1970182246AD
:10175800B8F1000F0ED001461846AAEB040A01F0B2
:101768001CFAD145254436684C464FF0000128BF85
:101778005446E1E71946F0E7FFF7ACBDF8B54679FE
:101788000146721E0546002393422D6803D30024A8
:10179800A64202D8F8BD0133F6E70F682846FFF7DE
:1017A800D0FD01343946F3E72DE9F843068ACD1C0C
:1017B8000746FFF7A6FD043E35440446B5FBF6F59B
:1017C800F0B14FF48073EDB28380C680013D0760AD
:1017D80081464FF00008A84512D23846FFF791FD20
:1017E800064648B163790133637108F10108C9F805
:1017F800000007608146EEE72046FFF7BFFF34464A
:101808002046BDE8F88301210430FFF747BD10B535
:10181800012104460430FFF74CFD10F0FF0F04D1FE
:101828002046BDE81040FFF7A9BF10BD1FB504ACA6
:1018380044F8042D002200922246FFF75CFF04B012
:1018480010BD1FB504AC44F8042D012200922246B5
:10185800FFF751FF04B010BD836800225A609A60F8
:10186800C3E90422DA601A6070470000024B53F89B
:10187800213007C8184700BF3407002010B4044CB3
:10188800037944F82320034A5DF8044B00F006BAB4
:1018980034070020751800001FB503788DF8003054
:1018A80043680193037A8DF80830C3680393054AA7
:1018B800054B684653F8213052F82110984705B077
:1018C8005DF804FB40070020480700201FB5037897
:1018D8008DF800304368019383688DF80830C36839
:1018E8000393054A054B684653F8213052F82110F6
:1018F800984705B05DF804FB400700204807002022
:10190800F0B5194B0678DFF870E043F82620174B3E
:1019180094460A6943F826204B7F0EF806300C4699
:1019280007460FCC89B06D460FC594E80F0085E8CF
:101938000F001EF80630049653B1BCF1000F0C4A94
:10194800694608BF0022381D00F0DAFD09B0F0BD75
:10195800BCF1000F074A694608BF002207F10C00D6
:1019680000F0B4FBF2E700BF480700204007002062
:10197800A1180000D51800005007002000F1804091
:1019880000F5C040002382B0036003680193019B07
:1019980002B0704703681F2B83BF03F01F03036067
:1019A80001484FF0A04070470003005007B502AB54
:1019B80043F8040D1846FFF7EDFF019B00EB830089
:1019C800D0F8003723F44033C0F80037D0F8003798
:1019D80043EA0141C0F8001703B05DF804FB0000BA
:1019E8002DE9F04F002489B0CDE902445F4A604EEA
:1019F800604D01211368A2F5C040012B80B206D1C9
:101A0800D6F804330B4202D0FFF7B8FF0C43043278
:101A1800AA424FEA4101EDD1574B1B68012B0ED169
:101A28004FF4BE70FFF7AAFF4FF0A04344F0004404
:101A3800D3F810350293514BD3F81035039314F0B3
:101A4800FF0F1AD04E4F00250126344210D0AB00AC
:101A580003F1804303F5C043D3F81005D3F81015FC
:101A680057F82530C0F30520C1F3014103B1984769
:101A78000135082D4FEA4606E7D1002C72DA04AE8C
:101A88000023049373604FF0FF33CDE906333C4FD6
:101A98004FF0010800252C467B1993F96020531C50
:101AA80047D0D2B222F0C00908A84FEAD90300EB08
:101AB800030B02F007011BF8080C08FA01F10842B1
:101AC80037D007EB0900920990F9300057F820A0A9
:101AD800BAF1000F05D1032A2BD1F05C0843F0546A
:101AE80001E0032AF9D001A8CDF80490FFF752FFCE
:101AF800019B03F5E07350F823301BF8180C0842DB
:101B0800C3F3014305D0022B13D1032A0BD111468D
:101B180004E0032B0DD1032A05D102214846FFF723
:101B280045FF0134E4B2BAF1000F02D0114648462D
:101B3800D0470135042DAFD1A4B14FF0A04302998D
:101B4800D3F8102503F540739142D3F8103502D12C
:101B58000399994206D002920393049A059B069230
:101B6800079397E709B0BDE8F08F00BF0061004018
:101B780000600040206100407C610040000300508C
:101B880054070020014B1B68184700BFC0070020FE
:101B980038B50A4B98420D460CD10020FFF75AFB86
:101BA800074B1C7914B901221D601A710020FFF738
:101BB80053FB0CB9002038BD1120FCE70020004081
:101BC800C0070020034B984201BF034B00221A6054
:101BD8001A71704700200040C00700201FB54B7DD8
:101BE800DBB2022B07D0032B0FD0012B00D14362AD
:101BF80005B05DF804FB00238DF8043002930393CD
:101C080001A88B6889699847F2E701238DF80430A9
:101C1800D0F83C350293D0F84C35F0E713B54FF0C7
:101C28004020D0F82831DBB1194B1A4900221A603C
:101C38001B680093009B4B7DDBB2012B10D10A6817
:101C4800CC68C0F84445C0F848254A680C69C0F813
:101C58003445C0F83825836202234B75FFF7BEFF71
:101C68004FF04020D0F8043183B10B4B09490022D2
:101C78001A601B680193019B4B7D022B06D103233D
:101C88004B7502B0BDE81040FFF7A8BF02B010BD09
:101C980028410040C8070020044100402DE9F04FCA
:101CA80085B091460679754A01931C2303FB0623E8
:101CB80080461B7D0D469246002B40F0D9800B7C58
:101CC800032B00F2D78004686D492046FFF760FFB8
:101CD800002840F0D1802B68FF2B00F0BD801F2B1F
:101CE800E97C87BF674F03F01F021A464FF0A047F1
:101CF80002F5E072090247F822106968FF2900F02E
:101D0800AE801F298BBF01F01F020A465D4F4FF0BE
:101D1800A04702F5E0724FF0000C47F822C0EA68CD
:101D280095F812C01F2A8BBF02F01F071746DFF86D
:101D380054E14FF0A04E07F5E0774FEA8C0C4EF8CF
:101D480027C0D5F808C0BCF11F0F8BBF0CF01F0EC1
:101D5800E646DFF830B14FF0A04B0EF5E07E0027E5
:101D68004BF82E70C4F808C5C4F81015C4F80C3523
:101D78006B7CC4F814252A7CC4F83475DB1B18BFA7
:101D88000123022AC4F83875C4F84475C4F84875A4
:101D980068D0032A69D0012A01D143F00203C4F8AC
:101DA80054352B7DC4F85C356B7DC4F8C0350022F2
:101DB800C4F80421D4F804310393039BC4F8282100
:101DC800D4F828310293029BD4F8003243F004037C
:101DD800C4F800321C2303FB06AA019B8AF81520CD
:101DE800D8F80020CAF81830120B40F20243C4F8A1
:101DF8000433CAF8089053B2A97D002BA8BF03F199
:101E08006045D2B24FEA53134FEA4111BABF02F00C
:101E18000F071D4D05F561454FEA8303B4BFC9B2ED
:101E2800C9B203F16043B4BFE95585F8001303F55F
:101E38006143012102F01F0201FA02F2C3F8802176
:101E48001A600E4B1C2202FB063602233175C4F8B9
:101E5800003505B0BDE8F08F4FF0FF334DE74FF088
:101E6800FF315CE743F0040399E743F0060396E784
:101E78000820EEE70720ECE71120EAE7C807002072
:101E8800251C00000003005014ED00E070B5047933
:101E9800049D3CBBB5F5803F24D2B2F5803F21D2EA
:101EA80021B101F06044B4F1005F1DD123B103F00A
:101EB8006044B4F1005F17D10D4C667D032E03D842
:101EC800DFE806F004140404032070BDC4E903131A
:101ED800012322600068656005496375FFF77EFE8F
:101EE8000020F2E70920F0E71020EEE70820ECE7F1
:101EF800C80700200023435082B043580193019B38
:101F080002B070470A4610B54FF48E71FFF7F2FF22
:101F1800136A9168C95C136A01331362C0F81C150F
:101F280010BD8B690A4610B54FF4847123B9FFF7C9
:101F3800E1FFD0F8183510BDFFF7DCFF536AD16810
:101F4800D0F81805C854536A01335362F3E7000008
:101F58001FB501238DF80030044BCDE90110D3E9FA
:101F680000126846904705B05DF804FBE4070020BE
:101F780030B54C4AD2F8043313F4007F85B01546C7
:101F88004FD0D2F82431002B4BD04FF49271104629
:101F9800FFF7B0FF4FF40173C2F80833424B93F8D0
:101FA800291009B9012151603E4902228DF800200B
:101FB800D1F88024C1F8802403929A690292DA68E1
:101FC80001920022C3E906226846D3E9001290472D
:101FD8003448D0F81C315BB133490A6A4B699A42DC
:101FE8000A464BD291F82830002B47D1FFF78AFFD9
:101FF8002C4AD2F8443193B14FF4A2711046FFF73E
:1020080079FF294B93F8291009B1012111609A69C8
:102018002AB100229A61586AD968FFF799FF05B07A
:1020280030BDD5F804335B07D2D5D5F80831002B7D
:10203800CED01D4C1B482146FFF773FF636AA26987
:102048009A422346C4D1E269E1684AB12369E36050
:102058000023606AA261E3616362FFF779FFB7E773
:1020680094F829200AB901226A600E4A4FF40170D7
:10207800C2F8080300229A61586AEEE74FF48E719D
:102088000848FFF737FF51690029B1D000230291B2
:1020980091688DF80030019153616846D2E90013C8
:1020A8009847A5E700200040E40700201F2886BFC6
:1020B80000F01F00044B4FF0A04300F5E07002222F
:1020C80043F82020704700BF000300502DE9F84373
:1020D800664B047991462C2202FB0432064692F89C
:1020E8002A200D469846002A40F0BC8060490068C6
:1020F800FFF74EFD0746002840F0B68029684A1CC5
:1021080010D01F2987BF01F01F035A4A0B464FF012
:10211800A0420120984003F5E073C2F808050320A7
:1021280042F823006868431C0DD01F288BBF00F0BD
:102138001F0303464F4A4FF0A04203F5E0734FF0E8
:10214800000C42F823C03368AA6995F814C0C3F894
:1021580024256A7DBCF1010F4CEA0202C3F86C2504
:10216800C3F81405C3F80C152BD1A968481C0DD069
:102178001F298BBF01F01F020A463E484FF0A040BE
:1021880002F5E0724FF0000C40F822C0E868421CEB
:1021980013D01F2887BF00F01F0C364A84464FF023
:1021A800A0424FF0010E0EFA0CFE0CF5E07CC2F8CE
:1021B80008E54FF0030E42F82CE0C3F80805C3F811
:1021C80010152C23634308EB0302C2F804902A6914
:1021D80048F80320B9F1000F31D04FF48E71306800
:1021E8002D7FFFF787FE30684FF4A271FFF782FE5C
:1021F8003268214BC2F80433120B53B2002BA8BF2C
:1022080003F160404FEA53134FEA4511BABF1B4828
:1022180002F00F0500F561404FEA8303C9B203F1EC
:102228006043B4BF415580F8001303F5614302F0E1
:102238001F02012101FA02F2C3F880211A603368F3
:102248000422C3F800252C2303FB04830022C3E9DE
:10225800062283F829205A61012283F82A20384669
:10226800BDE8F8830827FAE71127F8E7E407002014
:10227800791F0000000300508000020014ED00E008
:102288002DE9F04103680479254D0022C3F80025A3
:102298002C2202FB04520646526872B1214AC3F846
:1022A8000823190B4AB20120520901F01F0100FA54
:1022B80001F120321C4840F82210D3F80C05D3F85D
:1022C8001485D3F80815D3F810754FF0FF329042F3
:1022D800C3F81425C3F80C25C3F80825C3F810253E
:1022E80001D0FFF7E3FEB8F1FF3F02D04046FFF709
:1022F800DDFE7A1C02D03846FFF7D8FE4B1C02D010
:102308000846FFF7D3FE3068FFF75CFC2C2303FB7D
:102318000454002384F82A306360BDE8F08100BFCC
:10232800E40700208402020000E100E02DE9F84300
:10233800224F06794FF02C0909FB0674804665691F
:10234800002D37D16261A16025624FF48E7100685B
:1023580084F82850FFF7CEFDD8F8000001238360E9
:102368002146FFF7CFFD6368A1462BBBD8F8005084
:10237800226A63699A4212D3D8F80030D3F81C2134
:10238800002AFBD00122DA6000202C2303FB06760A
:1023980000237361BDE8F88394F8283043B9D5F871
:1023A8001C31002BF8D049462846FFF7ABFDDFE784
:1023B8000F20EAE71120EDE72846EBE7E4070020C5
:1023C8000023435082B043580193019B02B07047E9
:1023D8001FB501238DF80030054B8DF808000191D9
:1023E8006846D3E90012904705B05DF804FB00BFCA
:1023F800100800207FB5384AD2F82461002E49D051
:1024080010464FF49271FFF7DBFF02238DF800307E
:10241800D2F88034C2F880340393D2F83C358DF872
:1024280008302E4BDA6801920022C3E9062268467A
:10243800D3E900129047284AD2F8443173B14FF4D7
:10244800A2711046FFF7BCFF244B996931B10021F6
:102458009961D2F83C05D968FFF7BAFF1E4AD2F84D
:102468002031ABB14FF490711046FFF7A9FF1B4B19
:10247800596969B1D2F84C158DF80810002299688D
:102488008DF8002001915A616846D3E900129047FF
:1024980004B070BDD2F81031002BCCD04FF4887145
:1024A8001046FFF78DFF0D4BD2F83C05996988421D
:1024B800C1D1DC69D96864B1D2F8005225F0200591
:1024C800C2F800521A699C61DA60DE61FFF780FF8A
:1024D800B1E79C61FAE700BF002000401008002027
:1024E8001F2886BF00F01F00044B4FF0A04300F5E3
:1024F800E070022243F82020704700BF000300501C
:102508002DE9F8436A4B06799146242202FB0632EC
:10251800044692F820200D469846002A40F0C480D0
:1025280064490068FFF734FB0746002840F0BE8086
:102538002868421C10D01F2887BF00F01F035E4A7E
:1025480003464FF0A0420121994003F5E073C2F819
:102558000815032142F8231069684B1C0DD01F2968
:102568008BBF01F01F030B46534A4FF0A04203F5FF
:10257800E0734FF0000C42F823C02368AA6995F86D
:1025880014C0C3F824256A7DBCF1010F4CEA02028D
:10259800C3F86C25C3F80C05C3F814152BD1A9682A
:1025A800481C0DD01F298BBF01F01F020A46424864
:1025B8004FF0A04002F5E0724FF0000C40F822C046
:1025C800E868421C13D01F2887BF00F01F0C3A4A46
:1025D80084464FF0A0424FF0010E0EFA0CFE0CF5A7
:1025E800E07CC2F808E54FF0030E42F82CE0C3F88F
:1025F8000805C3F810152423734308EB0302C2F837
:1026080004902A6948F80320B9F1000F3BD04FF431
:10261800887120682D7FFFF7D3FE4FF490712068F2
:10262800FFF7CEFE4FF492712068FFF7C9FE2068CD
:102638004FF4A271FFF7C4FE2268204BC2F804339E
:10264800120B53B2002BA8BF03F160404FEA53139B
:102658004FEA4511BABF1A4802F00F0500F561406C
:102668004FEA8303C9B203F16043B4BF415580F810
:10267800001303F5614302F01F02012101FA02F27F
:10268800C3F880211A6023680822C3F80025242390
:1026980003FB06830022C3E906225A61012283F85C
:1026A80020203846BDE8F8830827FAE71127F8E71D
:1026B80010080020FD230000000300501003020052
:1026C80014ED00E02DE9F04103680479254D00225E
:1026D800C3F80025242202FB04520646526872B150
:1026E800214AC3F80823190B4AB20120520901F004
:1026F8001F0100FA01F120321C4840F82210D3F8DB
:102708000C05D3F81485D3F80815D3F810754FF0D5
:10271800FF329042C3F80C25C3F81425C3F80825E6
:10272800C3F8102501D0FFF7DBFEB8F1FF3F02D058
:102738004046FFF7D5FE7A1C02D03846FFF7D0FE98
:102748004B1C02D00846FFF7CBFE3068FFF73AFA79
:10275800242303FB0454002384F820306360BDE87D
:10276800F08100BF100800201003020000E100E023
:1027780001F06043B3F1005F2DE9F041074632D123
:102788001C4B0679242505FB063598466C6964BB05
:102798006A61A96000684FF49071FFF711FE4FF469
:1027A800AC713868FFF70CFE3B686A69A968C3F822
:1027B8004415C3F8482501229A606A68BAB9D3F863
:1027C8002011D3F8582149B9002AF8D00F20242322
:1027D80003FB068600237361BDE8F081002A14BF5D
:1027E8000F200020F3E71020F6E71120F4E7204639
:1027F800F2E700BF1008002084B004AB03E907002B
:102808009DF80430012B0DD1074A08481370084B76
:10281800084A0949C01AC008000440F0030004B07F
:10282800FEF740B904B070473C080020E42C0000D3
:10283800BC2C000034080020C42E000070B54FF0F6
:102848008043012088B09867FEF7C0FA4FF4004132
:102858000020FDF761FF08B1FEF7D7FAFDF798FEF3
:10286800204B2148214D2249C01AC008000440F0DD
:102878000300FEF713F90FCD02AC0FC495E803006F
:102888001D2384E8030005931C210423CDE90213CA
:10289800184A1948032302A90493FEF7EFFF08B169
:1028A800FEF7B3FA154C164D264607220021284696
:1028B80000F09CF9002307222370124900922B464E
:1028C8000D48FFF7E3FA08B1FEF79FFA337833B102
:1028D800FDF77CFF0028FBD1FEF75EFAE5E720BF95
:1028E800F4E700BFBC2C0000E42C0000942E00008C
:1028F800AC2E000001280000BC2E00003C0800207F
:10290800340800201C000020054B1B68082B01BF61
:10291800044B1868B0FA80F0400918BF00207047CF
:10292800300100103401001008B54FF08043002238
:10293800C3F80C21C3F81021C3F838254FF0805292
:1029480003F54043D2F80414C3F82015D2F808144C
:10295800C3F82415D2F80C14C3F82815D2F81014AB
:10296800C3F82C15D2F81414C3F83015D2F818147B
:10297800C3F83415D2F81C14C3F84015D2F8201443
:10298800C3F84415D2F82414C3F84815D2F828140B
:10299800C3F84C15D2F82C14C3F85015D2F83014DB
:1029A800C3F85415D2F83414C3F86015D2F83814A3
:1029B800C3F86415D2F83C14C3F86815D2F840146B
:1029C800C3F86C15D2F84424C3F87025FFF79CFFB0
:1029D80010B1384B384A1A60FFF796FF18B1374BD9
:1029E800FB22C3F81825FFF78FFF48B13449354B50
:1029F8000A681B6822F00F0203F00F0313430B60F1
:102A0800FFF782FF18B1304B4FF400721A604FF095
:102A18008043D3F80024D20744BF6FF00102C3F803
:102A280000242A4AD2F8883043F47003C2F8883068
:102A3800BFF34F8FBFF36F8F4FF01023D3F80022EF
:102A4800002A03DBD3F80432002B2FDA204B0122B3
:102A5800C3F80425D3F80024002AFBD04FF0102235
:102A68001221C2F80012D3F80024002AFBD04FF03C
:102A780010231222C3F80422154B1A46D3F8001467
:102A88000029FBD00021C3F80415D2F80034002B2C
:102A9800FBD0BFF34F8F0D490E4BCA6802F4E062BA
:102AA8001343CB60BFF34F8F00BFFDE70A4B0B4AC0
:102AB8001A6008BD8C5600404881030000F00040B1
:102AC800E40E0040580200104096024000ED00E07D
:102AD80000E001400400FA05240000200090D00323
:102AE8007F2805D8034B185C034B5B5C1840704784
:102AF80000207047E82E0000682F0000A0F1610355
:102B0800192B98BF20387047A0F14103192B98BFA3
:102B1800203070477F2805D8034B185C034B5B5C5B
:102B28001840704700207047E82E0000682F00000A
:102B3800A0F16103192B98BF20387047A0F1410319
:102B4800192B98BF203070477F299ABF0170012048
:102B58006FF02E0070475AB10A787F2A0AD800B160
:102B68000260002119605960501A18BF012070478F
:102B7800002070476FF02E007047000008B5034B27
:102B88005B689B681B68984708BD00BF2800002049
:102B980008B50921FFF7F2FF08BD844640EA0103A2
:102BA80013F0030F18D18446202A0BD32DE9F00720
:102BB800B1E8F807A0E8F807A2F12002202AF7D226
:102BC800BDE8F007042A07D351F8043B40F8043B5A
:102BD800A2F10402042AF7D2002A05D011F8013B19
:102BE80000F8013B013AF9D1604670478446002A53
:102BF8002DD010F0030F04D000F8011B013A26D0A5
:102C0800F7E7C9B241EA012141EA0141202A12D37A
:102C1800A2F120022DE9F0030B460C460D460E46A4
:102C28000F4688468946A0E8FA03203AFBD2BDE859
:102C3800F00320320BD0042A05D340F8041B043AD1
:102C480005D0042AF9D200F8011B013AFBD16046ED
:102C5800704700F1010110F0030F11D010F8012B9B
:102C6800002A23D010F0030F0AD010F8012B002AF5
:102C78001CD010F0030F03D010F8012B002A15D038
:102C88002DE970004FF001324FF0803350F8044BBB
:102C9800A4EB020525EA04051D4000D1F6E7A0F1E2
:102CA800040070BC10F8012B002AFBD1A0EB010036
:022CB800704763
:102CBC00762E0000000000007D2E000000000000B9
:102CCC00812E000000000000862E00000000000095
:102CDC008B2E0000000000006D2D0000000003038F
:102CEC00302D0000000000003C2D000014000020DE
:102CFC0080000020480100205001002088000020A6
:042D0C0018000000AB
:102D1000FFFFFFFFFFFFFFFFFFFFFFFFFFFFFFFFC3
:102D200000000000000000000000D60106010000C5
:102D30000105000065050000B104000075617274B2
:102D40005F6C6F675F6261636B656E6400000000BB
:102D5000740500207F000000F40500204261636BD1
:102D6000656E647320666C7573686564006170706D
:102D700000000000A72D0000EC2D0000AC2D00008D
:102D8000F42D0000FC2D0000042E00000C2E00008D
:102D9000142E00001C2E0000202530327800202048
:102DA00020007C002563001B5B306D001B5B313B0A
:102DB00033316D0025734C6F67732064726F7070D0
:102DC0006564202825642925730D0A003C25733E7F
:102DD0002025733A2000000000000000412E000072
:102DE000242E00002C2E0000312E00001B5B313BF6
:102DF00033306D001B5B313B33326D001B5B313B6D
:102E000033336D001B5B313B33346D001B5B313B57
:102E100033356D001B5B313B33366D001B5B313B43
:102E200033376D007761726E696E6700696E666F29
:102E3000006465627567000D0E0F10466174616C69
:102E4000206572726F720053797374656D207265BC
:102E50007365740000000000000000000000000026
:102E60000338FDD87047303132333435363738398E
:102E70004142434445464750494F54450050525300
:102E80000053504953005541525400554152544546
:102E900000000000FF000000FF000000FF00000035
:102EA000FF00000000000000FFFF060053504953E0
:102EB000206578616D706C65000000000040004086
:102EC00000000000205472616E7366657220636FAB
:102ED0006D706C657465642E2052656365697665F6
:102EE000643A20257300000020202020202020208C
:102EF000206828282828202020202020202020206A
:102F00002020202020202020481010101010101009
:102F10001010101010101010848484848484848411
:102F20008484101010101010108181818181810122
:102F30000101010101010101010101010101010181
:102F40000101011010101010108282828282820210
:102F50000202020202020202020202020202020251
:102F600002020210101010200007032004170201B3
:102F700008571040800000001C310000E02F0000C6
:102F8000F430000053756E004D6F6E00547565008F
:102F90005765640054687500467269005361740097
:102FA000000000004A616E00466562004D617200DB
:102FB000417072004D6179004A756E004A756C006F
:102FC00041756700536570004F6374004E6F760063
:102FD0004465630000000000414D00504D000000BA
:102FE00018310000143100001431000014310000C9
:102FF00014310000143100001431000014310000BD
:103000001431000014310000FFFFFFFFFFFFFFFF3E
:10301000FFFFFFFFFFFF000054300000842F00007F
:1030200090300000A42F0000D82F0000383000009E
:10303000E830000044300000256D2F25642F2579ED
:1030400000000000256120256220256520255420F0
:103050002559000053756E646179004D6F6E64618F
:10306000790054756573646179005765646E6573A2
:10307000646179005468757273646179004672699D
:1030800064617900536174757264617900000000B5
:103090004A616E7561727900466562727561727916
:1030A000004D6172636800417072696C004D617916
:1030B000004A756E65004A756C79004175677573D5
:1030C000740053657074656D626572004F63746F50
:1030D000626572004E6F76656D626572004465636D
:1030E000656D62657200000025483A254D3A25530A
:1030F00000000000E92A0000052B0000112B000051
:103100001D2B0000392B0000452B0000512B000027
:103110005F2B0000000000002E00000043000000B4
:08312000504F53495800000014
:1031280000000000002000400000000000200040D7
:103138000000000000000000FF0000004E6F7264F5
:10314800696300000090D003782F0000782F0000FA
:0C315800782F0000782F0000782F000076
:04000003000003797D
:00000001FF
