:100000000000042079030000610300006303000086
:1000100065030000670300006903000000000000A2
:100020000000000000000000000000006B03000062
:100030006D030000000000006F030000710300006A
:1000400073030000730300005116000073030000E7
:10005000730300007303000073030000C116000067
:10006000551B0000730300007303000073030000BE
:1000700073030000730300007303000073030000A8
:100080007303000073030000730300007303000098
:100090007303000073030000730300007303000088
:1000A0007303000073030000730300007303000078
:1000B0007303000073030000000000000000000054
:1000C0007303000073030000730300007303000058
:1000D0007303000073030000730300007303000048
:1000E00073030000730300007303000000000000AE
:1000F0000000000073030000000000007303000014
:1001000000000000000000000000000000000000EF
:1001100000000000000000000000000000000000DF
:1001200000000000000000000000000000000000CF
:1001300000000000000000000000000000000000BF
:1001400000000000000000000000000000000000AF
:10015000000000000000000000000000000000009F
:10016000000000000000000000000000000000008F
:10017000000000000000000000000000000000007F
:10018000000000000000000000000000000000006F
:10019000000000000000000000000000000000005F
:1001A000000000000000000000000000000000004F
:1001B000000000000000000000000000000000003F
:1001C000000000000000000000000000000000002F
:1001D000000000000000000000000000000000001F
:1001E000000000000000000000000000000000000F
:1001F00000000000000000000000000000000000FF
:10020000364937480A1A02D0072291438D463549AC
:1002100035480A1A06D00722914381F30988022241
:1002200082F3148831483249324A00F045F83248A6
:100230003249334A00F040F832483349334A00F03B
:100240003BF833483349344A00F036F833483449F0
:10025000344A00F031F834483449354A00F02CF87B
:1002600034483549354A00F027F8354835490022E9
:1002700000F02DF834483549002200F028F83448C1
:100280003449091A082903DB0022026004300160A6
:10029000314A90471F482049884205D002680430FF
:1002A00003B4904703BCF7E700208646EC460020E5
:1002B00000212A4A9047FEE7884207D0521A05D00B
:1002C000037801300B700131013AF9D1704788424F
:1002D00002D002700130FAE77047000000000420ED
:1002E00000E0032000000420000004203C2E000059
:1002F0000000002034000020D8030000D8030000D4
:10030000C02900003C2E000000000020000000205A
:10031000242A0000242A0000242A0000242A0000A5
:10032000242A0000242A0000242A0000242A000095
:100330003C2E0000702E000034000020340000200D
:1003400034000020E1060020E4060020E40600203E
:10035000E4060020E4260020A1030000252600007A
:10036000FEE7FEE7FEE7FEE7FEE7FEE7FEE7FEE765
:10037000FEE7FEE7704700BF1048804710484FF087
:100380000701884385460F4880470F48016841F4BC
:1003900070010160BFF34F8FBFF36F8FFFF730BF66
:1003A0000A480B490B4A884207D0521A05D00378F5
:1003B00001300B700131013AF9D17047750300002B
:1003C000000004209D26000088ED00E0242A0000A3
:0803D0000000002000000020E5
:1003D800F0B595B01C46164608460D4600F0E9FFF4
:1003E8001A9B0D93CDE9086400242346082205A929
:1003F80028460A948DF82C400C9400F0F8FF079BCF
:100408000293BDF81830ADF80C30BDF81A30ADF8CD
:100418000E309DF814308DF8114003F00302012AC4
:100428001DD1BDF81440059EC3F3C203C4F3831461
:100438008DF81030A20008230EA9284600F0D7FF37
:10044800C6F3952608AB0093224602AB0EA93046A8
:1004580000F0C4FB284600F0B0FF15B0F0BD022A3A
:10046800F8D1BDF81640C3F3C203A4098DF81030C3
:100478000827082C264628BF08263B4632460EA9E0
:10048800284600F0B4FFA41B08AB02AA31460EA808
:10049800374400F007FC002CEBD1DBE7014B0122CD
:1004A8001A707047750000207047000070B50E4D37
:1004B80006460FCD88B06C460FC495E80F0084E857
:1004C8000F0008A9002E4FF00603084A41F8203D06
:1004D80008BF0022064801F017F808B100F038FC00
:1004E800044B1E7008B070BD242A0000A50400004B
:1004F800000000203400002007B5044B0093044A94
:100508004023FFF765FF03B05DF804FB1D050000FD
:100518003500002038B50D4B0D4D002018700D48E2
:1005280004782D5DD2B21C4665B1043001F076FF27
:1005380008B100F00DFC084B1A7812B12378002B93
:10054800FBD038BD0C3001F047FDF1E77500002005
:100558002C060020000000203400002008B50848C0
:10056800084A0378D35C3BB1043001F001FF002056
:10057800BDE80840FFF79ABF0C3001F0D7FCF6E75A
:10058800000000202C0600200120FFF78FBF00008C
:1005980008B5FFF7F9FF0421034800F08DFA034B73
:1005A80001225A7108BD00BF002A00001400002073
:1005B800037813F0040216D003F00303012B03D0D1
:1005C800022B09D0012070470A6800880232C0F364
:1005D800831002440A60F5E70B684288023303EB94
:1005E80092130B60EEE71046704700002DE9F04FBC
:1005F800484C87B00F460546861C0020019200F043
:10060800FFFB23683B60D4E90123134422680133CC
:100618009B1A04F21C4704F5836A04F21448B34297
:1006280019D3019A0023002A6CD0012262F3010336
:1006380043F0040365F389132168A2680A40033272
:100648000E44002044F82230266000F0DBFB012035
:1006580007B0BDE8F08F0121384600F0F5FB5046A1
:1006680000F008FC404600F005FC0DF11809606830
:10067800D4F808B049F8100D00EA0B00033004EB79
:1006880080004946FFF794FF029BB0B90BEA0302CA
:1006980004EB8202D16803919A1C013303EA0B0B25
:1006A80004EB8B0C01F00303012B0292DCF80CB075
:1006B80020D0022B04D083460BE00BEA0300DDE7D1
:1006C800BDF80E309B0903334FEA1B4B02EB930333
:1006D8000293404600F0D1FB08B1029B6360594683
:1006E800384600F0B1FBD4E90123134422680133F2
:1006F8009B1A94E7BDF80C30C3F383134FEA1B4BE6
:100708001344E5E7022262F3010343F0040365F3AF
:100718009F5391E7480100200B4B0C48FF2210B56E
:100728009A600022C3F81824C3E90022C3F81424ED
:1007380083F8202400F0F6FD044610B9044800F0C0
:1007480091FE204610BD00BF48010020102A00007D
:10075800642A000030B50A4C71B10A4A0A49121BD2
:10076800D20800239A4201D1002030BD31F823502D
:10077800854202D00133F5E7034654F83300F4E725
:10078800C0290000002A000000000020094B0139A0
:1007980003EBC000032909D8DFE801F00A020406C8
:1007A80004207047007970474079704700207047EF
:1007B80002207047C0290000034BD3E90030C31A58
:1007C80058425841704700BF480100202DE9F043C6
:1007D80085B0FFF7F1FF0646002840F0F9807D4D0F
:1007E800C5F81804BFF34F8F6868AC6804AF47F8C2
:1007F800100D2040033005EB80003946FFF7D8FE86
:10080800009B18B1D5F81824002A5FD004EA030227
:10081800991C013305EB8202234005EB8303D26860
:10082800DB68029302F00303022B0192009162D16C
:10083800BDF8063068484FEA9318B8F1500FC14622
:1008480028BF4FF0500969F38F1309F10801ADF87B
:10085800063000F07FFD0746002800F0A48000F075
:10086800A8FD01A900230822384600F0B5FD00992B
:1008780024EA01060136B600B14535D95FFA89F98F
:100888007EB3F6B2A9EB0609214003315FFA89F479
:10089800B146524E05EB810108234A46384600F01E
:1008A8009BFD36B109F1080322463146384600F06F
:1008B80093FD009B08F1030803EB98030093D5F818
:1008C8001834002B4BD1D5F810445BE02A689A42C3
:1008D80004D86A60304605B0BDE8F08304EA030036
:1008E80088E73E493446D7E72140033108234A4682
:1008F80005EB8101DAE7012B55D1BDF80430364804
:10090800C3F38311062928BF062161F38913023135
:100918008900ADF8043000F01DFD0746002842D0DC
:1009280000F047FD0023082201A9384600F054FDD5
:100938000026BDF80420C2F38312B31C96424FEA86
:100948008303BCD200994A1C21400331009205EB75
:1009580081010422384600F03FFD0136E9E73846B8
:1009680000F02BFDFFF728FF80F00100C6B2B1E7C9
:10097800E3685B7923B1236839461B6820469847AA
:10098800E3681C68002CF3D1384600F016FD2046B9
:1009980000F036FAD5F818340BB9009B6B600020CC
:1009A80000F030FADEE7D5F8104454B90C4B0D4886
:1009B8000D49C01AC008000440F0020000F06EF8AB
:1009C800D0E7236820469B689847E3681C68ECE7F3
:1009D80000267FE748010020102A0000540100206B
:1009E800C0290000F0290000702A00002DE9F74F07
:1009F800284C80460F46924601A9012218469B467C
:100A0800D4F80890FFF7F2FD88B3019D0026A91CD1
:100A18005E4506EB010234D100211F4800F0F4F9CD
:100A280080F310006A1C02EA090204EB8202000447
:100A380005EA0903033340EA1840D06014F823207C
:100A480068F3C50204F8232034F8232066F38912DA
:100A580024F8232054F82320012167F39F2244F827
:100A6800232061F301026FF3820204F8232094F833
:100A780020341BB1FFF7AAFE0028FBD103B0BDE864
:100A8800F08F09EA020204EB82025AF82630D3609A
:100A98000136BDE7480100206405002000231A46FE
:100AA800FFF7A4BF13B502AC012344F8042D224676
:100AB800FFF79CFF02B010BD30B50F49D1F81024E4
:100AC800002314463CB9C468237152B9C1F8100414
:100AD8002260184630BDE46825799D4206D0246816
:100AE800F0E7D268116821601060F2E701330A2B41
:100AF800E7D14FF0FF33ECE748010020094A38B549
:100B08000123D2F8104482F820341D4604B938BDB8
:100B1800E3685D71236820465B689847E3681C6852
:100B2800F4E700BF48010020037A052B10B50C46F6
:100B38000FD0437A23B1084A0849204600F0F7F954
:100B48000749204600F0F3F92046BDE8104000F0C0
:100B5800E3B9002AF8D0F3E7BB2A0000C02A000056
:100B6800E02A0000C38873B504460D4633B1144A21
:100B780000921449144A284600F0D9F9217A052927
:100B88001CD0637A4BB1A088FFF700FE0F4B1049C9
:100B980053F82020284600F0CAF9227A0D4BA08885
:100BA80053F822600021FFF7D5FD0B490346324672
:100BB800284602B0BDE8704000F0B9B902B070BD77
:100BC800BB2A0000CB2A0000C32A0000882A0000A4
:100BD800C02A0000F02A0000E32A00002DE9F043B3
:100BE80085B01F460C9D002306460C46904695F896
:100BF8000C902B7329463846FFF7B4FFB8F1060F5F
:100C080009D8DFE808F00412181F283340003146DD
:100C1800284600F08CF9002229463846FFF784FF61
:100C280085F80C9005B0BDE8F08322683146284667
:100C380000F07DF9EFE7D4E900233146284600F0BB
:100C480076F9E8E7A36800933146D4E900232846FB
:100C580000F06DF9DFE7E3680193A368009331467C
:100C6800D4E90023284600F062F9D4E72369029307
:100C7800E3680193A36800933146D4E9002328462A
:100C880000F055F9C7E76369039323690293E368A2
:100C98000193A36800933146D4E90023284600F065
:100CA80046F9B8E708292DE9F84F80460E46174659
:100CB8001C4636D8002593F80C901D73194610462B
:100CC800FFF750FFDFF87CA0DFF87CB0AE422AD9EE
:100CD80018F805205946204600F029F90135082D55
:100CE800F4D11649DFF864B0204600F020F9002559
:100CF800AE421DD918F805A0504601F0FFFD0028A6
:100D080014BF52462E225946204600F010F90135EC
:100D1800082DEDD1012221463846FFF705FF84F85A
:100D28000C90BDE8F88F5146204600F000F9D5E751
:100D38000349204600F0FBF8E9E700BFB62A0000A7
:100D4800B42A0000B22A0000AC2A0000B82A000029
:100D58001FB50021039001AA44F20100CDE9011159
:100D680000F004F805B05DF804FB000010B572B699
:100D7800FFF7C4FEFFF72AFD0028FBD1104B114CEA
:100D88001149E41AE408240444F00100FFF786FE40
:100D98000E4B1B68DB0700D500BE0D4944F002006E
:100DA800FFF77CFEBFF34F8F0A490B4BCA6802F46A
:100DB800E0621343CB60BFF34F8F00BFFDE700BF76
:100DC800C0290000F02900004F2B0000F0ED00E0E2
:100DD8005B2B000000ED00E00400FA0572B6024A41
:100DE800136801331360704704060020034A136830
:100DF800013B136003B962B6704700BF04060020C8
:100E0800FFF7ECBFFFF7F2BF50E8002F0B4640E8B2
:100E1800003C9CF0000FF7D11046704750E8003FA7
:100E280043EA010240E8002C9CF0000FF6D110467E
:100E3800704750E8002F02EA010340E8003C9CF0AC
:100E4800000FF6D11046704750E8003F03EB01024F
:100E580040E8002C9CF0000FF6D11046704750E88F
:100E6800003FA3EB010240E8002C9CF0000FF6D1F4
:100E7800104670470121FFF7D1BF0021FFF7D9BF06
:100E880010B590B1D0E9012301689B1ADBB20A6062
:100E9800013BDBB2FF2B026802D10020107110BDAC
:100EA80011684C1C14600B70F2E70E20F7E738B598
:100EB80004460020FFF7A4FF22686368116899427E
:100EC80013D9481E106011F8015CE368218A01FB00
:100ED8000535A36811791B1ADBB2994200D2137148
:100EE8000020FFF78FFF284638BD0025F8E738B502
:100EF800054600200C46FFF783FF2A681368591C33
:100F08001160E968641A298AB4FBF1F41C700020A6
:100F1800BDE83840FFF776BF826810B504462AB1AD
:100F280043690168006998470023A36010BD0EB4A7
:100F380003B5039929B102AA04AB42F8043D00F0B5
:100F48006BF802B05DF804EB03B07047826830B408
:100F58000468551C8560A154D0E901329A4202D335
:100F680030BCFFF7D9BF30BC704700002DE9F84FFF
:100F78009946DDE90A431746824688460A4601260D
:100F8800BA420FD24E4538BF4E4613F0010B01D17D
:100F980064B900240125B9F1010F1AD909F1FF3903
:100FA8007D43F8E7B2FBF7F20136E9E79B070ED578
:100FB800B9F1000F0CBF30252025A642EAD2013C2A
:100FC80029465046FFF7C2FF002CF6D1E1E720255D
:100FD800F3E7B8FBF5F39F42E2D9DFF83890B8FBA6
:100FE800F5F3504619F8031005FB1388FFF7AEFF19
:100FF800B5FBF7F5002DF2D1BBF1000F02D00CB113
:10100800A64201D3BDE8F88F20215046013CFFF7E6
:101018009DFFF4E7682B00002DE9F74F0546904641
:101028000E46002900F03A8116F8011B002958D015
:10103800252940F0D180002702E047F00107164635
:10104800324612F8013B2D2BF7D0302B04D02B2B36
:1010580005D147F00407F2E747F00207EFE700245D
:101068002A2B06F101021BD1D8F80030191D1B6884
:10107800C8F800101C44164633782E2B1CD10136B4
:101088004FF0000A314611F8012BA2F1300009286F
:1010980014D80A2303FB0A23A3F1300A0E46F1E70A
:1010A80012F8013CA3F130010929E5D80A2101FB16
:1010B8000434303C1646D3E74FF0000A324612F8A3
:1010C800011B01F0FB0068281646F8D0692916D0E4
:1010D80054D8582970D00ED825297DD03378002BC4
:1010E800A2D12B7B002B00F0D980284603B0BDE8A5
:1010F800F04FFFF711BF632968D06429EED1D8F803
:101108000020D2F80090111D89EAE972C8F8001091
:10111800A2EBE9724FF0010B092A61DCD34538BF15
:10112800D3462CB1B9F1000F01DB790700D5013C9A
:10113800BA0702D5BAF1000F04D0FB0702D4002C7D
:1011480054D10024B9F1000F58DAC9F100092D2152
:101158002846FFF7FBFE07F00302022A05D1BAF181
:10116800000F02D1002C4DD10024CDE90047534691
:101178000A2249462846FFF7F9FEAFE7732954D0FB
:1011880016D87029AAD1D8F800301A1DC8F800203E
:10119800302128461C68FFF7D9FE78212846FFF73A
:1011A800D5FE00220823CDE9003221461022E1E7CE
:1011B80075292FD0782991D1D8F800100A1DC8F8C0
:1011C8000020CDE90047534610222CE0D8F8003023
:1011D8001A1D1978C8F800202846FFF7B7FE7DE7E2
:1011E8000A230BF1010B92FBF3F295E7A345A9D271
:1011F80020212846013CFFF7A9FEA0E77807AAD5D9
:101208002B21A5E7A345B0D230212846013CFFF7A2
:101218009DFEA7E7D8F80010CDE900470A1DC8F8D9
:10122800002053460A220968A4E7D8F800301A1D9E
:10123800C8F80020F907D3F8009012D54F46A7EB5D
:10124800090B17F8011B41B9A345BFF447AF20218B
:101258002846013CFFF77AFEF6E72846FFF776FEB8
:10126800EDE7B9F1000F17D0484601F075FB0746C6
:10127800BC4200D954B909F1FF3919F8011F0029F6
:101288003FF42CAF2846FFF761FEF6E720212846F9
:10129800013CFFF75BFEEBE74F46E9E703B0BDE82B
:1012A800F08F2DE9F047B0F806904479D2F800A005
:1012B8009DF8208009FB04F4043C06460AEB030071
:1012C800A0420F4688BFA4EB030A191DC2F800A06C
:1012D800B1FBF9F509FB15114DB9A9EB010454450A
:1012E80028BF5446BAF1000F04D1BDE8F08736682C
:1012F800013DF1E704317B1970182246B8F1000F5F
:101308000ED001461846AAEB040A01F0FCFAD145B2
:10131800254436684C464FF0000128BF5446E1E7A3
:101328001946F0E7FFF7ACBDF8B546790146721EDD
:101338000546002393422D6803D30024A64202D811
:10134800F8BD0133F6E70F682846FFF7D0FD0134F2
:101358003946F3E72DE9F843068ACD1C0746FFF71F
:10136800A6FD043E35440446B5FBF6F5F0B14FF44E
:101378008073EDB28380C680013D076081464FF0DF
:101388000008A84512D23846FFF791FD064648B135
:1013980063790133637108F10108C9F80000076037
:1013A8008146EEE72046FFF7BFFF34462046BDE8FA
:1013B800F88301210430FFF747BD10B50121044629
:1013C8000430FFF74CFD10F0FF0F04D12046BDE8B4
:1013D8001040FFF7A9BF10BD1FB504AC44F8042D99
:1013E800002200922246FFF75CFF04B010BD1FB533
:1013F80004AC44F8042D012200922246FFF751FF65
:1014080004B010BD064B10B500241C70054B1C60C1
:10141800BFF35F8F0449054800F02DF8204610BD42
:101428001006002014060020782B00000806002073
:1014380008B50020FFF7E4FCF1EE103A23F09F0313
:10144800E1EE103ABFF35F8F054B4022C3F88421C9
:101458000020FFF7D7FC20BF40BF20BF08BD00BF5A
:1014680000E100E0836800225A609A60C3E9042220
:10147800DA601A6070470B684A684360934208BF95
:101488000023016008BF436070470000034B1878D1
:1014980010B901221A70704785207047180600207D
:1014A8001FB503788DF8003043680193037A8DF8EF
:1014B8000830C3680393054A054B684653F8213042
:1014C80052F82110984705B05DF804FB1C0600206F
:1014D800240600201FB503788DF800304368019377
:1014E80083688DF80830C3680393054A054B68463E
:1014F80053F8213052F82110984705B05DF804FBE5
:101508001C06002024060020F0B5194B0678DFF8E9
:1015180070E043F82620174B94460A6943F82620C2
:101528004B7F0EF806300C4607460FCC89B06D4647
:101538000FC594E80F0085E80F001EF806300496E2
:1015480053B1BCF1000F0C4A694608BF0022381D90
:1015580000F02CFE09B0F0BDBCF1000F074A694647
:1015680008BF002207F10C0000F006FCF2E700BFFC
:10157800240600201C060020A9140000DD14000029
:101588002C0600202DE9F84F124D134F80464FF0DE
:10159800000A04264FF001095FFA8AFB002009FAC5
:1015A8000BF4FFF72DFC2C4208D03B6814EA030229
:1015B80001BF23433B6088F800B016460020FFF7C0
:1015C80021FC1EB1A5430AF1010AE5D13046BDE868
:1015D800F88F00BFFFFF0F003006002010B5A1B143
:1015E8009AB101238340C3F3130484B10A4C2468DD
:1015F80023420ED0C00000F1804000F5F830C0F85A
:101608001015C0F81425002010BD0E20FCE7072097
:10161800FAE70820F8E700BF30060020012303FAA4
:1016280000F0C0F313031BB1054B1B68184204D02C
:10163800044BC3F80405002070470820704700BF1A
:101648003006002000F00140014B1B68184700BF1E
:101658003406002038B50A4B98420D460CD10020BC
:10166800FFF7CEFB074B1C7914B901221D601A71D4
:101678000020FFF7C7FB0CB9002038BD1120FCE79C
:101688000020004034060020034B984201BF034B62
:1016980000221A601A7170470020004034060020AA
:1016A80000F1804000F5E040002382B00360036849
:1016B8000193019B02B07047F0B5514B514C1B6828
:1016C80085B0DBB14FF4827094F82E20FFF7E8FF65
:1016D80012B194F82F30A3B1636802932389ADF84F
:1016E8000C30E36800218DF80410002B44D12374DA
:1016F800236801A89847002384F82F3094F82E30E7
:1017080003B3414B1B68EBB14FF48070FFF7C8FF80
:1017180094F82D20638B91B28B4238D95B1A2189BA
:101728009BB26383CB1A616801EB4301374BC3F863
:101738002C16C3F830264FF48270FFF7B1FF344BF4
:1017480001221A60334B1B685BB14FF48870FFF7B6
:10175800A7FF002304A82374022300F80C3D236884
:1017680098472D4B1B6813B34FF48A70FFF798FF07
:101778000023237405B0F0BD208B60836360208153
:10178800E160002AB4D1214B01221A60B0E7D2D11E
:10179800E368012184F82F103BB1002161831B49C4
:1017A800C1F82C36C1F83026C5E76383C3E76669FC
:1017B8004FF000470125002EDCD0B6FA86F227FA52
:1017C80002F34632920026EA030602F1804303F54B
:1017D800E0431B68002BEED01046FFF761FFA2F52F
:1017E8008C72D30882F00402C2F380028DF80830AC
:1017F8008DF804508DF80920236801A89847DAE786
:10180800047100403C060020007100400070004058
:1018180004700040107100401471004038B51D4B31
:10182800044693F82C0098BB1B4A19602178C2F82B
:10183800F0156178C2F8F415E5781874012183F879
:101848002C1083F82D00586183F82F0083F82E5050
:101858006FF00043C2F808334FF48270FFF720FF9F
:101868004FF48070FFF71CFFA3780C485B01DBB2D4
:1018780080F807338023C0F8803103600223C2F860
:1018880004330DB1C2F80413C2F80015002038BDA6
:101898000820FCE73C0600200070004000E100E062
:1018A800224B1A7C30B5002A3ED100F10C0403EB20
:1018B8004402127922B993F82D20013283F82D20A1
:1018C80003EB4403CA790C7A1A715C718D784B78F2
:1018D8002D021B0105F4E06503F030032B430D785E
:1018E80005F003052B43CD782D0305F480552B43D4
:1018F8000D792D0405F4E0252B434D7989792D05C3
:1019080005F48015090601F080712B430B43010192
:1019180001F1804101F5E0410020C1F81835C1F816
:101928001445C1F8102530BD1120FCE73C06002005
:10193800054B93F82E30002B14BF0020042000F133
:10194800804000F5E04070473C060020264A274BBF
:1019580070B505461220C2F808031C7C022C03D17E
:10196800C2F80403112070BD187C01281DD1D86865
:1019780018B10223C2F80433F4E7DD60198393F841
:101988002E3063B91A4A1368002BFCD04FF48070CC
:10199800FFF786FE144BC3F82C56C3F83016124BCB
:1019A8000222C3F804230020DDE7022093F82E402A
:1019B800C2F80403012600201E745D601981D860F6
:1019C8003CB1598393F82D30C2F82C56C2F8303602
:1019D800C9E7C2F82C564FF48070C2F83016FFF7EA
:1019E8005FFE20461660BEE7007000403C060020FF
:1019F80000710040F7B50579334C0C266E43A719E2
:101A08003B7A002B5ED1A2514A687A604679006819
:101A18001F46DAB296424BD8020B53B2CE78002B4F
:101A2800A8BF03F16047D2B24FEA5313B8BF02F020
:101A38000F0C4FEA4616B4BF244F07F561474FEA2B
:101A48008303F6B203F16043B4BF07F80C6087F86C
:101A5800006303F56143012602F01F0206FA02F251
:101A6800C3F880211A60D0F804254B7822F00302CD
:101A780003F003031343C0F80435D0F808258B7826
:101A880022F0030203F003031343C0F80835D0F82B
:101A980010250B7822F00F0203F00F031343C0F850
:101AA80010350C2303FB05440020267203B0F0BD5B
:101AB80003F15002013340F8227050F822200192BD
:101AC800019AA6E70820F1E76C06002014ED00E073
:101AD800036801221A600379034A0C2101FB0323DE
:101AE80002221A72704700BF6C06002037B54FF407
:101AF80080348C4000687BB101F150039B000025C5
:101B0800C550C3580193019BC0F8044301F5A8715F
:101B180040F8212003B030BDC0F80843F6E7F0B420
:101B280004689DF81070D4F8005240F201168E40F7
:101B380025EA0605C4F80052D4F800522B43C4F82D
:101B480000323B46F0BCFFF7D1BF00002DE9F3415E
:101B5800104C114F114E00254FF480382368A4F51E
:101B6800004080B26BB1D7F8043308FA05F21A4284
:101B780007D00023236023680193019BD6E9003135
:101B880098470135042D04F10404E7D102B0BDE8FB
:101B9800F08100BF40810040008000406C060020BA
:101BA8000023435082B043580193019B02B0704711
:101BB8000A4610B54FF48E71FFF7F2FF136A916869
:101BC800C95C136A01331362C0F81C1510BD8B6918
:101BD8000A4610B54FF4847123B9FFF7E1FFD0F836
:101BE800183510BDFFF7DCFF536AD168D0F8180527
:101BF800C854536A01335362F3E700001FB5012349
:101C08008DF80030044BCDE90110D3E90012684685
:101C1800904705B05DF804FB7806002030B54C4AC3
:101C2800D2F8043313F4007F85B015464FD0D2F8AC
:101C38002431002B4BD04FF492711046FFF7B0FFC0
:101C48004FF40173C2F80833424B93F8291009B9CD
:101C5800012151603E4902228DF80020D1F88024EC
:101C6800C1F8802403929A690292DA6801920022EC
:101C7800C3E906226846D3E9001290473448D0F8F1
:101C88001C315BB133490A6A4B699A420A464BD206
:101C980091F82830002B47D1FFF78AFF2C4AD2F859
:101CA800443193B14FF4A2711046FFF779FF294BE5
:101CB80093F8291009B1012111609A692AB100220B
:101CC8009A61586AD968FFF799FF05B030BDD5F811
:101CD80004335B07D2D5D5F80831002BCED01D4C84
:101CE8001B482146FFF773FF636AA2699A4223469D
:101CF800C4D1E269E1684AB12369E3600023606AFC
:101D0800A261E3616362FFF779FFB7E794F82920DE
:101D18000AB901226A600E4A4FF40170C2F808033A
:101D280000229A61586AEEE74FF48E710848FFF76F
:101D380037FF51690029B1D00023029191688DF8CD
:101D48000030019153616846D2E900139847A5E72E
:101D580000200040780600201F2886BF00F01F00E2
:101D6800044B4FF0A04300F5E070022243F8202016
:101D7800704700BF000300502DE9F843664B047913
:101D880091462C2202FB0432064692F82A200D4680
:101D98009846002A40F0BC8060490068FFF75AFC6A
:101DA8000746002840F0B68029684A1C10D01F2931
:101DB80087BF01F01F035A4A0B464FF0A04201208B
:101DC800984003F5E073C2F80805032042F82300A1
:101DD8006868431C0DD01F288BBF00F01F03034603
:101DE8004F4A4FF0A04203F5E0734FF0000C42F861
:101DF80023C03368AA6995F814C0C3F824256A7DFE
:101E0800BCF1010F4CEA0202C3F86C25C3F81405B3
:101E1800C3F80C152BD1A968481C0DD01F298BBFFE
:101E280001F01F020A463E484FF0A04002F5E0725A
:101E38004FF0000C40F822C0E868421C13D01F285D
:101E480087BF00F01F0C364A84464FF0A0424FF07F
:101E5800010E0EFA0CFE0CF5E07CC2F808E54FF016
:101E6800030E42F82CE0C3F80805C3F810152C231C
:101E7800634308EB0302C2F804902A6948F8032078
:101E8800B9F1000F31D04FF48E7130682D7FFFF714
:101E980087FE30684FF4A271FFF782FE3268214B4B
:101EA800C2F80433120B53B2002BA8BF03F16040F1
:101EB8004FEA53134FEA4511BABF1B4802F00F050A
:101EC80000F561404FEA8303C9B203F16043B4BF30
:101ED800415580F8001303F5614302F01F02012108
:101EE80001FA02F2C3F880211A6033680422C3F8A9
:101EF80000252C2303FB04830022C3E9062283F870
:101F080029205A61012283F82A203846BDE8F8833F
:101F18000827FAE71127F8E778060020251C0000B3
:101F2800000300508000020014ED00E02DE9F041AC
:101F380003680479254D0022C3F800252C2202FBF2
:101F480004520646526872B1214AC3F80823190B95
:101F58004AB20120520901F01F0100FA01F12032B2
:101F68001C4840F82210D3F80C05D3F81485D3F890
:101F78000815D3F810754FF0FF329042C3F81425B6
:101F8800C3F80C25C3F80825C3F8102501D0FFF7BE
:101F9800E3FEB8F1FF3F02D04046FFF7DDFE7A1CB2
:101FA80002D03846FFF7D8FE4B1C02D00846FFF790
:101FB800D3FE3068FFF768FB2C2303FB045400238F
:101FC80084F82A306360BDE8F08100BF78060020FD
:101FD8008402020000E100E02DE9F843224F06796F
:101FE8004FF02C0909FB067480466569002D37D12E
:101FF8006261A16025624FF48E71006884F82850F0
:10200800FFF7CEFDD8F80000012383602146FFF7D3
:10201800CFFD6368A1462BBBD8F80050226A6369DC
:102028009A4212D3D8F80030D3F81C21002AFBD0EA
:102038000122DA6000202C2303FB0676002373615B
:10204800BDE8F88394F8283043B9D5F81C31002B43
:10205800F8D049462846FFF7ABFDDFE70F20EAE74F
:102068001120EDE72846EBE77806002000234350CF
:1020780082B043580193019B02B070471FB50123FA
:102088008DF80030054B8DF8080001916846D3E9BA
:102098000012904705B05DF804FB00BFA4060020BD
:1020A8007FB5384AD2F82461002E49D010464FF443
:1020B8009271FFF7DBFF02238DF80030D2F88034ED
:1020C800C2F880340393D2F83C358DF808302E4B93
:1020D800DA6801920022C3E906226846D3E90012B1
:1020E8009047284AD2F8443173B14FF4A271104690
:1020F800FFF7BCFF244B996931B100219961D2F8EF
:102108003C05D968FFF7BAFF1E4AD2F82031ABB1B7
:102118004FF490711046FFF7A9FF1B4B596969B13D
:10212800D2F84C158DF80810002299688DF8002017
:1021380001915A616846D3E90012904704B070BD16
:10214800D2F81031002BCCD04FF488711046FFF72D
:102158008DFF0D4BD2F83C0599698842C1D1DC69E5
:10216800D96864B1D2F8005225F02005C2F80052AF
:102178001A699C61DA60DE61FFF780FFB1E79C6154
:10218800FAE700BF00200040A40600201F2886BFF1
:1021980000F01F00044B4FF0A04300F5E07002224E
:1021A80043F82020704700BF000300502DE9F84392
:1021B8006A4B06799146242202FB0632044692F8BD
:1021C80020200D469846002A40F0C48064490068E3
:1021D800FFF740FA0746002840F0BE802868421CF6
:1021E80010D01F2887BF00F01F035E4A03464FF038
:1021F800A0420121994003F5E073C2F808150321B4
:1022080042F8231069684B1C0DD01F298BBF01F0C1
:102218001F030B46534A4FF0A04203F5E0734FF0FB
:10222800000C42F823C02368AA6995F814C0C3F8C3
:1022380024256A7DBCF1010F4CEA0202C3F86C2523
:10224800C3F80C05C3F814152BD1A968481C0DD088
:102258001F298BBF01F01F020A4642484FF0A040D9
:1022680002F5E0724FF0000C40F822C0E868421C0A
:1022780013D01F2887BF00F01F0C3A4A84464FF03E
:10228800A0424FF0010E0EFA0CFE0CF5E07CC2F8ED
:1022980008E54FF0030E42F82CE0C3F80805C3F830
:1022A80010152423734308EB0302C2F804902A692B
:1022B80048F80320B9F1000F3BD04FF4887120682B
:1022C8002D7FFFF7D3FE4FF490712068FFF7CEFE05
:1022D8004FF492712068FFF7C9FE20684FF4A2718D
:1022E800FFF7C4FE2268204BC2F80433120B53B226
:1022F800002BA8BF03F160404FEA53134FEA451182
:10230800BABF1A4802F00F0500F561404FEA83038F
:10231800C9B203F16043B4BF415580F8001303F517
:10232800614302F01F02012101FA02F2C3F8802181
:102338001A6023680822C3F80025242303FB0683B8
:102348000022C3E906225A61012283F82020384678
:10235800BDE8F8830827FAE71127F8E7A406002064
:10236800A9200000000300501003020014ED00E053
:102378002DE9F04103680479254D0022C3F80025B2
:10238800242202FB04520646526872B1214AC3F85D
:102398000823190B4AB20120520901F01F0100FA63
:1023A80001F120321C4840F82210D3F80C05D3F86C
:1023B8001485D3F80815D3F810754FF0FF32904202
:1023C800C3F80C25C3F81425C3F80825C3F810254D
:1023D80001D0FFF7DBFEB8F1FF3F02D04046FFF720
:1023E800D5FE7A1C02D03846FFF7D0FE4B1C02D02F
:1023F8000846FFF7CBFE3068FFF746F9242303FBB6
:102408000454002384F820306360BDE8F08100BFE5
:10241800A40600201003020000E100E001F0604380
:10242800B3F1005F2DE9F041074632D11C4B067924
:10243800242505FB063598466C6964BB6A61A9606A
:1024480000684FF49071FFF711FE4FF4AC713868D3
:10245800FFF70CFE3B686A69A968C3F84415C3F81E
:10246800482501229A606A68BAB9D3F82011D3F8CE
:10247800582149B9002AF8D00F20242303FB0686E7
:1024880000237361BDE8F081002A14BF0F200020EB
:10249800F3E71020F6E71120F4E72046F2E700BF43
:1024A800A40600207047000003782DE9F041064695
:1024B80013BB05214068FFF749FA08B1FEF748FC4D
:1024C8000E4B0F4C0F4D10492A68DFF84080E41A74
:1024D800E408240444F003042046FEF7E3FA002746
:1024E80073684146DA5F20460237FEF7DBFA0A2FA7
:1024F800F6D12B6801332B60BDE8F081C0290000BC
:10250800F0290000C8060020E62B0000F82B000088
:102518001FB5FEF7BBFF08B1FEF71AFC062300241F
:102528008DF80B30184A19488DF80840032302A982
:102538008DF8094003948DF80A30FFF75BFA08B16B
:10254800FEF706FC124B1148D3F810350094002210
:1025580001231146FFF7E3FA0C48FFF7B9FAFFF732
:10256800E7F904460B48FFF70DF808B1FEF7F0FB52
:10257800084B094918782246FFF730F808B1FEF7EA
:10258800E7FB04B010BD00BFAD240000BC2B000069
:1025980000800040E00600204081004008B5054B5F
:1025A8001878FFF73BF818B1BDE80840FEF7D0BB34
:1025B80008BD00BFE00600201FB5134A1068516827
:1025C800127A01AB03C3114911481A70FFF726F9B3
:1025D80008B1FEF7BDFB01A90020FFF761F908B1BA
:1025E800FEF7B6FB05210B48FFF7B0F908B1FEF777
:1025F800AFFB05210848FFF7A9F908B1FEF7A8FBCA
:1026080005B05DF804FB00BFAC2B0000B12400004E
:10261800B52B0000CC060020D6060020002108B506
:102628000846FEF779F808B1FEF792FBFDF7B0FF10
:10263800FEF7E8FE08B1FEF78BFBFFF7BDFFFFF7DB
:1026480067FFFFF7ABFF0848084B0949C01AC008E5
:10265800000440F00300FEF721FAFEF7E9FEFEF75A
:10266800B5F80028FBD1F8E7F0290000C0290000E0
:10267800C42B0000054B1B68082B01BF044B1868CE
:10268800B0FA80F0400918BF0020704730010010F0
:102698003401001008B54FF080430022C3F80C2124
:1026A800C3F81021C3F838254FF0805203F5404392
:1026B800D2F80414C3F82015D2F80814C3F8241566
:1026C800D2F80C14C3F82815D2F81014C3F82C1536
:1026D800D2F81414C3F83015D2F81814C3F8341506
:1026E800D2F81C14C3F84015D2F82014C3F84415C6
:1026F800D2F82414C3F84815D2F82814C3F84C1596
:10270800D2F82C14C3F85015D2F83014C3F8541565
:10271800D2F83414C3F86015D2F83814C3F8641525
:10272800D2F83C14C3F86815D2F84014C3F86C15F5
:10273800D2F84424C3F87025FFF79CFF10B1384B3A
:10274800384A1A60FFF796FF18B1374BFB22C3F8D7
:102758001825FFF78FFF48B13449354B0A681B68C5
:1027680022F00F0203F00F0313430B60FFF782FF01
:1027780018B1304B4FF400721A604FF08043D3F811
:102788000024D20744BF6FF00102C3F800242A4A8C
:10279800D2F8883043F47003C2F88830BFF34F8F03
:1027A800BFF36F8F4FF01023D3F80022002A03DB0A
:1027B800D3F80432002B2FDA204B0122C3F804256A
:1027C800D3F80024002AFBD04FF010221221C2F8BF
:1027D8000012D3F80024002AFBD04FF01023122255
:1027E800C3F80422154B1A46D3F800140029FBD06D
:1027F8000021C3F80415D2F80034002BFBD0BFF336
:102808004F8F0D490E4BCA6802F4E0621343CB6048
:10281800BFF34F8F00BFFDE70A4B0B4A1A6008BD94
:102828008C5600404881030000F00040E40E004050
:10283800580200104096024000ED00E000E0014020
:102848000400FA051C0000200090D0037F2805D85A
:10285800034B185C034B5B5C1840704700207047C3
:10286800FC2B00007C2C0000A0F16103192B98BF01
:1028780020387047A0F14103192B98BF20307047CA
:102888007F2805D8034B185C034B5B5C18407047E6
:1028980000207047FC2B00007C2C0000A0F1610395
:1028A800192B98BF20387047A0F14103192B98BF06
:1028B800203070477F299ABF017001206FF02E00E9
:1028C80070475AB10A787F2A0AD800B102600021FD
:1028D80019605960501A18BF0120704700207047CE
:1028E8006FF02E007047000008B5034B5B689B68CB
:1028F8001B68984708BD00BF2000002008B50921C3
:10290800FFF7F2FF08BD844640EA010313F0030F06
:1029180018D18446202A0BD32DE9F007B1E8F8072F
:10292800A0E8F807A2F12002202AF7D2BDE8F007B4
:10293800042A07D351F8043B40F8043BA2F10402EF
:10294800042AF7D2002A05D011F8013B00F8013B10
:10295800013AF9D16046704700F1010110F0030F08
:1029680011D010F8012B002A23D010F0030F0AD041
:1029780010F8012B002A1CD010F0030F03D010F818
:10298800012B002A15D02DE970004FF001324FF0CD
:10299800803350F8044BA4EB020525EA04051D40DA
:1029A80000D1F6E7A0F1040070BC10F8012B002A52
:0829B800FBD1A0EB0100704708
:1029C0008D2B000000000000912B00000000000093
:1029D000952B0000000000009B2B00000000000071
:1029E000A12B000000000000A62B0000000000004A
:1029F000812A000000000303842B00000000000077
:102A0000442A000000000000502A000014000020AA
:102A100078000020400100204801002080000020B4
:042A2000180000009A
:102A2400FFFFFFFFFFFFFFFFFFFFFFFFFFFFFFFFB2
:102A340000000000000000000000D60106010000B4
:102A44000105000065050000B104000075617274A1
:102A54005F6C6F675F6261636B656E6400000000AA
:102A64006C0500207F000000EC0500204261636BD0
:102A7400656E647320666C7573686564006170705C
:102A840000000000BB2A0000042B0000C32A000041
:102A94000C2B0000142B00001C2B0000242B000026
:102AA4002C2B0000342B000020253032780020200D
:102AB40020007C002563001B5B306D002573001B28
:102AC4005B313B33316D0025734C6F677320647247
:102AD4006F70706564202825642925730D0A003CF5
:102AE40025733E2025733A200000000000000000FA
:102AF400552B00003C2B0000442B0000492B000008
:102B04001B5B313B33306D001B5B313B33326D005B
:102B14001B5B313B33336D001B5B313B33346D0046
:102B24001B5B313B33356D001B5B313B33366D0032
:102B34001B5B313B33376D007761726E696E6700E2
:102B4400696E666F00646562756700466174616CE6
:102B5400206572726F720053797374656D207265AB
:102B64007365740030313233343536373839414285
:102B740043444546C0290000C02900000400000069
:102B84007077725F6D676D740050504900505253F6
:102B94000053414144430054494D4552005541526C
:102BA4005400554152544500000000000200000149
:102BB4000001000600000000008000400004000046
:102BC40053414144432048414C2073696D706C6506
:102BD400206578616D706C652073746172746564CE
:102BE4002E00414443206576656E74206E756D62D7
:102BF40065723A2025640000202020202020202017
:102C04002068282828282020202020202020202058
:102C140020202020202020204810101010101010F8
:102C24001010101010101010848484848484848400
:102C34008484101010101010108181818181810111
:102C44000101010101010101010101010101010170
:102C540001010110101010101082828282828202FF
:102C64000202020202020202020202020202020240
:102C740002020210101010200007032004170201A2
:102C84000857104080000000302E0000F42C000093
:102C9400082E000053756E004D6F6E00547565006C
:102CA4005765640054687500467269005361740086
:102CB400000000004A616E00466562004D617200CA
:102CC400417072004D6179004A756E004A756C005E
:102CD40041756700536570004F6374004E6F760052
:102CE4004465630000000000414D00504D000000A9
:102CF4002C2E0000282E0000282E0000282E000074
:102D0400282E0000282E0000282E0000282E000067
:102D1400282E0000282E0000FFFFFFFFFFFFFFFF0B
:102D2400FFFFFFFFFFFF0000682D0000982C00004C
:102D3400A42D0000B82C0000EC2C00004C2D000049
:102D4400FC2D0000582D0000256D2F25642F2579BA
:102D540000000000256120256220256520255420DF
:102D64002559000053756E646179004D6F6E64617E
:102D7400790054756573646179005765646E657391
:102D8400646179005468757273646179004672698C
:102D940064617900536174757264617900000000A4
:102DA4004A616E7561727900466562727561727905
:102DB400004D6172636800417072696C004D617905
:102DC400004A756E65004A756C79004175677573C4
:102DD400740053657074656D626572004F63746F3F
:102DE400626572004E6F76656D626572004465635C
:102DF400656D62657200000025483A254D3A2553F9
:102E04000000000055280000712800007D28000003
:102E140089280000A5280000B1280000BD28000072
:102E2400CB280000000000002E000000430000003A
:082E3400504F53495800000003
:102E3C0000000000002000400000000000200040C6
:102E4C000000000000000000FF0000000090D00314
:102E5C008C2C00008C2C00008C2C00008C2C000086
:042E6C008C2C0000AA
:04000003000003797D
:00000001FF
